S02B00002F73747564656E74732F6F6F6F33302F576172702D6669726D776172652F6275696C642F6B73646BDE
S1130000000600201D050000450500004505000010
S113001000000000000000000000000000000000DC
S11300200000000000000000000000004505000082
S11300300000000000000000450500004505000028
S11300404505000045050000450500004505000084
S11300504505000045050000450500004505000074
S1130060073D000045050000113D00004505000066
S11300704505000045050000450500004505000054
S11300804505000045050000450500004505000044
S1130090891A0000A11A000045050000450500006A
S11300A04505000045050000450500004505000024
S11300B04505000045050000450500004505000014
S1130400FFFFFFFFFFFFFFFFFFFFFFFFFE3DFFFFBB
S11304100448054B10B5834203D0044B002B00D095
S1130420984710BDA8FFFF1FA8FFFF1F0000000092
S113043006480749091A8B10C90FC91810B5491085
S113044003D0044B002B00D0984710BDA8FFFF1F1A
S1130450A8FFFF1F0000000010B5074C2378002BF5
S113046009D1FFF7D5FF054B002B02D0044800E06B
S113047000BF0123237010BDA8FFFF1F0000000070
S1130480BC740000054B10B5002B03D0044905488B
S113049000E000BFFFF7CCFF10BDC0460000000025
S11304A0ACFFFF1FBC740000402292029A1A9246CD
S11304B07047C046154B002B00D1114B9D46FFF7EA
S11304C0F3FF00218B460F461148124A121A00F01E
S11304D0FFF80C4B002B00D098470B4B002B00D09F
S11304E098470020002104000D000B4800F02EF86E
S11304F000F064F82000290001F094FF00F034F8C3
S113050000000800000000000000000000060020B9
S1130510A8FFFF1FC40200209505000072B606481C
S11305200649074A02600A6003F0F8FB03F038FC4E
S113053062B6FFF7BFFF000080E100E080E200E068
S1130540FFFFFFFF004800474505000010B501000C
S113055000230022002000F019FA10BD014B186896
S11305607047C04600FEFF1F084B10B50400002B67
S113057002D0002100F078FA054B1868836A002B3A
S113058000D09847200001F051FAC046690A0000E3
S1130590FC5B000070B5074D074C641BA41005D02C
S11305A0013CA300EB589847002CF9D106F08CFFCE
S11305B070BDC046E0740000E474000070B50C4DDA
S11305C00C4E761BB61005D0002408CD0134984794
S11305D0A642FAD106F072FF074D084E761BB610FC
S11305E005D0002408CD01349847A642FAD170BD45
S11305F0DC740000DC740000DC740000E0740000B3
S113060010B5034B0100186800F00CF910BDC0468A
S113061000FEFF1F10B5034B0100186800F0ACF892
S113062010BDC04600FEFF1FF0B5C64600B50F2A38
S113063043D90B00032603431E400C000300002E85
S113064040D11500103D2D09AC462D01A84680442B
S113065000E03B00676825685F60E7681D60DF6055
S11306601F00A56810379D6010344345F1D16546DD
S11306700F230C2401352D01491913404519144247
S113068023D08C59AC5104369C1B032CF9D8032479
S1130690043B9B0801339B002240ED18C918561EE9
S11306A0002A07D0002300E02300CA5C5C1CEA5443
S11306B09E42F9D104BC9046F0BD0500561E002AA6
S11306C0F0D1F7E7561E0500ECE71A00F6E7C0463E
S11306D0F0B5050083074AD0541E002A44D0CEB298
S11306E00300032202E00135013C3DD301332E70A7
S11306F01342F8D1032C2FD9FF220A4015021543C7
S11307002A0415430F2C35D92700103F3F093E0119
S1130710B4461E001A001036664415605560956094
S1130720D5601032B242F8D10F260C2201373F01B6
S11307302640DB193700224217D03E1FB608B4000A
S1130740A4461A001C1D644420C2A242FCD1032406
S11307500136B6009B193C40002C05D0C9B21C19C7
S1130760197001339C42FBD1F0BD3400F4E714004E
S11307700300BFE72700E0E770B50500002915D0A6
S11307800C1F2368002B27DB280000F0CBF9244B37
S11307901A68002A05D0A2420CD921686018824246
S11307A024D0626028001C6000F0BEF970BDA34232
S11307B003D81A005368002BF9D111685018A042CD
S11307C01BD027D821686018834207D06360546027
S11307D0280000F0A9F9E9E7E418D5E718685B6890
S11307E084466144216063605460F1E71068526894
S11307F08446614421606260D4E720680918501877
S113080011608342E4D118685B68844661441160D6
S11308105360DDE70C2328002B6000F085F9C5E761
S1130820C4FFFF1FF8B50323CD1C9D430835060004
S11308300C2D2AD20C25A94229D8300000F072F9D7
S11308402A4F3A68002A0AD013685B1B04D441E09B
S113085023685B1B1FD522005468002CF8D17B68E9
S1130860002B3DD02900300000F042F8431C2AD070
S11308700323C41C9C43A04205D0211A300000F07D
S113088037F8431C1FD0256010E0002DD3DA0C2369
S113089000203360F8BD0B2B05D86368A2421DD03D
S11308A0536003E014002360E4182560300000F076
S11308B03BF9200007220B30231D9043C21AE9D0D4
S11308C01B1AA350E6E70C233000336000F02CF928
S11308D00020DFE70B2BE5D8140053683B60E5E705
S11308E00021300000F004F87860BBE7C4FFFF1F6C
S11308F0002370B5064C05000800236001F098F849
S1130900431C00D070BD2368002BFBD02B60F9E79B
S1130910C002002003000A7801311A700133002A52
S1130920F9D1704710B5830727D00378002B26D060
S11309300300032102E01A78002A1CD001330B4281
S1130940F9D119680F4A104C8A188A4322420FD1F0
S1130950043319680B4A8A188A43224208D10433A3
S11309601968084A8A188A432242F1D000E0013308
S11309701A78002AFBD1181A10BD0300E1E7002001
S1130980FAE7C046FFFEFEFE80808080F0B5464652
S11309904F46D646C0B51F002F4B82B01C680500D9
S11309A00E009046002C2DD063681F2B50DC002DC8
S11309B01CD08822A0589146002834D0783282581E
S11309C094469A0091468144424649460A60012170
S11309D0624699400A43944680228A466146520000
S11309E081504946803A8F50022D16D000205A1C5F
S11309F002339B0062601E5102B01CBC90469946B3
S1130A00A246F0BD154C1C60154B002BCCD01B68C6
S1130A1001938823019AE250C6E7554684328158EF
S1130A200D438550E2E70F4B002B11D0842040008A
S1130A30FFF7E6FD00280BD08022002352008350EC
S1130A40043283504B460022E05094466368B8E772
S1130A5001204042D0E7C04658000020CCFFFF1FD1
S1130A600000000001060000F0B5DE464E46454693
S1130A7057462B4B88469B46E0B51E6883B00190D1
S1130A80002E45D088237568F7586C1E40D4013574
S1130A90AD00783375199A460AE0002F05D03B0063
S1130AA0A20080339B58434505D0043D013C2FD31D
S1130AB04346002BF1D173682A68013BA34222D03C
S1130AC000232B60002AF0D073689946002F18D0B9
S1130AD001235146A3407958194212D08220400084
S1130AE03858A1007958009018420ED101989047C7
S1130AF05B4672681B684A4501D1B342D5D01E00DB
S1130B00BEE79047F4E77460DCE708009047EFE73E
S1130B1003B03CBC90469946A246AB46F0BDC046E5
S1130B20580000207047C0467047C04602B4714662
S1130B3049084900095C49008E4402BC7047C0461C
S1130B4003B47146490840004900095E49008E44D7
S1130B5003BC7047002243088B4274D303098B42C1
S1130B605FD3030A8B4244D3030B8B4228D3030C79
S1130B708B420DD3FF22090212BA030C8B4202D31B
S1130B801212090265D0030B8B4219D300E0090A43
S1130B90C30B8B4201D3CB03C01A5241830B8B424C
S1130BA001D38B03C01A5241430B8B4201D34B0335
S1130BB0C01A5241030B8B4201D30B03C01A52419A
S1130BC0C30A8B4201D3CB02C01A5241830A8B421F
S1130BD001D38B02C01A5241430A8B4201D34B0208
S1130BE0C01A5241030A8B4201D30B02C01A52416C
S1130BF0CDD2C3098B4201D3CB01C01A5241830920
S1130C008B4201D38B01C01A524143098B4201D359
S1130C104B01C01A524103098B4201D30B01C01A84
S1130C205241C3088B4201D3CB00C01A52418308FE
S1130C308B4201D38B00C01A524143088B4201D32B
S1130C404B00C01A5241411A00D20146524110468B
S1130C507047FFE701B5002000F0F0F802BDC04680
S1130C600029F7D076E7704703460B437FD4002270
S1130C7043088B4274D303098B425FD3030A8B422C
S1130C8044D3030B8B4228D3030C8B420DD3FF2296
S1130C90090212BA030C8B4202D31212090265D064
S1130CA0030B8B4219D300E0090AC30B8B4201D317
S1130CB0CB03C01A5241830B8B4201D38B03C01A5E
S1130CC05241430B8B4201D34B03C01A5241030BD5
S1130CD08B4201D30B03C01A5241C30A8B4201D386
S1130CE0CB02C01A5241830A8B4201D38B02C01A31
S1130CF05241430A8B4201D34B02C01A5241030AA8
S1130D008B4201D30B02C01A5241CDD2C3098B428C
S1130D1001D3CB01C01A524183098B4201D38B0109
S1130D20C01A524143098B4201D34B01C01A5241AC
S1130D3003098B4201D30B01C01A5241C3088B42F1
S1130D4001D3CB00C01A524183088B4201D38B00DC
S1130D50C01A524143088B4201D34B00C01A52417E
S1130D60411A00D201465241104670475DE0CA0F55
S1130D7000D04942031000D34042534000229C4615
S1130D8003098B422DD3030A8B4212D3FC2289011F
S1130D9012BA030A8B420CD3890192118B4208D3F5
S1130DA0890192118B4204D389013AD0921100E057
S1130DB08909C3098B4201D3CB01C01A524183096B
S1130DC08B4201D38B01C01A524143098B4201D398
S1130DD04B01C01A524103098B4201D30B01C01AC3
S1130DE05241C3088B4201D3CB00C01A524183083D
S1130DF08B4201D38B00C01A5241D9D243088B4293
S1130E0001D34B00C01A5241411A00D20146634635
S1130E1052415B10104601D34042002B00D5494299
S1130E20704763465B1000D3404201B5002000F0D8
S1130E3005F802BD0029F8D016E770477047C04690
S1130E40F0B54F464646D6464502C0B547000C1C91
S1130E506D0A3F0EC60F002F66D0FF2F6CD0002303
S1130E60EA00802599469A46ED0415437F3F6002C7
S1130E706100430A9846090EE40F002948D0FF296F
S1130E8010D08022D800D2040243904600207F393B
S1130E904A4633007F1A02436C4992008A586340E1
S1130EA0DBB29746002B6DD10220FF3F33E00023D5
S1130EB098462600454682465346022B00D17FE0E1
S1130EC0032B00D194E0012B17D038007F30002889
S1130ED05FDD6B0704D00F232B40042B00D00435B7
S1130EE02B0103D538005A4B80301D40FE2867DCA7
S1130EF0AD016D0AC0B202E01E0000200025C0054D
S1130F002843F60730431CBC90469946A246F0BDE0
S1130F10002B2BD101204A4633004E490243920054
S1130F208A586340DBB29746002D13D104239946B7
S1130F30033B00279A469AE7002D05D108239946DA
S1130F40063BFF279A4692E70C239946093BFF2765
S1130F509A468CE7280000F04BFD7627431F9D40FE
S1130F6000237F4299469A463F1A80E7180000F012
S1130F703FFD4246431F76219A404942091A904652
S1130F80002085E7FF21032082E71E00FF200025C3
S1130F90B5E701231B1A1B2BAFDC9E372900BD408C
S1130FA0D9406A1E95410D436B0704D00F232B4093
S1130FB0042B00D004356B0144D5012000259EE7A5
S1130FC0FF2000259BE780250026FF20ED0396E700
S1130FD0002398468020C003054209D043460342BB
S1130FE006D1454605436D022600FF206D0A86E7BB
S1130FF08020C00305436D02FF206D0A7FE7414650
S11310006A014801824219D21B210025013F0126B1
S113101014006D005200002C01DB904201D8121A1A
S1131020354301390029F3D1501E824138007F3005
S11310301E001543002800DD4BE7AAE71A2101250D
S1131040121AE4E7AD0100206D0A58E7005C0000C5
S1131050FFFFFFF7405C0000F8B557464E46454693
S1131060DE464402E0B545000F1C640A2D0EC60F8F
S1131070002D47D0FF2D4DD0002380209A469B465B
S1131080E400C00404437F3D7802430A99467A0091
S1131090FB0F9846120E4B4644D0FF2A11D0D800BD
S11310A08023DB040343994600207F3AAD1847466A
S11310B053467740691C0F2B3FD8724A9B00D35884
S11310C09F46FF35002B00D079E0524602231A4395
S11310D092460220EBE747464C4683465B46022B8A
S11310E028D0032B00D1C6E0012B4FD100200024CF
S11310F0C005FF07204338433CBC90469946A246AE
S1131100AB46F8BD002C71D104239A46033B00255D
S11311109B46B9E7002C63D108239A46063BFF257A
S11311209B46B1E7002B50D1524601331A439246F5
S11311300120BCE7FF200024DAE74846260C2404FB
S1131140220C0404240C4B4620001B0C5043744313
S11311505A435E431219030C9B189C4203D9802204
S113116052029446664400041A04000C12189401B6
S1131170601E84411B0C920E9B1914439B011C435B
S11311801B0172D50120630804401C4308007F3012
S113119000283CDD630704D00F232340042B00D038
S11311A00434230103D580310800374B1C40FE284A
S11311B0C0DCA401640AC0B29AE737008EE7524645
S11311C003231A439246032071E7484600F010FCBB
S11311D04A46431F9A402D1A91460020763D66E701
S11311E00C239A46093BFF259B464DE7200000F05F
S11311F0FFFB7625431F9C4000236D429A469B4685
S11312002D1A41E780240027FF20E40370E701231F
S11312101B1A1B2B00DD69E79E3120008C40D8404F
S1131220631E9C410443630704D00F232340042B13
S113123000D0043463011AD50120002458E780202B
S1131240C003044209D04B46034206D14C46044332
S113125064024746FF20640A4AE78020C00304432F
S113126064023700FF20640A42E729008EE7A401E4
S11312700020640A3CE78020C00304436402FF208A
S1131280640A35E7805C0000FFFFFFF770B50028B3
S113129013D0C317C5185D40C40F280000F0A8FB85
S11312A09E2301001B1A962B0FDC082801DD083948
S11312B08D406D026D0AD8B202E0002400200025A2
S11312C0C0052843E407204370BD992B0BDD05229C
S11312D02E00121AD64002001B3295402800451EEB
S11312E0A84135000543052901DD4A1F95402A0020
S11312F0084E3240680709D00F202840042805D042
S11313000432500102D59F2332405B1A9201550AE0
S1131310D8B2D5E7FFFFFFFBF0B557464E4645462A
S1131320DE46E0B598460C034B000600924687B0B3
S1131330240B5B0DCF0F002B6CD0DD4A934200D100
S113134086E0420FE4001443802212041443D94A75
S1131350C500944663440093002399469B46434644
S113136042461E03D20F5B0050469046360B5B0D7F
S113137000D178E0CE4A93421DD0CE49420F8C462C
S113138000996344F6008C46164380229C44120460
S113139063461643C200002000930099434601317E
S11313A08C4649467B4001930F2900D97EE0C24B0D
S11313B0890059588F465246009B324300D056E16B
S11313C0BB4900268C4663444946009302231943D3
S11313D089460220E1E74346019334001500834621
S11313E05B46022B5ED0032B00D1F3E1012B00D02E
S11313F018E1002200240025019B12052243DB078B
S11314001A432800110007B03CBC90469946A246F6
S1131410AB46F0BD2500054300D141E1002C00D1CD
S1131420ADE1200000F0E4FA010002000B391D23B5
S113143010005B1A3100350008388440D9408540DB
S11314400C439E48831A0093002399469B4686E7E3
S11314500500254300D01CE1082200930223002448
S113146091469B467BE75246324300D10AE1002E67
S113147000D176E1300000F0BBFA02000B3A1D23E4
S113148001009B1A52460839DA408E4016435246F0
S11314908A40009B8949181A03008C466344002043
S11314A000937AE700240025814AA5E72F0C2D0438
S11314B02D0C2B00110C1204120C534398461300EC
S11314C028007B43994648434844834640460B00E2
S11314D0000C824658467B4350440293814506D90A
S11314E09A4680235B029946CA4453460293030CEE
S11314F09B4643461B0400041B0C984603004344CC
S11315000493330C99462B003604360C73439846E7
S113151033007B439A464B465D435F434346554401
S1131520180C4019824503D980235B029A4657441C
S1131530050CEB19059343461D042D0C00044019BA
S1131540250C2404240C270057436A4390462A00A0
S11315503B0C9A464A436143414451448344884581
S113156003D980235B02984642443F040B0C3F0C92
S11315700904C919270098464B4677435C436E43D8
S11315805D433B0C9946A4194C4442440395A6423E
S113159004D980235B02984645440395029B3F048B
S11315A05B441E008342804123049846059B3F0C04
S11315B04744984676188E428941474440423D1834
S11315C0A846934649428A46C3449F42BF41804548
S11315D08041039BDA449846534640427F42074386
S11315E0240C934592418A4589413F19DC0D049BA3
S11315F075021D43681E85415346524249420A43BF
S1131600BF184744F60D7F0235435A023C43154345
S1131610FB0100D4C1E001216A080D401543E20733
S11316201543640826496144002956DD6B0709D037
S11316300F222A40042A05D02A1DAA42AD416D4238
S113164064191500E30104D580211E4AC900144021
S113165061441D4A914200DD24E76207ED086402FB
S113166049051543240B4A0DC6E60197B8E6104A0E
S11316700320944663444A46009303231A43914645
S113168052468AE649460123194389460026012029
S113169083E60C2200930323050091469B465EE6F5
S11316A00423994600230093013300249B4656E605
S11316B0FF07000001FCFFFFC05C00000DFCFFFF02
S11316C0FF030000FFFFFFFEFE070000002380244D
S11316D00025444A019324038EE60120401A382849
S11316E000DD86E61F285BDD1F2223005242511ACB
S11316F0CB401900202803D03B4A62449440254340
S11317006A1E95412A000A4307210D000024154052
S113171011425BD00F2100241140042953D0111D24
S1131720914292415242A4180A0023024BD501224D
S11317300024002560E680231B031C4209D01E42BE
S113174007D133431C0343461500240B254A019358
S113175052E68022120314432403224A240B0197E5
S11317604AE600F045F903001A00153220301C2A1D
S113177000DC84E65646083B00229E4089E600F0E1
S113178037F901000200153120321C2900DC4EE635
S1131790340008380025844053E6009B9C4641E70A
S11317A01249220061442E008D408A40C640691EC1
S11317B08D4132432A43C4405307B6D00F21114010
S11317C00429ACD1B1E765076402240BD2081543A0
S11317D0002211E68022120314432403014A240B3D
S11317E00AE6C046FF0700003E0400001E04000095
S11317F070B5002816D0C317C5185D40C40F280063
S113180000F0F6F8114A121A0A2816DC03002E001A
S113181015339E400B23181AC54053052D032D0B79
S11318205B0D03E000240023002500261B052B4349
S1131830E40723433000190070BD0B38854053057D
S11318402D0300262D0B5B0DF0E7C0461E0400009F
S113185070B543004602C40FFE201B0E591C750AC6
S113186008420CD0E022920094466D07360B634484
S11318701B053343E40723432800190070BD002BE4
S113188014D1002D1BD0280000F0B2F80A281CDC6B
S11318900B232A001B1ADA40030015339D400E4B1C
S11318A012031B1A5B05160B5B0DE1E7002D09D033
S11318B0320B80263603094B6D071643D8E7002305
S11318C00026D5E70026054BD2E703002A000B3B90
S11318D09A400025E3E7C04689030000FF070000A3
S11318E002004B00F0B508035B0D3D4ECC0F400ADF
S11318F0510F5F1C0843D50037420AD039495E189E
S1131900FE2E16DDFF230021DB050B43E007184301
S1131910F0BD002B06D1284327D005218901490AAF
S1131920DBB2F1E70543EDD08021C903FF23014376
S1131930EAE7002E1CDD920111004A1E9141C0000D
S11319406D0F014329434B0748D00F230B40042B51
S113195000D004318023DB040B403FD0721CFE2EE8
S1131960D0D08901490AD3B2CEE700230021CBE7C6
S11319703200173222DB80211E2209040843921B05
S11319801F2A1DDD022149428E1B0100F1400E0079
S1131990202A04D0144A94466344984005432900FD
S11319A04D1EA941314300264B07CED180200B00A8
S11319B0C004012203400142D3D1AFE70023ACE7C6
S11319C00A498C4629006344D1409D400A002900FD
S11319D098404D1EA94101431143E4E733009DE7BC
S11319E0FE07000080FCFFFFA2FCFFFF82FCFFFF5C
S11319F01C2101231B04984201D3000C10391B0A3B
S1131A00984201D3000A08391B09984201D30009FE
S1131A10043902A2105C40187047C0460403020255
S1131A20010101010000000000000000FEE7C046C3
S1131A300A4A0300116810B5002901D10849116050
S1131A4010680849C3188B4206D9FEF787FD0C239A
S1131A5003600120404210BD1360FCE75C000020DD
S1131A60C8020020C80200208378022098428041E6
S1131A7040427047437A0020013B012B03D90B7885
S1131A80013001330B70704710B5002003F0FCFCEB
S1131A90002803D00021080003F0EAFC10BD000078
S1131AA0024A1368013313607047C0468000002067
S1131AB037B5002002F0ECFBC02300240D4A9B0044
S1131AC013600D4A0D4D13600D4A200013600D4B39
S1131AD02C716C71AC711A68FA239B0053430A4948
S1131AE02B6003F01FFD2900200001AA03F080FDF4
S1131AF037BDC046189014541C901454D8000020CC
S1131B0000A0145484FEFF1FA800002010B58024F8
S1131B10002003F049FD0A4B64001C60094B0720B8
S1131B201C60094B1C6002F04DFE062002F04AFEC8
S1131B30200002F047FE002002F0AFFB10BDC046BB
S1131B40189014541C90145400A0145410B5002080
S1131B5002F0A8FB8023054A9B001360044A00207E
S1131B600449136002F00AFF10BDC0460CA01454CF
S1131B7010A014548400002010B5002002F03AFF95
S1131B8080238220074A5B001360074A40001360E9
S1131B9002F018FE0420FF3002F014FE002002F0D0
S1131BA086FB10BD0CA0145410A014540023364A14
S1131BB070B51360354A01201360354A0133FF3391
S1131BC01360344A34491360344A1360344A13604E
S1131BD0344A1360344A1360344A1360344A147824
S1131BE02500054004424DD00B60324932480B6059
S1131BF0002101603148016031490B6031490B60BB
S1131C0031490B6031490B6031490B6031490B603C
S1131C101378DB0703D50220FF3002F0C5FD09204D
S1131C2002F0D0FD0C2002F0CDFD052002F0CAFD2B
S1131C30082002F0C7FD0620FF3002F0C3FD0E208D
S1131C40FF3002F0BFFD8320400002F0BBFD0820FE
S1131C50FF3002F0B7FD0C20FF3002F0A5FD82201A
S1131C60400002F0AFFD0420FF3002F0ABFD07207E
S1131C7002F0A8FD062002F0A5FD8020400002F03D
S1131C80A1FD70BD0D60B0E70C9014541090145475
S1131C90149014541890145404A014541C90145404
S1131CA020901454249014543090145400A01454CC
S1131CB080FEFF1F08A014540CA0145410A0145448
S1131CC014A0145418A014541CA0145428A0145480
S1131CD02CA0145434A0145410B5092002F072FD41
S1131CE010BD10B50C2002F06DFD10BD384B10B5C1
S1131CF098423DD027D8374B984253D015D8C83B8B
S1131D00984244D009D8C83B984231D0324B9842CB
S1131D1006D1052002F048FD2DE0304B98423DD01D
S1131D202F49002001F0E3FF2CE096231B01984289
S1131D3043D02C4B984247D02B4B9842F0D10520EE
S1131D4002F032FD31E0294B98422BD007D8C83B32
S1131D5098421CD0264B984220D0264BD7E7C82364
S1131D601B01984229D0244B98422DD0234BE4E701
S1131D70052002F027FD082002F024FD0620FF3094
S1131D8002F020FD1E4B186802F0C9F810BD0520B2
S1131D9002F018FD082002F007FDEFE7052002F02D
S1131DA003FDF7E7052002F00DFD082002F00AFD0F
S1131DB00620FF3002F0F8FCE4E7052002F002FD03
S1131DC0082002F0F1FCF3E7052002F0EDFCF7E750
S1131DD0280A0000980800006C070000340800007E
S1131DE0005D0000C4090000FC080000B80B0000FE
S1131DF0540B00008C0A0000E40C00001C0C0000D2
S1131E0088FEFF1F10B5FFF771FF092002F0CCFC1C
S1131E100C2002F0D7FC8320400002F0D3FC10BD5C
S1131E2010B5FFF763FF092002F0CCFC0C2002F090
S1131E30BBFC8320400002F0B7FC10BDAF220C4B6A
S1131E4010B5C3189BB29200934202D8FFF7DAFF91
S1131E5010BD084BC3189BB2934202D8FFF7E0FFB2
S1131E60F6E702000449002001F041FFF0E7C04614
S1131E70F8F8FFFFD8F5FFFF2D5D000010B5FFF760
S1131E802BFFFFF72EFF8320400002F08DFC024B56
S1131E90186802F044F810BD88FEFF1F10B5040056
S1131EA0002901D0FFF782FE0021022001F090F802
S1131EB02100042001F08CF810BD10B5012420008D
S1131EC00021FFF7EBFF21003C20FFF7E7FFF6E7D7
S1131ED0F0B59DB285B0039206002A000C000020E4
S1131EE0012101F00CFB29000700214801F016FA3A
S1131EF03F18002E1CD01F49002001F0E5FC1E4DA8
S1131F00286802F00CF81D49002001F0DDFC286867
S1131F1002F005F81A49002001F0D6FC286801F007
S1131F20FEFF0020174901F0CFFC286801F0F7FFFD
S1131F300026154D15492B686A680020009232006E
S1131F4001F0D5FE200001F021FB200001F01AFA77
S1131F502A6800206B680E49009701F0C8FE039BB5
S1131F60002B02DD180001F0DAFF0136E1E7C0467C
S1131F709F390000655D00007CFEFF1F8D5D000041
S1131F80AF5D0000626D000000D00340D45D00002E
S1131F90E05D0000F0B591B0059218AA12780D9199
S1131FA00A921CAA12780EA90E921DAA12881E006B
S1131FB0089221225218D27F16AB09921FAA1288C6
S1131FC01F780F9217AB20AA12781B7804000B928B
S1131FD0BB4203D30A9A974200D91F00059B002EE7
S1131FE006D1002B06D15949002001F080FE01E002
S1131FF0002BF8D100250898FFF720FF21000020CE
S113200001F062FC089C0495069503950023079350
S1132010079B199A934200DC95E00E9B002B04D099
S113202001370A9BFFB2BB42F0D2039A069B944647
S113203047496344002001F05AFE322001F06FFF4B
S1132040099B049A434900930020039B01F04FFE2F
S1132050322001F064FF2A003F49002001F047FECE
S1132060322001F05CFF11B0F0BD029B3022FB185E
S11320700C936B469B18187801210D9B98470028F8
S113208049D1039B01330393089B9C4204D9643CCC
S1132090A4B22000FFF7D2FE002E26D0099AB37B0B
S11320A09B1A5A425341049AD31804930B9B002B56
S11320B00BD0337B029A717BB07B0091019027494E
S11320C00020DBB2BA1801F012FE1B9B002B02DDCC
S11320D0180001F024FF029B01330293029B1A9A19
S11320E09342C2DB079B013391E7059B099A1B7A54
S11320F09B1A5A425341049AD31804930B9B002B06
S1132100E3D0059B029A1B7A30001549DBB2BA185A
S113211001F0EDFDD9E7022810D100200C9A1149F5
S113212001F0E5FD069B013306930F9B9C42CCD244
S11321306434A4B22000FFF781FEC6E703384342AB
S113214058412D18C1E70023C7E7C046005D0000D1
S11321503A5E0000525E0000835E0000ED5D000008
S1132160125E0000275E0000F0B591B00D9316AB2F
S11321700400100004CB0C911F781AAB1B880E923C
S11321800F931BAB1E881CAB1D78002C00D16AE09A
S1132190FFF7DCFC601E13285FD8FEF7C7FC0A3D7E
S11321A04244465E484A4C4E50525458565E5A5C1D
S11321B05E260F9B0C9A07930D9B00920693189B27
S11321C02B4A05930E9B2B490493199B2A4803938E
S11321D03123029300230A97099608950193FFF788
S11321E0D9FEFFF7C9FC11B0F0BD0F9B0C9A079301
S11321F00D9B00920693189B204A05930E9B204941
S11322000493199B1F4803930523029300230A9701
S1132210099608950193E2E71B49002001F054FB5D
S1132220DFE71A49F9E71A49F7E71A49F5E71A49BE
S1132230F3E71A49F1E71A49EFE71A49EDE71A49B2
S1132240EBE71A49E9E71A49E7E71A49E5E71A49C2
S1132250E3E71A49E1E71A49DFE7220019490020B8
S113226001F045FDBDE72000174901F02DFBBAE759
S1132270700000201D350000985E00006000002002
S113228029330000A65E0000B25E0000DD5E00009F
S11322900E5F00003E5F00006E5F00009B5F000069
S11322A0C85F0000F45F0000226000004E60000080
S11322B07B600000A7600000D360000000610000A4
S11322C02C61000058610000AA610000030030384E
S11322D0092805D91A00613A052A02D8573B180083
S11322E070471A00413A0020052AF9D8373BF6E72F
S11322F070B501F004FB040001F001FBFF260500AA
S113230020003040FFF7E2FF040028003040FFF7D0
S1132310DDFF24012018C0B270BD70B501F0EFFAE2
S1132320060001F0ECFA050001F0E9FA040001F0FE
S1132330E6FAFF22FA23642116401540303E144089
S11323409B00303D4D4373435A39303C4C435B1939
S113235010401B193038181870BD000070B50C00FF
S1132360160088B00CAA157806A908800A4A05A8A0
S113237005700A4D12682D684A6004AA167001930C
S1132380009023000020029502F05CFC002800D09D
S1132390022008B070BDC04674FEFF1F78FEFF1F08
S11323A0F7B56A46CB1DDB08DB00D31A02AF9D46A6
S11323B00C000500FFF77CFBFA2300219B0002AE12
S11323C00193009433002A00080003F06DF904001F
S11323D0FFF79CFB002C00D00424BD462000F2BD76
S11323E010B50020014901F06FFA10BDD66100005C
S11323F010B5094C0020210001F066FA21000020EC
S113240001F062FA0549002001F05EFA0449002057
S113241001F05AFA10BDC0460262000032620000A8
S113242063620000F0B5B9B025AC0722002120009A
S1132430FEF74EF9F94A01272C92032215AB2F938C
S113244017AB309319AB32931DAB34931FAB359359
S113245021AB369323AB1BAE11A9002037932CABD1
S11324601A712E91149327703396319401F008FF5A
S1132470380001F005FF8021E94B0902196001F0E1
S11324806DFD002300971A001900180001F03EFAB0
S1132490E449002001F018FAC82001F040FDE249A7
S11324A0002001F011FAC82001F039FDDF490020B5
S11324B001F00AFAC82001F032FD3B00DC4A022197
S11324C0DC4801F06FFD3900380001F077FD002091
S11324D002F018FF8C210025D74B2800299308AB64
S11324E05B181D80023108AB5B1829A91D702A975F
S11324F002F034FF3A00290011A8FEF7E9F8482059
S1132500259B08A91993A28809180A80A279023088
S113251008A909180A700322063808A909180A70BC
S11325201B93A28808A9B280A2790A38B271052245
S113253032701593A28802260A87A27909180A70B4
S1132540342108AA521816701793A288063008A9D5
S113255009180A80A279801908A909180A700422A6
S1132560063808A909180A701D93A2881C3008A906
S113257009180A80A279801908A909180A70082282
S1132580063808A909180A701F93A2880C3008A9F4
S113259009180A80A279801908A909180A70092162
S11325A0063808AA121811702193A3880C3008AABF
S11325B012181380A379801908AA121813700A2319
S11325C0063808AA121813706C2208AB9B181D70E9
S11325D014AA3B002FA801F0B3FE2900300000F03C
S11325E0F7FC9649964802F0C5F8FFF7DFFA082091
S11325F0FF3002F0D9F8C82001F091FC0820FF3028
S113260002F0E0F8C82001F08AFC0820FF3002F054
S1132610CBF8C82001F083FC0820FF3002F0D2F888
S1132620C82001F07CFC0820FF3002F0BDF8C8206F
S113263001F075FC0820FF3002F0C4F81D20814928
S113264000F058FF4020804900F066FEFFF716FCBA
S113265000F05EFD80231B0209932B002F000895D8
S11326600B9503330A937949002001F02DF9784C36
S1132670206801F054FC7749002001F025F9206816
S113268001F04DFC3B00089A7349002001F02FFB38
S1132690206801F044FC714D714E72492A68099812
S11326A0336809680190009100206F4901F01FFB15
S11326B0206801F034FC6D4B6D496E4A0020D258FD
S11326C04B69096800916C4901F011FB206801F025
S11326D026FC6A4900200A784B788979D2B2DBB2A9
S11326E00091674901F003FB206801F018FC634B7B
S11326F064491A7A1B7E0978D2B2DBB200910020B9
S1132700614901F0F4FA206801F009FC5F4B60496B
S11327101A785B780969D2B2DBB2009100205D4976
S113272001F0E5FA206801F0FAFB5B4B51489A7816
S11327304F495A4BD2B2C3584968002000915849B6
S113274001F0D5FA206801F0EAFB564B56491A68A5
S113275011AB1B78002001F0CAFA206801F0DFFBFE
S11327605249002001F0B0F8206801F0D8FB50492C
S1132770002001F0A9F8206801F0D1FB4D490020A8
S113278001F0A2F8206801F0CAFB4B49002001F0D7
S11327909BF8206801F0C3FB4849002001F094F83D
S11327A0206801F0BCFB4649002001F08DF8206848
S11327B001F0B5FB4349002001F086F8206801F0E0
S11327C0AEFB4149002001F07FF8206801F0A7FB2F
S11327D03E49002001F078F8206801F0A0FB3C4954
S11327E0002001F071F8206801F099FB3A000A9B7F
S11327F03849002001F07BFA206801F090FB36494B
S1132800002001F061F8206801F089FB33490020C1
S113281001F05AF8206801F082FB61E0751A0000AB
S1132820B402002095620000B0620000B6620000AD
S113283064FEFF1F90FFFF1FE0070100A0FEFF1FC3
S113284090FEFF1F7000002060000020BD620000A9
S11328507CFEFF1FE16200001363000074FEFF1F93
S113286084FEFF1F8CFEFF1F476300003C10000026
S113287000D00340007004407F6300000040064025
S1132880B563000000500640E463000000E0074028
S113289000ED00E01464000000D007403410000094
S11328A04E6400008000002086640000B4640000D0
S11328B0BE640000DB640000F764000013650000E0
S11328C030650000576500007665000095650000DE
S11328D0C0650000E3650000126600002E6600007B
S11328E0D549002000F0F0FF206801F018FBD3491F
S11328F0002000F0E9FF206801F011FBD04900201E
S113290000F0E2FF206801F00AFBCE49002000F04D
S1132910DBFF206801F003FBCB49002000F0D4FF6B
S1132920206801F0FCFAC949002000F0CDFF2068BE
S113293001F0F5FAC649002000F0C6FF206801F056
S1132940EEFAC449002000F0BFFF206801F0E7FA66
S1132950C149002000F0B8FF206801F0E0FABF4947
S1132960002000F0B1FF206801F0D9FABC49002032
S113297000F0AAFF206801F0D2FA00F0C0FFFF23A4
S113298002000C901A400A2A00D1CAE210006138F1
S1132990192800D9B7E0FEF7D3F82200B800CB001D
S11329A0DB00E600F00031013C014401C3011D02DB
S11329B02302230265026A026E02B60074027702E1
S11329C066FE7F02B600B6008D02B6009A02A54BE1
S11329D00B93012346E6A44B0B93142342E6A3492D
S11329E0002000F071FFA249002000F06DFF206874
S11329F001F095FA9F49002000F066FF9E490020EF
S1132A0000F062FF9D49002000F05EFF206801F0A5
S1132A1086FA9B49002000F057FF206801F07FFAF6
S1132A209849002000F050FF206801F078FA964998
S1132A30002000F049FF206801F071FA934900205A
S1132A4000F042FF206801F06AFA9149002000F08A
S1132A503BFF206801F063FA8E49002000F034FF48
S1132A60206801F05CFA8C49002000F02DFF2068FA
S1132A7001F055FA8949002000F026FF206801F092
S1132A804EFA8749002000F01FFF206801F047FA42
S1132A908449002000F018FF206801F040FA8249C0
S1132AA0002000F011FF206801F039FA7F4900206E
S1132AB000F00AFF206801F032FA7D49002000F09E
S1132AC003FF206801F02BFA7A49002000F0FCFE95
S1132AD0206801F024FA7849002000F0F5FE20680F
S1132AE001F01DFA7549002000F0EEFE206801F0A7
S1132AF016FA00F004FFFF220240352A00D166E7EF
S1132B006C2A00D167E76E490EE06E49002000F0A0
S1132B10DBFEFFF702FC28602A686B4B9A4201D166
S1132B206A4B2B602A686A49002001F0E0F89AE5B4
S1132B306849002000F0C8FEFFF7EFFB3060326800
S1132B40614B9A4201D1614B336032686249EBE7D1
S1132B506249002000F0B8FEFFF7DFFB604B6149DB
S1132B6018601A68E0E76049002000F0ADFEFFF746
S1132B70BFFB5E4907000200D6E75D49002000F074
S1132B80A3FEFFF7B5FB5B4D020029000400002003
S1132B9001F0ADF85849002000F096FEFFF7A8FBBD
S1132BA012AE020029003070002001F0A0F8534951
S1132BB0992C00D186E1524B08981B6827AD2893C5
S1132BC02C80FFF73BF924226B469B181878FEF7FC
S1132BD0BDFF4C4B13AA1B681770029301232900F5
S1132BE000200193009602F02DF8021E03D000206D
S1132BF0454901F07CF8FEF7BFFF34E54349002066
S1132C0000F062FEFFF789FB83B21A004049089383
S1132C108AE74049002000F057FE0120FFF7E8FB57
S1132C2021E53D49002000F04FFEFFF776FB83B21B
S1132C301A003A49099377E7526600007666000065
S1132C4090660000AB660000C9660000E6660000FE
S1132C5005670000246700003E6700006967000004
S1132C608967000070000020600000209C6700005D
S1132C70A7670000E5670000276800006868000097
S1132C80A8680000D86800001569000054690000B5
S1132C9092690000CF6900000D6A00004A6A0000D2
S1132CA0896A0000C66A0000EF6A00002C6B00000D
S1132CB0636B0000A06B0000DD6B0000086C00007B
S1132CC01C6C0000386C00000F2700001027000067
S1132CD0666C0000866C0000B46C0000CE6C0000D2
S1132CE08CFEFF1FFD6C0000186D00004E6D00008F
S1132CF0656D0000986D0000AE6D0000D76D00009A
S1132D0074FEFF1F78FEFF1FFD6D00001E6E0000A5
S1132D104A6E00006C6E00009A6E0000D66E0000D1
S1132D203A008149002000F0E2FF00F0E8FD7F490D
S1132D300C90002000F0C8FD00F0E1FD7C490D90EE
S1132D40002000F0C1FD00F0DAFD7A490E90002069
S1132D5000F0BAFDFFF7E1FA77490500002000F022
S1132D60B3FDFFF7DAFA75490600002000F0ACFD68
S1132D70FFF7D3FA72490400002000F0A5FDFFF725
S1132D80B7FA099B0A9A0F9001936E493B0002958A
S1132D900096002000F0ABFF6A4624210C9B5218D9
S1132DA0303B0F99581E83410E981278069108996A
S1132DB030380491411E884101900D98A4B23038F6
S1132DC0009039000A98DBB2059403960295FFF748
S1132DD0CBF948E45C49002000F076FDFFF76DF87C
S1132DE05A49002000F070FD5949002000F06CFDA4
S1132DF0FFF77EFA27AE57493070002000F064FDDB
S1132E00FFF78BFA30226B469B181D780400337849
S1132E10089A6C2D15D10192099A4F49009202002B
S1132E20002000F064FF0025A54200DB1BE427AB73
S1132E301A7800230121FF200093FFF78FFA013550
S1132E40F2E7009245490200002000F050FF0025FF
S1132E50A54201DBFFF707FC012127A8FFF7A0FA31
S1132E600135F5E70898FEF7E9FFFFF7FCFBFFF7EC
S1132E7005F8FFF7F8FB0021022000F0A9F8FFF79E
S1132E80F2FB00210820F8E73049002000F01CFD87
S1132E90FFF7A6FAFFF7E7FB0B9B3149002B11D094
S1132EA03049002000F010FDFFF722FA0B9B187048
S1132EB0FFF7D9FB2C49002000F006FD2B4801F058
S1132EC02EF82B49002000F0FFFCFFF7CCFB29492A
S1132ED0002000F0F9FC24226B469B181878FEF7BA
S1132EE035FE2549002000F0EFFC00F008FD2349E1
S1132EF00500002000F0E8FCFFF70FFA86B232006C
S1132F001F49002000F0F3FE206801F008F8E9B240
S1132F1068394D42694132000120099BC9B2FEF76C
S1132F20D7FF1849CEE7C046F36E00002D6F0000AE
S1132F30566F00006F6F0000AE6F0000DA6F000084
S1132F401270000043700000807000006C6E00007E
S1132F50A3700000C2700000E27000003471000031
S1132F6072710000B0710000E871000010270000C9
S1132F7007720000117200002A72000053720000F0
S1132F809B720000D37200001FB5040001A9002049
S1132F9002F00CFA694601A802F046F9009B684663
S1132FA01C1901A9009402F0C7F8012201A900200C
S1132FB002F028FA1FBD00000022034B1A60802291
S1132FC0024B1206DA67704700A01C5804E100E0C7
S1132FD070B50D000A2408281CD8FDF7A7FD051DAF
S1132FE02A3F54676C6F5C0001F040FB0524012804
S1132FF010D0FFF7E1FF2800FFF7C6FF002108000B
S113300001F0C0F901210400002000F0D7FF002CDA
S113301022D10024200070BD01F028FB06240128E1
S1133020F8D0FFF7C9FF2800FFF7AEFF0021012009
S1133030E6E701F01BFB08240128EBD001F03CF883
S1133040002803D00121002000F0B8FF0021022055
S113305001F098F90028DCD00924DBE701F006FB35
S113306007240028D6D0FFF7A7FF2800FFF78CFF1E
S11330700021032001F086F9040001F0F7FA012190
S11330800028C4D1C1E7FFF797FF2800FFF77CFFB2
S113309000210420EEE70021082001F073F9041E4A
S11330A0DAD10121080000F089FFB3E700210520EF
S11330B001F068F9D0E700210620F9E70021072094
S11330C0F6E7000037B50E25FF350400280001F0AF
S11330D06BFB0A2000F023FF280001F073FB0C2097
S11330E001F070FBFA23084A9B001470002101933D
S11330F0012308000093054B02F0D6FA04002800CF
S113310001F052FB20003EBDE1000020E000002061
S1133110C02310B58024694A9B001360684A640088
S11331201360FEF7C5FC674B20001C60664B1C60F7
S1133130664B1C6001F038FB642000F0F0FE2000B8
S113314001F040FB642000F0EAFE200001F02CFBBB
S1133150642000F0E4FEAE20FFF7B4FFA020FFF7E8
S1133160B1FF7220FFF7AEFFA120FFF7ABFF0020F5
S1133170FFF7A8FFA220FFF7A5FF0020FFF7A2FF9B
S1133180A420FFF79FFFA820FFF79CFF3F20FFF735
S113319099FFAD20FFF796FF8E20FFF793FFB02035
S11331A0FFF790FF0B20FFF78DFFB120FFF78AFF99
S11331B03120FFF787FFB320FFF784FFF020FFF7EC
S11331C081FF8A20FFF77EFF6420FFF77BFF8B20BF
S11331D0FFF778FF7820FFF775FF8A20FFF772FF6B
S11331E06420FFF76FFFBB20FFF76CFF3A20FFF767
S11331F069FFBE20FFF766FF3E20FFF763FF8720CD
S1133200FFF760FF0620FFF75DFF8120FFF75AFFFD
S11332109120FFF757FF8220FFF754FF5020FFF75C
S113322051FF8320FFF74EFF7D20FFF74BFFAF20B8
S1133230FFF748FF2620FFF745FF0120FFF742FF75
S11332402520FFF73FFF0020FFF73CFF0020FFF79A
S113325039FF5F20FFF736FF3F20FFF733FF87205A
S1133260FFF730FF0F20FFF72DFF8220FFF72AFF23
S1133270FF20FFF727FF2220FFF724FF0020FFF79E
S113328021FF0020FFF71EFF5F20FFF71BFF3F20F9
S1133290FFF718FF0020FFF715FFFF20FFF712FFCD
S11332A00020FFF70FFF0020FFF70CFFFF20FFF7C0
S11332B009FF0020FFF706FF002010BD20901454E2
S11332C02490145434A014543090145400A0145472
S11332D010B50C000D4B88B01B7806A90B800C4B65
S11332E005AA1B6810704B6004AB1C7002240948CB
S11332F000680093029001230020019401F0A2FCD5
S1133300002800D0200008B010BDC0466000002096
S113331074FEFF1F78FEFF1F0870704710B5010090
S11333200020FFF7D5FF10BD00B589B00300684643
S11333300A000F49097801750320052B16D80D4999
S1133340087806A908800C48006848606846037538
S11333500A4B00201B6801920293094B05AA0093B3
S1133360012301F07CFC002800D0022009B000BD3C
S1133370057300006000002074FEFF1F78FEFF1F2D
S1133380680000208021F0B505208DB04901FFF7C9
S11333909FFF002803D000203C4900F0A8FC022134
S11333A00800FFF7C1FF3A4C0221207AC3B206930A
S11333B0607AC3B201200793FFF7B6FF022104200D
S11333C0257A667AFFF7B0FF207A0221C3B2089308
S11333D0607AEDB2C3B203200993FFF7A5FF07009B
S11333E0207AF6B2C3B20A93607AC3B20B93002F69
S11333F005D00020274900F067FA0DB0F0BDAD01FB
S1133400B0082843FEF7F4F9234A244BFDF784FF60
S1133410FEF766FAFEF71CFA0A9B040098010B9B60
S11334200D009B081843FDF731FFFC218905FDF7CA
S113343013FEFEF70DFA069B049005919801079B75
S11334409B081843C0108000FEF7D2F9144A154BAC
S1133450FDF762FFFEF744FAFEF7FAF9089B0290C3
S113346003919801099B9B081843FDF70FFF0E4930
S1133470FDF7E6FCFEF7ECF92200009001912B0029
S113348038000A4900F033FCB7E7C0460773000070
S113349060000020147300007B14AE47E17A843F7F
S11334A0FCA9F1D24D62503F000020411B73000083
S11334B00B0000B50C4A89B0127806A90A800B4AA1
S11334C012684A6005AA107004A80370084B1B68B0
S11334D00090029301230020019301F0B3FB002824
S11334E000D0022009B000BD7000002074FEFF1F50
S11334F078FEFF1FC223FF3308704B60704770B51E
S11335000D0001000920FFF7D3FF290004002A2041
S1133510FFF7CEFF2043C0B270BD000000B589B0F4
S1133520030068460A00144909780175182B1BD852
S1133530D91F032001291CD91049087806A908803D
S11335400F4800684860684603750E4B00201B68EE
S1133550019202930C4B05AA0093012301F07FFB17
S1133560002806D0022004E019001D390320142984
S1133570E2D909B000BDC046057300007000002008
S113358074FEFF1F78FEFF1F7800002070B5022133
S113359004000120FFF7C2FF304D2A7A6B7AD2B2C1
S11335A0DBB2002820D000202D4900F08DF9022143
S11335B00320FFF7B3FF2A7A6B7AD2B2DBB200287A
S11335C025D00020264900F07FF902210520FFF7CD
S11335D0A5FF2A7A6B7AD2B2DBB200282AD0002067
S11335E01F4900F071F970BD002C03D01D4900F093
S11335F07EFBDCE79B0892011A4380239B015A401F
S1133600194B20001949D21800F071FBCFE7002CA8
S113361003D0144900F06BFBD7E79B0892011A43CF
S113362080239B015A40104B20001049D21800F00F
S11336305EFBCAE7002C03D00A4900F058FBD2E72E
S11336409B0892011A4380239B015A40064B200099
S11336500649D21800F04BFBC5E7C04670000020B5
S1133660147300005773000000E0FFFFDB5D0000EF
S11336700369C268934201D880681B18013B981AF9
S11336807047F7B58368C46801931F1B436805003E
S11336900E001819A418974207D83A00FCF7C4FF83
S11336A0019B6868E41A2200F119FCF7BDFFEC6085
S11336B0F7BD0023F7B506001700C5680191009314
S11336C03369B4689D421FD2013B5B1B641BBC423F
S11336D000D93C009C4200D91C0073682200581990
S11336E00199FCF7A1FF009B2D191B190093019B65
S11336F03F1B1B190193B368AB4200D10025F56051
S1133700002FDDD10098FEBD1B19DDE7022310B5A3
S11337100F4C104A236163610F4BA261E361C8231C
S1133720A2640E4A2362E26400230422A362636259
S1133730E362A3656365E36522650949E01DFDF75E
S1133740E9F820000749FDF7E5F82023A37110BD2F
S1133750E400002067730000600100205C01002089
S11337607073000074730000F0B5274B85B01B78AC
S11337700E0002900192002B01D1FFF7C7FF18231E
S1133780029A00255343204AD3185A6D9C6D039224
S1133790944219D91B6D019D1B1B9D4200D91D002C
S11337A01827029B30005F43174B2A00DF19FB6C7C
S11337B076191919FCF738FF019B64195B1B0193F7
S11337C03B6DA34200D10024039B019F1B1B9F421E
S11337D000D91F00002F0CD01823029A3000534345
S11337E0094AED19D318D96C3A000919FCF71CFFE2
S11337F0E419002D05D01823029A03485343C01836
S11338008465280005B0F0BDE400002010B50B006D
S1133810EFF31084012181F310881900FFF7A4FF4E
S113382084F3108810BD0000F8B516001822451C5A
S113383055434243164B0F005D199B18DC6A012C5B
S113384010D0022C1BD0002C1FD12800FFF710FF32
S1133850864205D8320039002800FFF712FF3400F1
S11338602000F8BD2800FFF703FF3400864200D98A
S11338700400220039002800FFF703FFF0E73200BC
S11338802800FFF716FF0400EAE70024E8E7C04633
S1133890E4000020F8B50B4B04001B780E00170061
S11338A0002B01D1FFF732FFEFF31085012181F3E3
S11338B010883A0031002000FFF7B6FF85F3108826
S11338C0F8BDC046E400002070B5050008000C00F7
S11338D0FDF728F8210002002800FFF7DBFF70BD88
S11338E013B56B46DC1D012221000020FFF78EFF7B
S11338F0012801D1207816BD01204042FBE710B514
S1133900FFF7EEFF0028FBDB10BD0000F7B5164CF7
S11339100193237805000F001600002B01D1FFF757
S1133920F5FE2369AB421CD9EFF31082012181F328
S11339301088002D0CD01823691C59436B43675021
S113394061184E600199E318196200219962596265
S113395018204543089B6419E36282F31088002011
S1133960FEBD01204042FBE7E4000020826810B560
S113397004004068531C834205D820688154A36026
S1133980E3680133E360A26863689A4209D121685D
S11339902069FFF77FFFA368984203D001235B42AD
S11339A0E36010BD0023A360FBE70000F0B5050051
S11339B017000800012685B00A9C02910093B842C2
S11339C019D2009A0196964200D2019201230B9AD1
S11339D01A4003920B9A1A4202D1002C10D10024EF
S11339E0EB680126002B4BDB009B012B1FD9013B0D
S11339F000937E43F8E73900FDF7ACF80136DEE7C3
S1133A000B9B20269B0704D5009B1036002B00D06F
S1133A10103E019BA342E3D231002800FFF7A6FF2A
S1133A20EB68013C002BDBDB002CF2D1D7E7310043
S1133A300298FDF78FF88742DBD902983100FDF731
S1133A400FF9114B0291195C2800FFF78FFFEB6807
S1133A50002B05DB39003000FDF77CF8BE4211D2A3
S1133A60039B002B0CD0002C0AD0019BA34207D24D
S1133A7020212800FFF77AFFEB68013C002BF2DAE3
S1133A8005B0F0BD0600D8E77B730000F0B59FB029
S1133A900EAB099340230A9300230E0015000790F0
S1133AA00B930D900C9331780136002907D10C9BB0
S1133AB00393002B00DD09E10C981FB0F0BD25290C
S1133AC000D0B3E000270822042006E0302B0DD1FB
S1133AD0022300E001231F430E003378711C2D2BB9
S1133AE0F8D0F3D8232B10D02B2B0CD000240A2190
S1133AF03378721C18003038092808D84C43303CFD
S1133B0016001C19F4E70743E6E71743E4E700212E
S1133B1003912E2B0ED116000A203278711C13004B
S1133B20303B092B06D8039B0E004343303BD3188C
S1133B300393F2E7042331780A0001369A43682A92
S1133B4001D13178F8E7782909D86F290BD863298E
S1133B5067D017D8252969D0582900D195E00C9B46
S1133B60002BA0DAA3E7703908000829F7D8FCF77E
S1133B70E7FFA500F6FFF6FF9400F6FF8300F6FFCB
S1133B80F6FF8C006429EAD12B681A1D1B682A6091
S1133B90DA1798180493012350400593092849DC47
S1133BA0039B059A0693934200D20692002C05D0FB
S1133BB0049B002B01DB7B0700D5013C02231F4241
S1133BC002D0039B002B05D001231F4202D1002CFD
S1133BD036D100240C9B0593002BC0DB049B002BE7
S1133BE03ADA2D215B42049309A8FFF7BFFE0C9B30
S1133BF0002BB4DB03233B40022B05D1039B002B9A
S1133C0002D1002C2CD100240C9B0593002BA6DBA5
S1133C100A22039B04990197009409A8FFF7C6FEA2
S1133C209DE72B6819681A1D2A60C9B209A8FFF715
S1133C309DFE94E70A21FDF717F8059B0133ACE7D5
S1133C40069BA342C6D2202109A8FFF78FFE0C9B36
S1133C50013C002BBBDABDE77B07C8D52B21C3E7AA
S1133C60069BA342D0D2302109A8FFF77FFE0C9B0C
S1133C70013C002BC5DAC7E70A22296801970B1D0E
S1133C802B60039B00940968C7E7296801970B1D03
S1133C902B60039B00941022F5E72B681A1D2A6001
S1133CA01C6821780134002900D158E709A8FFF7DE
S1133CB05DFE0C9B0393002BF3DA50E729680B1D80
S1133CC02B600023019308330093E4E70B9A002A46
S1133CD003D007980EA9FFF7DDFD0C9B03930B9B04
S1133CE00493049A039B944663440C93E4E60EB451
S1133CF003B503AB02CB01AA0193FFF7C7FE02B0E1
S1133D0008BC03B0184710B5002000F069FD10BDD1
S1133D1010B5002001F0D4FB10BD0000082310B53D
S1133D20164A9178194202D091780B4393708821F6
S1133D3000222220124B49015A501249124C087099
S1133D4080201249400258501968114801401960F6
S1133D50195910480840C021890401431951802190
S1133D600D4B1A7219767F391A7059700B490A7003
S1133D700C3299791142FCD110BDC04600D00740E5
S1133D800070044000E007400410000044100000EC
S1133D90FFFFF3FFFFFFFFF0004006400050064026
S1133DA01249134810B5814205D00022114B9B08DB
S1133DB09B009A420FD1104B104A9960002310497E
S1133DC01048521A9A420AD100210F4B0F4AD21AB4
S1133DD0013A08D210BD84588C500432E9E7CC5C17
S1133DE0C4540133EEE719700133F1E70000000019
S1133DF0000000000000000000ED00E08C760000F0
S1133E00E474000000FEFF1FA8FFFF1FC40200208F
S1133E10030041700020187058609860704710B516
S1133E20437804000120FF2B08D000F051FA637896
S1133E300133DBB2637000F03FFA002010BD0020B4
S1133E40704770B504000D0000F042FAE1682943A0
S1133E50E16000F031FA002070BD000000220A4B3E
S1133E609A641A0040329A631A0030329A621A0035
S1133E7020329A611A0010329A60044A1360044B8B
S1133E809B60DB607047C0462C02002028020020A3
S1133E907C0200200022024B1A60186880B270472E
S1133EA00C007C5070B5437804000D00002B0BD03F
S1133EB0002500F00DFA6378013BDBB263702570D6
S1133EC000F0FAF9280070BD02200029FBD0237805
S1133ED0002B17D0FFF7DEFF6368A268834204D883
S1133EE0C01A824206D30320EDE7C01A80235B0286
S1133EF0C018F6E700F0ECF90023237000F0DCF9B9
S1133F000220E0E74B1CEED000F0E2F9012323701D
S1133F1000F0D2F9FFF7BEFFA5606060E3E770B57B
S1133F200500FFF7B7FF802604007602FFF7B2FF13
S1133F300300844203D8031B9D42F7D270BD301B9B
S1133F40C318F9E710B5012801D100F0C1F910BD7B
S1133F5010B5012801D100F0AFF910BD10B5FFF77D
S1133F607DFF01230020084A08491360084A094CD0
S1133F701060086004212160074C216007490B6030
S1133F8007490860136010BD388004500000845055
S1133F9000000450000004510400045104000C50BB
S1133FA00000045310B5044C206021710020A2606D
S1133FB02373637310BDC0468C0200200422F0B545
S1133FC087B005AC3B4E019002912070617033794B
S1133FD00092834226D90022337B15007373012398
S1133FE00092A3700393334F3B7BAB421DD8009BDD
S1133FF0002B02D0029B012B48D10120FFF7A2FF26
S11340000C20019B002558433368181800F0C2F8AF
S1134010019B012073710226FFF79AFFA6703B7B78
S1134020AB421AD8009807B0F0BDBA68AB009B58F1
S1134030002B0FD01A7903990A420BD020001A687A
S113404099689047002805D0029B7D73002B1BD0F4
S1134050052300930135EDB2C5E7BA68AB009B5860
S1134060002B0ED01A7932420BD020001A689968BE
S11340709047002805D0029B7D73002B17D00623A0
S113408000930135EDB2CAE7052300930023A37022
S1134090013DEDB2FF2DC5D0064BAA009B68D35855
S11340A0002BF5D020001A6899689047F0E70623A2
S11340B00093B7E78C020020014B58797047C04643
S11340C08C02002013B504000020217801900229FD
S11340D020D0032922D0012925D1227901AB14480B
S11340E000F0BEFF002814D1A3795A1E9341114A4F
S11340F0DB01137063785A1E93410F4A5B001370FF
S1134100A2780E4B1A70E2780D4B1A7062790D4B3F
S11341101A7016BD0100227901ABE0E701A9044839
S113412000F0E0FFDEE701A9014800F07DFFD9E7D8
S11341300040064018408653004086500040065018
S11341400140065018401650074A43099B009B182B
S1134150F822C00512051040184380235B0518435C
S1134160002303607047C04628800440F821084AB1
S113417043099B009B180905C2050A40134380228A
S1134180520513431F2210401E3A82401A607047A2
S113419028800440072373B5009300230400104DC6
S11341A01A000121280001F07DF92000FFF78AFFA1
S11341B0637A280000930023217A1A0001F072F92F
S11341C0E379084A9B041360074BA17A1D68280011
S11341D000F0A4FF2800E17A00F0A7FF002076BDDC
S11341E00070044000700C59DC73000010B50548E1
S11341F000F0DAFE044B1968C9B20131FCF7AAFCDD
S113420010BDC0460040064044801C5E10B5FFF758
S1134210EDFF10BD10B5054800F0C6FE044B19684B
S1134220C9B20131FCF796FC10BDC04600400640FF
S11342304480145810B5FFF7EDFF10BD0B4B1B68FD
S1134240DBB2022B0CD0032B0DD00020834206D10D
S1134250074A106880221202904200D0180070476A
S1134260044B1868FBE7FA208000F8E700700C594B
S1134270B4020020B802002010B5FFF7DFFF10BD24
S113428010B5024B185CFFF771FF10BD8B73000073
S113429010B57620FFF76AFF10BD10B57620FFF742
S11342A053FF10BD10B56620FFF760FF10BD10B5B9
S11342B06620FFF749FF10BD044A1368002B04D0A1
S11342C0013B1360002B00D162B670479C020020B2
S11342D072B6024A13680133136070479C020020CF
S11342E010B5064C064801F06FFB042801D10020EC
S11342F010BD013C002CF5D10320F9E7EA030000CE
S113430000E0074010B50B4B0B490A78002A07D090
S1134310084C0A4801F058FB012806D1002003E0AC
S1134320013B002BF1D1032010BD013C002CF0D146
S1134330F9E7C046EA03000002D0075100E0074055
S1134340F7B507000E00150001200193002F15D0CA
S1134350002913D0FFF7F6FD094C1022002120009C
S1134360FCF7B6F927602671002D03D0019BA560E8
S1134370237363730120FFF7EBFD0020FEBDC046ED
S1134380A0020020F0B5B14C8DB002900391237BC4
S113439001206373FFF7D6FD2379029A934206D86E
S11343A00120FFF7D5FD022738000DB0F0BD029AB9
S11343B023689200D35809AC1D780193039B2A000B
S11343C02372029B2370019B636002239A4304922D
S11343D0012A01D0052D0AD101219D4801F048FA96
S11343E0002807D10120FFF7B3FD0127DCE70321F3
S11343F0072DF2D80123002763723C000593934EE6
S1134400337BA3422AD80120FFF7A2FD914800F094
S1134410EFFD049B012B4AD10138022835D9039BB7
S1134420012B00D00DE106270120FFF78BFD0023AF
S1134430012609AD6B72013CE4B2FF2C00D1AFE060
S1134440824BA2009B68D358002BF4D01A793242D5
S1134450F1D028001A6899689047ECE7B268A30085
S11344609B58002B0ED01A7905990A420AD01A6873
S1134470996809A89047002804D0039B0427747303
S1134480012BC0D10134E4B2B9E7FFF7D3FE724B7C
S11344909842C4D8FFF7AAFE704EB042BFD8FFF7C7
S11344A0B9FEB042BBD8FFF7B1FEB042B7D8039B08
S11344B0012B00D0C1E00A2D00D9BCE02800FCF794
S11344C035FB060A0D1E879A7B822F737800002223
S11344D007AB1A702DE0032207ABFAE75C4801F042
S11344E073FA012808D00021594801F0D1F9FFF7E7
S11344F009FF071E00D057E7012207ABE9E754483C
S113450001F062FA042808D00221514801F0C0F9F0
S1134510FFF7E6FE071E00D046E7042207ABD8E704
S1134520072207AB1A80019AD2789A70019A1279FD
S1134530DA702B00083B022B06D8019B06AA5B7994
S11345409372019B9B79D372019B5B78002B0AD0F9
S1134550012D08D9019B02229978414B00294DD0A5
S113456019690A431A613A4807A901F0B5F9002804
S113457000D00327002D45D1FFF7C4FE071E00D04D
S113458012E700270120FFF7DDFC029B2F4D0024DA
S1134590AB73022309AE737201932B7BA34236D80B
S11345A00120FFF7D5FCFFE6082207ABFF321A8093
S11345B0BFE72C4A07ABFAE7022207AB1A700222C4
S11345C0FF329A80B5E7022207AB1A70264AF8E751
S11345D0022207AB1A70013A1D489A8001F0F4F9DF
S11345E00128A6D000211A4801F052F9FFF78AFEEB
S11345F0071E9ED0D8E6052207AB6AE719699143E6
S11346001961B0E7012DBDD1FFF76AFEB6E7AA68CC
S1134610A3009B58002B0BD01A7901990A4207D0AA
S113462030001A6899689047002801D005276C73F8
S11346300134E4B2B1E70327B6E6002F00D13AE72C
S1134640F2E6002F00D0EFE6EDE6C046A00200201F
S113465000E007400040064040420F0080841E00F6
S113466000ED00E0070300000102000010B5064859
S113467001F0AAF903000020012B03D00B30042B16
S113468000D10A3810BDC04600E00740F7B5FF244A
S113469003681D4A1E0A26401C40B3009F581B4A4B
S11346A005009B5830000193FFF7EAFD002221002A
S11346B0380001F091F9019BA400E41884232A79BD
S11346C05B05234352001A6080236A795B05234308
S11346D01A609023AA795B05234312011A600C4BDC
S11346E01C43EB791B042360EB79002B0AD0094BA4
S11346F09B57002B06D01F2213401E3A9A401300EA
S1134700054A1360F7BDC046E0730000E87300007B
S113471000001818F073000000E100E0F8B5FF2471
S113472005000368114A180A20401C4083009F5862
S11347300F4A9E58FFF7A4FD38002100012201F022
S11347404BF96A682100380001F055F988232A7A68
S1134750A400A4195B05234392001A6098235B0507
S11347601C436B7A9B012360F8BDC046E0730000D4
S1134770E873000070B50C00002807D1002C0FD19D
S113478070BD05000835FFF781FF28000368013379
S1134790F7D1F3E7250020000C35FFF7BFFF2C000D
S11347A023680133F6D1EBE7FF22030A04491340DF
S11347B09B0059580123104083404B607047C0460A
S11347C0E0730000FF22030A044913409B00595878
S11347D00123104083408B607047C046E0730000A3
S11347E0084B8200D258942310B502325B05134360
S11347F01B78002B02D000F03FFA10BD00F092FAB3
S1134800FBE7C04690730000020080230C325B0576
S113481013431A78002AFCD00171704770B50D005B
S1134820084B8000C458200029001830FFF73AFBD9
S11348300328F8D0002801D004232374207CC0B2BC
S113484070BDC046B002002010B5104B8000C458A3
S1134850E37C002B05D0237C052B02D0237C042B86
S11348600BD10B4B18589823821C5B051343002271
S11348701A7001F02FF901236374A37C002B03D079
S113488020001830FFF7CBFA10BDC046B00200205C
S113489090730000F0B51700002289B005930EABA9
S11348A01B7805000393830032481E5832481C5875
S11348B007AB1A80A37C880A04930223FF33638224
S11348C08B0A0193CBB21E2801D11A000B0A5B009C
S11348D0D8B2019B00211E2B05D08F4203D10123A6
S11348E003995B1A59B20143CBB20293029901981E
S11348F007AB197001211E2801D15A704918A36011
S11349003000E1600299FFF77FFF28000F99FFF75D
S113491085FF237C002B0CD1002F0AD0059BA760B8
S1134920E36030003978FFF76FFF28000F99FFF735
S113493075FF237C039A1A4314D1019B1E2B01D0CB
S1134940002F0FD0002301273000A360E76001F09F
S1134950AFF8029930003943FFF756FF28000F994A
S1134960FFF75CFF0023207CE374049BC0B2A374B4
S113497009B0F0BD90730000B0020020F7B58300C9
S11349800193184B8200D75805000C000126002F14
S113499026D1154B3900D358200024220193FBF76C
S11349A097FE200039001830FFF732FA2800FFF78D
S11349B079FC019801F027F80A4BAA00D4501F2271
S11349C00A4B5B5D134032009A40094B1A609C22EB
S11349D0019B520502331343802266743E001A7011
S11349E03000FEBDB00200209073000094730000FC
S11349F000E100E0F7B50E4E8500AB5900270193A6
S1134A000C4B0400EA589C2302325B0513431F70CD
S1134A10FFF74DFC084B01981A5D1F231A401E3BFB
S1134A209340064A1830D367FFF709FAAF51F7BD30
S1134A30B0020020907300009473000004E100E0D1
S1134A400A4B800070B5C5584B686A690C009342E4
S1134A500BD0074BC658FFF7DDFB0023010062684B
S1134A60300000F0DFFF63686B6170BDB0020020AE
S1134A7090730000F0B587B004920593334A0FABEE
S1134A801E7883009C580391627C0700002A03D19E
S1134A900320207407B0F0BD002E01D11E220E9217
S1134AA02B4A3800D55800230399E360A36023748C
S1134AB023606374A674FFF7C3FF90231021AA1C1C
S1134AC05B05134319708423E91C5B050B43022126
S1134AD0197098235B05134302934023029A28001C
S1134AE0137000F0E5FF039B380019880E9B049AAD
S1134AF0019301230093059BFFF7CCFE0D9B002B34
S1134B0017D0237C002B11D10C9B2800A3600D9B94
S1134B10E3600C9B1978FFF777FE002E03D0380072
S1134B200E99FFF77BFE207CC0B2B3E7237C042BF5
S1134B30F9D100230126029A1370EB785B09334202
S1134B4002D0280000F0C6FF6674ECE7B002002033
S1134B5090730000F0B589B0079311AB1B780692EF
S1134B60364A029383009C580591627C0600002A11
S1134B7003D10320207409B0F0BD029A002A01D1A8
S1134B801E32109200272E4A0599D5580E9B3000EC
S1134B9023600F9BA7606360029BE760A374277484
S1134BA06774FFF74DFF9023AA1C5B051A4310237B
S1134BB01370842304925B05EA1C134302221A70C7
S1134BC09823AA185B051A43402328001370039204
S1134BD000F06EFF059B069A1988109B3000019324
S1134BE00097079BFFF756FE237CDAB2BB4215D130
S1134BF0049BA91C1A708C235B050B430F99012994
S1134C0000D108221A702B79029B002B03D03000AC
S1134C101099FFF703FE207CC0B2ACE7237C042B81
S1134C20F9D10126039B1F70EB785B09334202D054
S1134C30280000F04FFF6674EDE7C046B002002084
S1134C40907300001FB501240394089C0294079CF0
S1134C500194069C0094FFF70DFF04B010BD1FB52E
S1134C6001240394089C0294079C0194069C0094DC
S1134C70FFF770FF04B010BD244B70B58400E558F5
S1134C808423EA1C5B05134302221A709023A9189B
S1134C905B050B431B78EA78DBB292061DD59422A0
S1134CA052050A431278002A17D0194AA458012B36
S1134CB014D1EA781A4204D004332374FFF7C4FDF4
S1134CC00BE0E368013BE360002BF7D0A368280006
S1134CD05A1CA2605978FFF797FD70BD6268013ACB
S1134CE06260002A06D08C235B05012A0AD00022C8
S1134CF00B4309E0FFF7A8FD23685A1C22602A79B8
S1134D001A70EAE708220B431A70F5E79073000063
S1134D10B0020020C31C8420400518430223037002
S1134D20704700000122F0B5904B8100CD5889B046
S1134D30EB1C0193EB7890261B091A400592012283
S1134D40EB7876059B091A4002923200AB1D1A4398
S1134D50944612780090D2B20792942252051A43D4
S1134D601278AF1CD0B20390982040050343187802
S1134D70C0B206907E480C5831003943019109783D
S1134D80C9B20491002A35D0079A002A0ED0102304
S1134D90624628001370FFF7BDFF236B002B52D02F
S1134DA06A4601211078626B98474CE0069A002A03
S1134DB020D0402228001A70FFF7ACFF23002C33C8
S1134DC01B78002B03D19822520517433B70236BA9
S1134DD0002B04D06A4680211078626B9847E37DEB
S1134DE0002B04D0200080211830FFF72AF80A2372
S1134DF0237028E02800FFF78DFF059B002B24D0AB
S1134E00EB1C1E4310233370029B002B10D0EB7855
S1134E105B07DA0F002B48DB019B1A70236B002B16
S1134E2004D06A4604211078626B98472B790AE013
S1134E30082323702C342378002B04D198235B059A
S1134E401F43029B3B7009B0F0BD029B002BDED1D7
S1134E50049B012B54D1EB78049A134230D0019B6C
S1134E60029A1A702B7923002C331B78002B07D15C
S1134E70039B002B04D198235B051F43039B3B70CA
S1134E80236B002B04D06A4608211078626B984784
S1134E90A37D002B04D0200008211830FEF7D1FF99
S1134EA000236360E3602375CDE71023019A137038
S1134EB0236B002B04D06A4602211078626B98475A
S1134EC06368002B50D028008022E3680C30520520
S1134ED01978024310780028FCD029710133E3606B
S1134EE06368013B63606368002BACD1E3602375A6
S1134EF0236B002BA7D06A4610211078626B53E70E
S1134F002B79A268DBB2002A2CD0226913702369A2
S1134F1001332361A368013BA360A368002B00D085
S1134F2091E7039B002B11D123002C331B78002B1A
S1134F3004D198235B051F43039B3B70E37D002B47
S1134F4004D0200020211830FEF77BFF0023637576
S1134F502361236B002B00D175E76A46202110786A
S1134F60626B21E7072343E7062341E790730000C0
S1134F70B002002084225205024312780300D0B20A
S1134F80002A0CD0802001334005034318780138EF
S1134F9043425841024B40421840024BC0187047EC
S1134FA0808D5B0080841E0010B50D4B821D134361
S1134FB01A780400D3B2002A0FD0012B07D1FFF7CF
S1134FC0D9FF084B08341C432378D84010BD002077
S1134FD0022BFBD1044B1868F8E70448F6E7C046F7
S1134FE00000081100009010B4020020006CDC02E4
S1134FF00C4A811D0A4312780300D0B2012A04D05E
S113500002280BD000280BD17047802201335205AF
S113501013431B78002BF7D10220F5E70320F3E7B5
S11350200520F1E70000081102009C2318325B05FB
S1135030134380221A700022064B03431A70064B56
S1135040063018430378DAB2002BFBD1034B10006F
S11350500B6070470000081300000811006CDC02AC
S1135060F8B504000D0016001F00FFF7C1FF01286A
S113507023D1002D25D08023621C5B0513431D70B2
S1135080842302225B0523431A702200104B08324A
S113509013437200D2B21A7040220E4B0E482343BF
S11350A006341A7004432378012BFCD1002D0DD152
S11350B00A4B334100203B60F8BD0228DBD1012DAF
S11350C0D9D139002000FFF7AFFFD4E7044BF0E754
S11350D000009010000008130000081180841E00D6
S11350E000127A0010B50A4C030022680120002A3D
S11350F00CD0084A7F301A43107007480633034324
S11351001A78022AFCD1002023680B6010BDC04627
S1135110B402002000000813000008119C23C901F8
S11351205B050343C9B219707047942349015B05B9
S11351300343C9B21970704770B506680C0030009B
S11351402049FBF707FD1F4905003000FBF788FDE8
S11351500E00E12130000901FBF7FCFCE121E080B5
S113516009013000FBF77CFD0E003C213000FBF709
S1135170F1FC3C2120813000FBF772FD6E22A1720C
S11351800321114BFF322380238895420AD80F490B
S11351909B0700D10E490123CA5CAA420CD3638049
S11351A0A58070BD01339BB223800B40AD1A5A42D7
S11351B05A416E32FF32E7E70133AD1A0D2BEBD1C2
S11351C0EEE7C04680510100B2070000BC73000046
S11351D0957300000188114A03008A18002030B535
S11351E0812A17D85A88541E0B2C13D89C88651E04
S11351F01E2D0FD8DD88172D0CD81D893B2D09D8FD
S11352009B7A3B2B06D88B0705D0054B9B5CA342AE
S11352104041C0B230BD034BF8E7C0464EF8FFFF33
S1135220BC7300009573000070B5134D8388028829
S11352305B196E25FF35554344885B1995085B1946
S11352400E4D6600755B5B19920710D00B600A68FF
S11352500B4BC4885343827A00899B18E1221201C4
S113526062439B183C2242439B180B6070BD022C86
S1135270ECD8013BEAE7C0464A05F5FFA2730000FB
S1135280805101008023084A1B0212689A4209D106
S1135290A02310305B0518430368002B02D10133AF
S11352A0FF3303607047C046B4020020010080222F
S11352B010B5002301245205103111430C600B601A
S11352C090214360490504601C3001430B60882130
S11352D0490501430B6084214905014310430B60D8
S11352E0036010BD0200902314325B0513430022B7
S11352F01A604260103201601A60704703680B60E4
S113530070470000104B820070B5D558802204000D
S11353100E4B92051A602800FFF7C8FF2800FFF71C
S1135320B1FF0B4B1F261A5D0123180009493240B7
S1135330095DC025314090408B40074A6D005051B3
S113534053511060136070BDCC7300003C80845EC8
S1135350D0730000D173000000E100E0F7B500272E
S1135360114B8000C55808000E000197FFF732FF6B
S11353700400B84216D001A93000FFF755FF3800E9
S1135380FEF77AFF010080200002814206D0FBF77D
S1135390E1FB01000198FBF7DDFB01902800019976
S11353A0FFF7A0FF2000FEBDCC730000F7B5002579
S11353B0124B8000C4580E00200001A90195FFF78C
S11353C09DFF2800FEF758FF05008020000285425B
S11353D00ED00B4B290004341C43FBF7BBFB27689E
S11353E0019C29004443B8B2FBF7B4FB2418019490
S11353F0310001A8FFF7A0FEF7BDC046CC73000042
S113540000007810F0B50027184B800085B0C5580F
S113541008000E0001920397FFF7DCFE0400B84277
S113542003D10024200005B0F0BD300003A9FFF72C
S1135430FBFE38002E68FEF71FFF010080200002EB
S1135440814206D0FBF786FB01000398FBF782FB41
S11354500390039BB342E4D3AB6088231C355B0504
S11354601D43019B9A002A60DCE7C046CC73000010
S1135470044B8000C25888231C325B051343890007
S113548019607047CC730000054B8000C258882314
S113549014325B0513431868431E9841C0B2704729
S11354A0CC7300006B46E0221B78D2021B0413402D
S11354B0024A09070B438018036070474410000038
S11354C0084B8200D258902310B503325B05134376
S11354D01B78002B02D000F013F910BD00F078F90E
S11354E0FBE7C046D47300009C210C4B0C4A80009F
S11354F0C3588258002003324905114310B518716E
S11355000870942149050A4310701A7F824203D01F
S113551020331800FEF783FC10BDC046BC020020F7
S1135520D4730000F7B50C0005001B4B302200219A
S113553087002000FE58FBF7CBF82800FEF7A8FEF2
S1135540FEF768FE2060300000F0E5FA200000213C
S11355502030FEF75DFCF31C01939023F21C5B05E5
S11355601343102230001A70032100F012FB3000A4
S1135570002100F033FB094BFC50094B5A5D1F23FB
S11355801A401E3B9340074A13609823019A5B0517
S1135590134340221A70F7BDD4730000BC020020EC
S11355A0D873000000E100E0F8B50D4E85000D4B06
S11355B0AF590400E85800F0AEFA38002030FEF786
S11355C03EFC094B20001A5D1F231A401E3B9340EA
S11355D0064AD367FEF761FE0023AB51F8BDC0460F
S11355E0BC020020D4730000D873000004E100E082
S11355F00A4B800070B5C658094B0C00C3581500FF
S113560030001A68096800F08DFA2860A379300028
S11356106279217900F0CFFA70BDC046D4730000DE
S1135620BC020020F7B51E4A83009C58050022796D
S11356300420002A16D11B4A9E58002903D02800B2
S113564001AAFFF7D5FF982300214020F21C5B0537
S113565013431970187027698F4204D12800FFF78B
S113566043FF0020FEBD0123237194235B05A16148
S113567033431B780720002BF4D0A368191E02D0F3
S113568019780133A360B1712369013B2361A369D4
S11356900133A3619C235B051A4380231370E0E765
S11356A0BC020020D4730000F8B5134F134C8500DE
S11356B02C59ED590127069E2777A2602661E360E5
S11356C06661FFF7AFFF002814D12000079920304E
S11356D0FEF7E8FB0328F8D000280BD09C23002217
S11356E003355B052B4322711A70942303205B0559
S11356F01D432A70F8BDC046D4730000BC020020CC
S113570010B51E4B8200D3581979002934D01C4996
S113571051585A69002A11D09C2252050A43127822
S1135720002A0BD08A79DC68D2B2002C03D0227014
S1135730DA680132DA605A69013A5A611A69002A50
S113574012D0942252050A431278002A0CD09A6887
S1135750141E02D0147801329A608C711A69013ACD
S11357601A619A6901329A611A69002A04D15B6943
S1135770002B01D1FFF7B8FE10BDC046BC020020CB
S1135780D4730000104A8000815800220F4B10B5DA
S1135790C3580331581CC2779C2040050843DA6281
S11357A01A701A835A629A621A630270942040052E
S11357B001430A701A0038321278002A03D00121FA
S11357C0181DFEF73EFB10BDD4730000BC02002080
S11357D070B5254B8200D358591CC97F002942D08B
S11357E022495258D96A002917DB942149051143EB
S11357F00978002911D0D969CCB2596A002905D099
S1135800DD6A002D02DD0C78013159629471D96A88
S11358100139D962596B01315963D96A002905DA12
S11358209421D41C4905214300240C70196B0029D0
S113583011DD9C2149051143097800290BD0927987
S1135840996AD2B2002903D00A709A6A01329A6224
S11358501A6B013A1A63DA6A002A04DC1B6B002B08
S113586001DCFFF78FFF70BDBC020020D473000081
S1135870012903D0032909D00020704794235B0534
S113588018430078431E9841C0B2F6E78423F6E734
S1135890431C034849011843C9B201707047C0460C
S11358A000008812831C9420490140051843C9B2A2
S11358B001707047831C034889011843C9B2017001
S11358C07047C04600000813831C8C20C9004005A3
S11358D01843C9B201707047F7B50400364EE31C93
S11358E01E43337808780D00DBB2072860D8FBF735
S11358F01DF904192B0E192B2B45304B01341C4375
S1135900002323703378012BFCD10020FEBD012B32
S1135910FCD12A4B01341C43402323703378042BDD
S1135920FCD1F2E70021012801D0042002313378B0
S113593098423FD12000FFF7ABFF0421204A1369AE
S11359408B43136130BFE0E70227B84207D1002739
S11359500B79BB4203D020004979FFF7ABFF194B09
S113596001341C4327703378154ADBB20193019B41
S113597001330193042311690B43E2E70421114B22
S1135980621C1A4311706A78A11C0B431A70002A16
S113599006D1AB78002B03D02000E978FFF782FF13
S11359A0AB79002BDFD02000E979FFF78DFFDAE730
S11359B00120ABE70320A9E70000301000008812A3
S11359C000ED00E000001010C31C024818430078EA
S11359D0C0B2704700003010012314308B40012AFC
S11359E004D1802212051043036070478022D20440
S11359F0DB431043F8E701238B40002A01D04360C6
S1135A0070478360FCE70023C222037043708370F5
S1135A10C37043718371C371037242728372C37220
S1135A2070470000F0B5002487B00293FA230126E2
S1135A30270025009B005343039004910093019495
S1135A407642AB000593194BAA009B185988049819
S1135A50A140FBF77FF8009B009AC31A824200D949
S1135A60131AB3421FD2114AA900525C27000192B3
S1135A70002B02D00135322D13D10134032C01D077
S1135A80002B0DD1029A002A00D013603F22019905
S1135A90BB0111400B43039ADBB2537007B0F0BD56
S1135AA000251E00CDE73300E4E7C046F273000092
S1135AB0942302305B0503431B78002B05D0882315
S1135AC05B05184304230370704780231B051843A8
S1135AD03023F8E7942210B55205841C2243117830
S1135AE00300CAB2022001290DD18021C904214337
S1135AF08024CD300870E400033319784909080084
S1135B001040114200D110BD013C002C01D0C04610
S1135B10F3E70920F7E70423C3700023837043707D
S1135B2003717047F0B5130B89B001260393082362
S1135B300124764202939B190790049105920193E4
S1135B4002270025631E0693210005987943FBF77D
S1135B5001F8049B834207D31B1AB34204D21E00EC
S1135B60069B03900295019301357F00092D01D016
S1135B70002EE9D1082C02D00134002EE0D1019B83
S1135B80029A1B0103981343079ADBB2537009B0BE
S1135B90F0BD842310B50224C21C5B0513434A00E4
S1135BA022401A70902300195B0518431023C90082
S1135BB01940017010BD10B58C2403306405C90070
S1135BC00443C9B221708821920049050143D2B22D
S1135BD00A70802252051043037010BD80230122F5
S1135BE002305B0503430A401A708C235B0518439B
S1135BF008238900194001707047000004FEFF1F4C
S1135C00FE0F00008A0F0000F80E0000B20E000024
S1135C10F80E0000C60F0000F80E0000B20E0000DF
S1135C208A0F00008A0F0000C60F0000B20E0000A9
S1135C30B80E0000B80E0000B80E0000D40F00002B
S1135C408A0F00008A0F0000F80E0000AE0E00005C
S1135C50F80E0000C60F0000F80E0000AE0E0000A3
S1135C608A0F00008A0F0000C60F0000AE0E00006D
S1135C70B80E0000B80E0000B80E0000D00F0000EF
S1135C803A110000D8100000D8100000D61000000F
S1135C90DC100000DC10000004120000D61000002C
S1135CA0DC10000004120000DC100000D61000001C
S1135CB0BA110000BA110000BA1100003E1200002F
S1135CC0AC140000DA130000DA130000D61300004D
S1135CD0E0130000E0130000CC160000D61300000F
S1135CE0E0130000CC160000E0130000D6130000FF
S1135CF06A1600006A1600006A16000036170000D3
S1135D001B5B306D1B5B343B34336D1B5B313B33AE
S1135D10376D0D53616E69747920636865636B2018
S1135D206661696C6564211B5B306D0A001B5B3026
S1135D306D1B5B343B34316D1B5B313B33376D0D75
S1135D40496E76616C696420737570706C79207625
S1135D506F6C74616765205B25645D206D56211B43
S1135D605B306D0A004D6561737572656D656E74A7
S1135D70206E756D6265722C205254432D3E54532F
S1135D80522C205254432D3E5450522C00204D4D41
S1135D90413834353120782C204D4D41383435315B
S1135DA020792C204D4D4138343531207A2C002077
S1135DB05254432D3E5453522C205254432D3E549E
S1135DC050522C202320436F6E66696720457272FF
S1135DD06F72730025752C2025642C2025642C00FB
S1135DE02025642C2025642C2025640A000D09300C
S1135DF07825303278202D2D3E205B3078253032C6
S1135E007820307825303278203078253032785D2B
S1135E100A000D09307825303278202D2D3E2030AF
S1135E2078253032780A000D093078253032782010
S1135E302D2D3E202D2D2D2D0A000D0A0925642F10
S1135E402564207375636365737320726174652EB2
S1135E500A000D0925642F25642073756363657337
S1135E60736573206D617463686564207265662E62
S1135E702076616C7565206F662030782530327825
S1135E802E0A000D0925642062616420636F6D6D24
S1135E90616E64732E0A0A000D0A4D4D4138343583
S1135EA031513A0A0D000D0A494E413231393A0A4C
S1135EB00D000D0A0A424D453638302052656164A2
S1135EC02041626F727465642E204465766963654F
S1135ED02044697361626C6564203A28000D0A09E4
S1135EE0424D58303535616363656C205265616499
S1135EF02041626F727465642E204465766963651F
S1135F002044697361626C6564203A2820000D0A9C
S1135F1009424D583035356779726F205265616496
S1135F202041626F727465642E20446576696365EE
S1135F302044697361626C6564203A2820000D0A6C
S1135F400920424D583035356D61672052656164D2
S1135F502041626F727465642E20446576696365BE
S1135F602044697361626C6564203A2820000D0A3C
S1135F70094D41473331313020526561642041621B
S1135F806F727465642E2044657669636520446984
S1135F907361626C6564203A2820000D0A094C3351
S1135FA0474432304820526561642041626F727404
S1135FB065642E2044657669636520446973616273
S1135FC06C6564203A2820000D0A094C5053323580
S1135FD04820526561642041626F727465642E20AA
S1135FE04465766963652044697361626C65642005
S1135FF03A2820000D0A09544353333437323520EC
S1136000526561642041626F727465642E20446538
S1136010766963652044697361626C6564203A281B
