S02B00002F73747564656E74732F726C6A33362F576172702D6669726D776172652F6275696C642F6B73646BDD
S1130000000600201D050000450500004505000010
S113001000000000000000000000000000000000DC
S11300200000000000000000000000004505000082
S11300300000000000000000450500004505000028
S11300404505000045050000450500004505000084
S11300504505000045050000450500004505000074
S1130060832B0000450500008D2B00004505000092
S11300704505000045050000450500004505000054
S11300804505000045050000450500004505000044
S11300909D0E0000B50E000045050000450500005A
S11300A04505000045050000450500004505000024
S11300B04505000045050000450500004505000014
S1130400FFFFFFFFFFFFFFFFFFFFFFFFFE3DFFFFBB
S11304100448054B10B5834203D0044B002B00D095
S1130420984710BDACFFFF1FACFFFF1F000000008A
S113043006480749091A8B10C90FC91810B5491085
S113044003D0044B002B00D0984710BDACFFFF1F16
S1130450ACFFFF1F0000000010B5074C2378002BF1
S113046009D1FFF7D5FF054B002B02D0044800E06B
S113047000BF0123237010BDACFFFF1F000000006C
S11304802C610000054B10B5002B03D0044905482E
S113049000E000BFFFF7CCFF10BDC0460000000025
S11304A0B0FFFF1F2C610000402292029A1A92466C
S11304B07047C046154B002B00D1114B9D46FFF7EA
S11304C0F3FF00218B460F461148124A121A00F01E
S11304D0FFF80C4B002B00D098470B4B002B00D09F
S11304E098470020002104000D000B4800F02EF86E
S11304F000F064F82000290000F0E2FF00F034F876
S113050000000800000000000000000000060020B9
S1130510ACFFFF1FB80200209505000072B6064824
S11305200649074A02600A6002F036FB02F076FBD5
S113053062B6FFF7BFFF000080E100E080E200E068
S1130540FFFFFFFF004800474505000010B501000C
S113055000230022002000F019FA10BD014B186896
S11305607047C04600FEFF1F084B10B50400002B67
S113057002D0002100F078FA054B1868836A002B3A
S113058000D09847200000F05BFCC046690A0000D8
S11305907049000070B5074D074C641BA41005D0CA
S11305A0013CA300EB589847002CF9D105F0C4FD99
S11305B070BDC046506100005461000070B50C4D20
S11305C00C4E761BB61005D0002408CD0134984794
S11305D0A642FAD105F0AAFD074D084E761BB610C7
S11305E005D0002408CD01349847A642FAD170BD45
S11305F04C6100004C6100004C610000506100003F
S113060010B5034B0100186800F00CF910BDC0468A
S113061000FEFF1F10B5034B0100186800F0ACF892
S113062010BDC04600FEFF1FF0B5C64600B50F2A38
S113063043D90B00032603431E400C000300002E85
S113064040D11500103D2D09AC462D01A84680442B
S113065000E03B00676825685F60E7681D60DF6055
S11306601F00A56810379D6010344345F1D16546DD
S11306700F230C2401352D01491913404519144247
S113068023D08C59AC5104369C1B032CF9D8032479
S1130690043B9B0801339B002240ED18C918561EE9
S11306A0002A07D0002300E02300CA5C5C1CEA5443
S11306B09E42F9D104BC9046F0BD0500561E002AA6
S11306C0F0D1F7E7561E0500ECE71A00F6E7C0463E
S11306D0F0B5050083074AD0541E002A44D0CEB298
S11306E00300032202E00135013C3DD301332E70A7
S11306F01342F8D1032C2FD9FF220A4015021543C7
S11307002A0415430F2C35D92700103F3F093E0119
S1130710B4461E001A001036664415605560956094
S1130720D5601032B242F8D10F260C2201373F01B6
S11307302640DB193700224217D03E1FB608B4000A
S1130740A4461A001C1D644420C2A242FCD1032406
S11307500136B6009B193C40002C05D0C9B21C19C7
S1130760197001339C42FBD1F0BD3400F4E714004E
S11307700300BFE72700E0E770B50500002915D0A6
S11307800C1F2368002B27DB280000F0CBF9244B37
S11307901A68002A05D0A2420CD921686018824246
S11307A024D0626028001C6000F0BEF970BDA34232
S11307B003D81A005368002BF9D111685018A042CD
S11307C01BD027D821686018834207D06360546027
S11307D0280000F0A9F9E9E7E418D5E718685B6890
S11307E084466144216063605460F1E71068526894
S11307F08446614421606260D4E720680918501877
S113080011608342E4D118685B68844661441160D6
S11308105360DDE70C2328002B6000F085F9C5E761
S1130820C8FFFF1FF8B50323CD1C9D430835060000
S11308300C2D2AD20C25A94229D8300000F072F9D7
S11308402A4F3A68002A0AD013685B1B04D441E09B
S113085023685B1B1FD522005468002CF8D17B68E9
S1130860002B3DD02900300000F042F8431C2AD070
S11308700323C41C9C43A04205D0211A300000F07D
S113088037F8431C1FD0256010E0002DD3DA0C2369
S113089000203360F8BD0B2B05D86368A2421DD03D
S11308A0536003E014002360E4182560300000F076
S11308B03BF9200007220B30231D9043C21AE9D0D4
S11308C01B1AA350E6E70C233000336000F02CF928
S11308D00020DFE70B2BE5D8140053683B60E5E705
S11308E00021300000F004F87860BBE7C8FFFF1F68
S11308F0002370B5064C05000800236000F0A2FA3E
S1130900431C00D070BD2368002BFBD02B60F9E79B
S1130910B402002003000A7801311A700133002A5E
S1130920F9D1704710B5830727D00378002B26D060
S11309300300032102E01A78002A1CD001330B4281
S1130940F9D119680F4A104C8A188A4322420FD1F0
S1130950043319680B4A8A188A43224208D10433A3
S11309601968084A8A188A432242F1D000E0013308
S11309701A78002AFBD1181A10BD0300E1E7002001
S1130980FAE7C046FFFEFEFE80808080F0B5464652
S11309904F46D646C0B51F002F4B82B01C680500D9
S11309A00E009046002C2DD063681F2B50DC002DC8
S11309B01CD08822A0589146002834D0783282581E
S11309C094469A0091468144424649460A60012170
S11309D0624699400A43944680228A466146520000
S11309E081504946803A8F50022D16D000205A1C5F
S11309F002339B0062601E5102B01CBC90469946B3
S1130A00A246F0BD154C1C60154B002BCCD01B68C6
S1130A1001938823019AE250C6E7554684328158EF
S1130A200D438550E2E70F4B002B11D0842040008A
S1130A30FFF7E6FD00280BD08022002352008350EC
S1130A40043283504B460022E05094466368B8E772
S1130A5001204042D0E7C0465C000020D0FFFF1FC9
S1130A600000000001060000F0B5DE464E46454693
S1130A7057462B4B88469B46E0B51E6883B00190D1
S1130A80002E45D088237568F7586C1E40D4013574
S1130A90AD00783375199A460AE0002F05D03B0063
S1130AA0A20080339B58434505D0043D013C2FD31D
S1130AB04346002BF1D173682A68013BA34222D03C
S1130AC000232B60002AF0D073689946002F18D0B9
S1130AD001235146A3407958194212D08220400084
S1130AE03858A1007958009018420ED101989047C7
S1130AF05B4672681B684A4501D1B342D5D01E00DB
S1130B00BEE79047F4E77460DCE708009047EFE73E
S1130B1003B03CBC90469946A246AB46F0BDC046E5
S1130B205C0000207047C0467047C04602B471465E
S1130B3049084900095C49008E4402BC7047C0461C
S1130B4003B47146490840004900095E49008E44D7
S1130B5003BC7047002243088B4274D303098B42C1
S1130B605FD3030A8B4244D3030B8B4228D3030C79
S1130B708B420DD3FF22090212BA030C8B4202D31B
S1130B801212090265D0030B8B4219D300E0090A43
S1130B90C30B8B4201D3CB03C01A5241830B8B424C
S1130BA001D38B03C01A5241430B8B4201D34B0335
S1130BB0C01A5241030B8B4201D30B03C01A52419A
S1130BC0C30A8B4201D3CB02C01A5241830A8B421F
S1130BD001D38B02C01A5241430A8B4201D34B0208
S1130BE0C01A5241030A8B4201D30B02C01A52416C
S1130BF0CDD2C3098B4201D3CB01C01A5241830920
S1130C008B4201D38B01C01A524143098B4201D359
S1130C104B01C01A524103098B4201D30B01C01A84
S1130C205241C3088B4201D3CB00C01A52418308FE
S1130C308B4201D38B00C01A524143088B4201D32B
S1130C404B00C01A5241411A00D20146524110468B
S1130C507047FFE701B5002000F0F0F802BDC04680
S1130C600029F7D076E7704703460B437FD4002270
S1130C7043088B4274D303098B425FD3030A8B422C
S1130C8044D3030B8B4228D3030C8B420DD3FF2296
S1130C90090212BA030C8B4202D31212090265D064
S1130CA0030B8B4219D300E0090AC30B8B4201D317
S1130CB0CB03C01A5241830B8B4201D38B03C01A5E
S1130CC05241430B8B4201D34B03C01A5241030BD5
S1130CD08B4201D30B03C01A5241C30A8B4201D386
S1130CE0CB02C01A5241830A8B4201D38B02C01A31
S1130CF05241430A8B4201D34B02C01A5241030AA8
S1130D008B4201D30B02C01A5241CDD2C3098B428C
S1130D1001D3CB01C01A524183098B4201D38B0109
S1130D20C01A524143098B4201D34B01C01A5241AC
S1130D3003098B4201D30B01C01A5241C3088B42F1
S1130D4001D3CB00C01A524183088B4201D38B00DC
S1130D50C01A524143088B4201D34B00C01A52417E
S1130D60411A00D201465241104670475DE0CA0F55
S1130D7000D04942031000D34042534000229C4615
S1130D8003098B422DD3030A8B4212D3FC2289011F
S1130D9012BA030A8B420CD3890192118B4208D3F5
S1130DA0890192118B4204D389013AD0921100E057
S1130DB08909C3098B4201D3CB01C01A524183096B
S1130DC08B4201D38B01C01A524143098B4201D398
S1130DD04B01C01A524103098B4201D30B01C01AC3
S1130DE05241C3088B4201D3CB00C01A524183083D
S1130DF08B4201D38B00C01A5241D9D243088B4293
S1130E0001D34B00C01A5241411A00D20146634635
S1130E1052415B10104601D34042002B00D5494299
S1130E20704763465B1000D3404201B5002000F0D8
S1130E3005F802BD0029F8D016E770477047C04690
S1130E40FEE7C0460A4A0300116810B5002901D123
S1130E500849116010680849C3188B4206D9FFF786
S1130E607DFB0C2303600120404210BD1360FCE7AE
S1130E7060000020B8020020B8020020837802201D
S1130E809842804140427047437A0020013B012B45
S1130E9003D90B78013001330B70704710B5002073
S1130EA003F0ACF9002803D00021080003F09AF9FC
S1130EB010BD0000024A1368013313607047C04636
S1130EC07800002037B5002002F020F9C023002468
S1130ED00D4A9B0013600D4A0D4D13600D4A20000E
S1130EE013600D4B2C716C71AC711A68FA239B0062
S1130EF053430A492B6003F0CFF92900200001AACB
S1130F0003F030FA37BDC046189014541C901454A2
S1130F10D000002000A0145484FEFF1FA000002075
S1130F2010B58024002003F0F9F90A4B64001C601A
S1130F30094B07201C60094B1C6002F081FB062052
S1130F4002F07EFB200002F07BFB002002F0E3F8BD
S1130F5010BDC046189014541C90145400A014548E
S1130F6010B5002002F0DCF88023054A9B001360D2
S1130F70044A00200449136002F03EFC10BDC04640
S1130F800CA0145410A014547C00002010B50020B0
S1130F9002F06EFC80238220074A5B001360074A3C
S1130FA04000136002F04CFB0420FF3002F048FBC9
S1130FB0002002F0BAF810BD0CA0145410A0145470
S1130FC00023364A70B51360354A01201360354A50
S1130FD00133FF331360344A34491360344A1360D5
S1130FE0344A1360344A1360344A1360344A136039
S1130FF0344A14782500054004424DD00B60324930
S113100032480B60002101603148016031490B60B6
S113101031490B6031490B6031490B6031490B6038
S113102031490B601378DB0703D50220FF3002F04F
S1131030F9FA092002F004FB0C2002F001FB052060
S113104002F0FEFA082002F0FBFA0620FF3002F05C
S1131050F7FA0E20FF3002F0F3FA8320400002F08A
S1131060EFFA0820FF3002F0EBFA0C20FF3002F018
S1131070D9FA8220400002F0E3FA0420FF3002F0A3
S1131080DFFA072002F0DCFA062002F0D9FA802009
S1131090400002F0D5FA70BD0D60B0E70C90145416
S11310A010901454149014541890145404A014540C
S11310B01C901454209014542490145430901454BC
S11310C000A0145480FEFF1F08A014540CA0145454
S11310D010A0145414A0145418A014541CA0145494
S11310E028A014542CA0145434A0145410B509206E
S11310F002F0A6FA10BD10B50C2002F0A1FA10BD42
S1131100384B10B598423DD027D8374B984253D02E
S113111015D8C83B984244D009D8C83B984231D02E
S1131120324B984206D1052002F07CFA2DE0304B78
S113113098423DD02F49002001F017FD2CE0962362
S11311401B01984243D02C4B984247D02B4B9842DA
S1131150F0D1052002F066FA31E0294B98422BD0F9
S113116007D8C83B98421CD0264B984220D0264B27
S1131170D7E7C8231B01984229D0244B98422DD08D
S1131180234BE4E7052002F05BFA082002F058FA4A
S11311900620FF3002F054FA1E4B186801F0FDFDE2
S11311A010BD052002F04CFA082002F03BFAEFE7EC
S11311B0052002F037FAF7E7052002F041FA08208B
S11311C002F03EFA0620FF3002F02CFAE4E7052094
S11311D002F036FA082002F025FAF3E7052002F0BF
S11311E021FAF7E7280A0000980800006C070000BD
S11311F03408000074490000C4090000FC08000021
S1131200B80B0000540B00008C0A0000E40C000032
S11312101C0C00008CFEFF1F10B5FFF771FF0920A6
S113122002F000FA0C2002F00BFA8320400002F0D6
S113123007FA10BD10B5FFF763FF092002F000FAAA
S11312400C2002F0EFF98320400002F0EBF910BD0E
S1131250AF220C4B10B5C3189BB29200934202D834
S1131260FFF7DAFF10BD084BC3189BB2934202D8B4
S1131270FFF7E0FFF6E702000449002001F075FCE7
S1131280F0E7C046F8F8FFFFD8F5FFFFA1490000DA
S113129010B5FFF72BFFFFF72EFF8320400002F06D
S11312A0C1F9024B186801F078FD10BD8CFEFF1FD8
S11312B010B50400002901D0FFF782FE00210220AE
S11312C000F02EFF2100042000F02AFF10BD10B50D
S11312D0012420000021FFF7EBFF21003C20FFF751
S11312E0E7FFF6E7F7B51500002815D017490020E9
S11312F001F028FA164C206801F04FFD1549002032
S113130001F020FA206801F048FD0020124901F0A4
S113131019FA206801F041FD002427000F4E1049FE
S11313203368726800200092220001F01EFC3268CB
S1131330002073680B49009701F017FC002D02DDB3
S1131340280001F02AFD0134E8E7C046D94900002D
S11313507CFEFF1F014A0000C459000000D0034076
S1131360264A0000324A000003003038092805D913
S11313701A00613A052A02D8573B180070471A0030
S1131380413A0020052AF9D8373BF6E770B501F059
S1131390F4F9040001F0F1F9FF26050020003040C3
S11313A0FFF7E2FF040028003040FFF7DDFF2401CF
S11313B02018C0B270BD70B501F0DFF9060001F06D
S11313C0DCF9050001F0D9F9040001F0D6F9FF2297
S11313D0FA23642116401540303E14409B00303DF2
S11313E04D4373435A39303C4C435B1910401B192D
S11313F03038181870BD000070B50C00160088B0A5
S11314000CAA157806A908800A4A05A805700A4D91
S113141012682D684A6004AA167001930090230094
S11314200020029502F0D4FA002800D0022008B06F
S113143070BDC04674FEFF1F78FEFF1FF7B56A46F5
S1131440CB1DDB08DB00D31A02AF9D460C00050060
S1131450FFF738FDFA2300219B0002AE01930094AC
S113146033002A00080002F0D9FF0400FFF758FDFA
S1131470002C00D00424BD462000F2BD10B500208D
S1131480014901F05FF910BDBB4D000010B5094CD6
S11314900020210001F056F92100002001F052F94A
S11314A00549002001F04EF90449002001F04AF9F1
S11314B010BDC046E74D0000174E0000484E000026
S11314C0F0B5B7B021AC072200212000FFF700F9E6
S11314D0FA4A01272692032211AB2D9313AB2E93C4
S11314E015AB309319AB32931BAB33931DAB3493D1
S11314F01FAB17AE09A90020359326AB1A712891AA
S11315000C93319627702F9401F0F8FD380001F008
S1131510F5FD8021EA4B0902196001F05DFC00230E
S113152000971A001900180001F02EF9E54900206F
S113153001F008F9C82001F030FCE349002001F073
S113154001F9C82001F029FCE049002001F0FAF873
S1131550C82001F022FCDE4A3B000221DD4801F0F4
S11315605FFC3900380001F067FC002002F084FDC4
S113157084210025D84B2800239304AB5B181D80DD
S1131580023104AB5B1823A91D70249702F0A0FD5F
S11315903A00290009A8FFF79BF84820219B04A9D9
S11315A01593A28809180A80A279023004A909189F
S11315B00A700322063804A909180A701793A2882E
S11315C004A9B280A2790A38B2710522327011934B
S11315D0A28802260A87A27909180A70342104AA6B
S11315E0521816701393A288063004A909180A80A9
S11315F0A279801904A909180A700422063804A9DA
S113160009180A701993A2881C3004A909180A80C1
S1131610A279801904A909180A700822063804A9B5
S113162009180A701B93A2880C3004A909180A80AF
S1131630A279801904A909180A700921063804AA94
S1131640121811701D93A3880C3004AA1218138069
S1131650A379801904AA121813700A23063804AA5D
S1131660121813706C2204AB9B181D700CAA3B005B
S11316702DA801F0A3FD2900300000F051FD974989
S1131680974801F0B5FFFFF79BFC0820FF3001F0FD
S1131690C9FFC82001F081FB0820FF3001F0D0FF12
S11316A0C82001F07AFB0820FF3001F0BBFFC820FE
S11316B001F073FB0820FF3001F0C2FFC82001F0E5
S11316C06CFB0820FF3001F0ADFFC82001F065FB82
S11316D00820FF3001F0B4FFFFF7DAFD814800F085
S11316E0B3FE2800804901F02DF880231B020695E3
S11316F0059504937D49002001F024F87C4C7D4F2E
S1131700206801F04AFB7C49002001F01BF82068A6
S113171001F043FB059B069A7849002001F025FA65
S1131720206801F03AFB764D764E77492A68049892
S113173033680968019000910020744901F015FA9A
S1131740206801F02AFB724B724A0020D2587B6950
S113175039680091704901F008FA206801F01DFB16
S11317606E4900200A784B788979D2B2DBB20091B5
S11317706B4901F0FAF9206801F00FFB674B6949E6
S11317801A7A1B7E0978D2B2DBB200910020664936
S113179001F0EBF9206801F000FB644B64491A780E
S11317A05B780969D2B2DBB200910020614901F093
S11317B0DCF9206801F0F1FA5F4B56499A785F4BE7
S11317C0D2B2CB587968002000915D4901F0CDF97F
S11317D0206801F0E2FA5B4B5B491A6809AB1B789D
S11317E0002001F0C2F9206801F0D7FA574900201F
S11317F000F0A8FF206801F0D0FA5549002000F05D
S1131800A1FF206801F0C9FA5249002000F09AFFB4
S1131810206801F0C2FA5049002000F093FF2068CC
S113182001F0BBFA4D49002000F08CFF206801F064
S1131830B4FA4B49002000F085FF206801F0ADFAAE
S11318404849002000F07EFF206801F0A6FA4649CE
S1131850002000F077FF206801F09FFA4349002040
S113186000F070FF206801F098FA4149002000F070
S113187069FF206801F091FA0323059A3D4900208D
S113188001F073F9206801F088FA3B49002000F068
S113189059FF206801F081FA3849002000F052FF16
S11318A0206801F07AFA3649002000F04BFF2068E6
S11318B001F073FA3349002066E0C046890E000047
S11318C0A80200207A4E0000954E00009B4E0000B6
S11318D064FEFF1F94FFFF1FE0070100A4FEFF1F2B
S11318E094FEFF1F64000020A24E0000B54E0000CD
S11318F07CFEFF1F00D00340D94E00000B4F0000B8
S113190074FEFF1F84FEFF1F90FEFF1F3F4F000069
S11319103C10000000700440774F00000040064077
S1131920AD4F000000500640DC4F000000E00740CF
S113193000ED00E00C50000000D00740341000001F
S113194046500000780000207E500000AC5000009B
S1131950B6500000D3500000EF5000000B510000BF
S1131960285100004F5100006E5100008D510000BD
S1131970B8510000DB5100000A520000265200005A
S11319804A5200006E52000000F0DCFE206801F0B4
S113199004FAD349002000F0D5FE206801F0FDF9D7
S11319A0D049002000F0CEFE206801F0F6F9CE49BF
S11319B0002000F0C7FE206801F0EFF9CB490020B9
S11319C000F0C0FE206801F0E8F9C949002000F0E9
S11319D0B9FE206801F0E1F9C649002000F0B2FE2A
S11319E0206801F0DAF9C449002000F0ABFE206859
S11319F001F0D3F9C149002000F0A4FE206801F0F1
S1131A00CCF9BF49002000F09DFE206801F0C5F923
S1131A10BC49002000F096FE206801F0BEF9BA49E6
S1131A20002000F08FFE206801F0B7F900F0A5FE59
S1131A30FF27020007903A407A2A0BDC602A0BDC6D
S1131A40232A00D194E22D2A00D153E6AF490A2A71
S1131A5000D157E2AE49BCE0100061381928F9D82A
S1131A60FFF76EF81A00A800BB00CB00D600E00018
S1131A701F012A013201AE01EE01F401F401370223
S1131A803B023E02F8FF4402470248FE4F02F8FFC1
S1131A90F8FF5502F8FF5E029E49002000F052FE56
S1131AA09D49002000F04EFE206801F076F99B4924
S1131AB0002000F047FE9A49002000F043FE9949B7
S1131AC0002000F03FFE206801F067F996490020ED
S1131AD000F038FE206801F060F99449002000F01D
S1131AE031FE206801F059F99149002000F02AFEE6
S1131AF0206801F052F98F49002000F023FE20688D
S1131B0001F04BF98C49002000F01CFE206801F024
S1131B1044F98A49002000F015FE206801F03DF9DF
S1131B208749002000F00EFE206801F036F985494F
S1131B30002000F007FE206801F02FF98249002000
S1131B4000F000FE206801F028F98049002000F030
S1131B50F9FD206801F021F97D49002000F0F2FD33
S1131B60206801F01AF97B49002000F0EBFD2068A1
S1131B7001F013F97849002000F0E4FD206801F039
S1131B800CF97649002000F0DDFD206801F005F92C
S1131B907349002000F0D6FD206801F0FEF8714979
S1131BA0002000F0CFFD206801F0F7F800F0E5FD1B
S1131BB0C2B24FE76C49002000F0C4FDFFF7FBFB05
S1131BC028602A68694B9A4201D1694B2B602A68C4
S1131BD06849002000F0C9FF8CE56749002000F047
S1131BE0B1FDFFF7E8FB30603268604B9A4201D1E7
S1131BF05F4B336032686149EBE76149002000F0D4
S1131C00A1FDFFF7D8FB5F4B5F4918601A68E0E756
S1131C105E49002000F096FDFFF7B8FB5C49020026
S1131C200590D6E75B49002000F08CFDFFF7AEFB82
S1131C30594E020031000400002000F096FF57497D
S1131C40002000F07FFDFFF7A1FB0AAF0200310086
S1131C503870002000F089FF5149992C00D151E1DE
S1131C602B68069829AE2A933480FFF7F1FA6B4665
S1131C70187CFFF775F9059B0BAA1370494B3100CB
S1131C801B680020029301230097019301F0A0FE3A
S1131C90021E03D00020444900F067FFFFF776F9E5
S1131CA028E54249002000F04DFDFFF784FB83B294
S1131CB01A003F4906938CE73E49002000F042FD9C
S1131CC00120FFF7E3FB15E53B49002000F03AFD56
S1131CD0FFF771FB83B21A003849049379E7C046D1
S1131CE088520000A3520000C1520000DE520000DE
S1131CF0FD5200001C5300003653000061530000E5
S1131D0081530000B8530000CB530000A85F0000CB
S1131D107E580000DE530000E95300002754000001
S1131D2069540000AA540000EA5400002A55000037
S1131D3067550000A6550000E45500002156000038
S1131D405F5600009C560000DB5600001857000048
S1131D50415700007E570000B5570000F2570000BD
S1131D602F5800006A5800009A5800000F270000FE
S1131D7010270000C8580000E85800001659000059
S1131D803059000090FEFF1F5F5900007A5900008F
S1131D90B0590000C7590000FA590000105A000059
S1131DA0395A000078FEFF1F5F5A0000805A000075
S1131DB0AC5A0000CE5A0000FC5A0000385B000008
S1131DC0059AA549002000F0D0FE00F0D6FCA349F6
S1131DD0002000F0B7FC00F0D0FCA149002000F086
S1131DE0B1FC00F0CAFC9F49002000F0ABFCFFF7F7
S1131DF0E2FA9D490500002000F0A4FCFFF7DBFA9D
S1131E0004009A49002000F09DFCFFF7D4FA984999
S1131E10002000F097FCFFF7B9FA049B03229549D0
S1131E2001930295059B0094002000F09EFE6B46F2
S1131E30187CFFF795F89049002000F083FC2DE70B
S1131E408E49002000F07EFCFFF741FA8C49002007
S1131E5000F078FC94258B49002000F073FCFFF718
S1131E6095FA04AB5B1918708749002000F06AFCEE
S1131E70FFF7A1FA6B461E7F04AB5B1904001B78C5
S1131E80069A6C2E15D10192049A804900920200A0
S1131E90002000F06AFE0025A54200DB2AE429ABFD
S1131EA01A7800230121FF200093FFF7A5FA0135DA
S1131EB0F2E7009276490200002000F056FE002569
S1131EC0A54200DB16E4012129A8FFF7B7FA013582
S1131ED0F6E70698FFF7BCF90CE4FFF7D9F909E433
S1131EE00021022000F01CF9FFF704FC0021082067
S1131EF0F8E76349002000F025FCFFF7BFFAFFF77D
S1131F00F9FB6449002000F01DFCFFF7F3FB624974
S1131F10002000F017FC614800F03FFF6049F1E742
S1131F206049002000F00EFC6B46187CFFF718F89F
S1131F305D49002000F006FC00F01FFC5B49050031
S1131F40002000F0FFFBFFF736FA86B23200584952
S1131F50002000F00AFE206800F01FFFE9B2683993
S1131F604D42694132000120049BC9B2FFF7BAF91E
S1131F705049002000F0F9FD4F49002000F0F5FD24
S1131F80206800F00AFF00F0F8FB0740312F43D02F
S1131F90322F01D0FFF7AEFB0020484900F0D2FBFE
S1131FA00027474E0DAD7A5D31000020013700F067
S1131FB0DCFD052FF5D14349002000F0C3FBC82008
S1131FC02368584300F0E9FE262029A900F0F6F919
S1131FD000283FD129A800F00DFA041E01D0FFF714
S1131FE089FB29ABE25C0FAFE255310000200134DC
S1131FF000F0BBFD052CF4D100230122F85CE95C60
S1132000884200D000220133052BF7D12E49012A42
S113201000D177E72D4975E72D49002029AD00F05F
S1132020A4FD2900262000F0C9F9002812D12800B7
S113203000F0E0F9041E01D0FFF75CFB2A5D0DAB54
S1132040E25400201E49013400F08FFD052CF5D127
S1132050FFF750FB1F4955E7555B00008F5B0000FD
S1132060B85B0000D15B0000105C00003C5C000029
S1132070745C0000A55C0000C24A0000E25C000041
S1132080CE5A0000055D0000245D0000445D0000A0
S1132090965D0000D45D0000125E00001027000071
S11320A0315E00003B5E0000545E00007D5E000077
S11320B0C55E0000FD5E0000165F00004C5F00007E
S11320C0345F00005C5F0000765F00008E5F0000FC
S11320D0275F00003C5F00001FB5040001A9002039
S11320E002F01EF8694601A801F058FF009B6846FB
S11320F01C1901A9009401F0D9FE012201A90020B4
S113210002F03AF81FBD00000022034B1A6080223F
S1132110024B1206DA67704700A01C5804E100E085
S113212070B50D000A2408281CD8FEF7FFFC051D15
S11321302A3F54676C6F5C0001F0D6F9052401282E
S113214010D0FFF7E1FF2800FFF7C6FF00210800C9
S113215001F056F801210400002000F06DFE002C6F
S113216022D10024200070BD01F0BEF9062401280C
S1132170F8D0FFF7C9FF2800FFF7AEFF00210120C8
S1132180E6E701F0B1F908240128EBD000F0D2FE13
S1132190002803D00121002000F04EFE002102207F
S11321A001F02EF80028DCD00924DBE701F09CF9CB
S11321B007240028D6D0FFF7A7FF2800FFF78CFFDD
S11321C00021032001F01CF8040001F08DF9012125
S11321D00028C4D1C1E7FFF797FF2800FFF77CFF71
S11321E000210420EEE70021082001F009F8041E74
S11321F0DAD10121080000F01FFEB3E70021052019
S113220000F0FEFFD0E700210620F9E700210720B7
S1132210F6E7000037B500240F4D287205206972D7
S11322202C736C7301F0FEF9322000F0B6FD05202A
S113223001F006FA094B21001B68094A01930223A5
S113224020000093074B02F0E9F82870052001F004
S1132250E9F920003EBDC0466400002088FEFF1F4F
S11322606C000020700000207E2310B54000184050
S1132270FFF7D0FF10BD10B50021FFF7CBFF10BD55
S11322807E2340001840023310B51843FFF7F3FFD4
S1132290014B587BC0B210BD6400002070B50D0026
S11322A00400FFF7EDFFA843C1B22000FFF7DCFFF5
S11322B070BD70B50D000400FFF7E2FF0100294373
S11322C02000C9B2FFF7D0FF70BD0000F7B50500CC
S11322D00F000420F72116000193FFF79BFF8021D4
S11322E00420FFF7DBFF80210A20FFF7E2FF002133
S11322F00220FFF78FFF0024B4424FDB29000220A5
S1132300FFF788FF0C2D03D180210D20FFF7D1FFAB
S11323101927012000F041FD8820FFF7ACFF264C6F
S1132320013F667BF6B2002F02D031231E42F0D06B
S113233080210D20FFF7B2FF002F3AD08C20FFF749
S11323409AFF1B23627B1A4233D1012006400C2DD5
S113235022D19330FFF78FFF9820677BFFF78BFF25
S1132360607B07220100FFB21140FB00104202D043
S11323707B1EDB005B18089A3D1C1360102F13D9D9
S113238010250027EDB29220FFF775FF637B019AB9
S1132390D3550137BD42F6DCF0B2FEBD395D1220E3
S11323A0FFF738FF0134A7E7FBB2002BE9D1012581
S11323B0E7E70226F0E7C0466400002030B50C00D1
S11323C0050085B007211A20FFF724FF03AB009313
S11323D00122230021000C202570FFF777FF022340
S11323E0002804D1039B103B581E83415B00D8B2E4
S11323F005B030BD30B50021040085B01A20FFF7C8
S113240009FF93232370733B637003AB0093022291
S1132410230021000C20FFF759FF00280ED10721CB
S1132420039AD3170B409B1801000200DB10013BF9
S1132430A55C934205DCA94200D00220C0B205B0DD
S113244030BD69400132F3E7C02310B58024214A2E
S11324509B001360204A64001360204A1360FEF757
S113246031FD1F4B05201C601E4B1C601E4B1C6065
S113247001F0D8F8200001F0D5F8642000F08DFCBC
S1132480200001F0DDF8642000F087FC200001F05A
S1132490C9F8642000F081FC8D215420FFF7BAFEB6
S11324A03E215620FFF7B6FE1E215A20FFF7B2FE4A
S11324B000215820FFF7AEFE40212A20FFF7AAFE94
S11324C03D212220FFF7A6FE03211420FFF7F1FE91
S11324D010BDC046209014542490145418901454E1
S11324E0149014543090145400A014540369C26816
S11324F0934201D880681B18013B981A7047F7B5BE
S11325008368C46801931F1B436805000E001819F3
S1132510A418974207D83A00FEF786F8019B68682A
S1132520E41A2200F119FEF77FF8EC60F7BD0023EE
S1132530F7B506001700C568019100933369B468C4
S11325409D421FD2013B5B1B641BBC4200D93C0073
S11325509C4200D91C007368220058190199FEF7A7
S113256063F8009B2D191B190093019B3F1B1B193A
S11325700193B368AB4200D10025F560002FDDD193
S11325800098FEBD1B19DDE7022310B50F4C104A5D
S1132590236163610F4BA261E361C823A2640E4A05
S11325A02362E26400230422A3626362E362A365FC
S11325B06365E36522650949E01DFEF7ABF9200078
S11325C00749FEF7A7F92023A37110BDD800002006
S11325D0DA5F00005401002050010020E35F000096
S11325E0E75F0000F0B5274B85B01B780E00029022
S11325F00192002B01D1FFF7C7FF1823029A00258F
S11326005343204AD3185A6D9C6D0392944219D9AE
S11326101B6D019D1B1B9D4200D91D001827029BA9
S113262030005F43174B2A00DF19FB6C7619191928
S1132630FDF7FAFF019B64195B1B01933B6DA342F9
S113264000D10024039B019F1B1B9F4200D91F0044
S1132650002F0CD01823029A30005343094AED1975
S1132660D318D96C3A000919FDF7DEFFE419002DDF
S113267005D01823029A03485343C01884652800E0
S113268005B0F0BDD800002010B50B00EFF31084A6
S1132690012181F310881900FFF7A4FF84F3108847
S11326A010BD0000F8B516001822451C55434243DE
S11326B0164B0F005D199B18DC6A012C10D0022CFC
S11326C01BD0002C1FD12800FFF710FF864205D82D
S11326D0320039002800FFF712FF34002000F8BD53
S11326E02800FFF703FF3400864200D904002200CB
S11326F039002800FFF703FFF0E732002800FFF756
S113270016FF0400EAE70024E8E7C046D8000020EA
S1132710F8B50B4B04001B780E001700002B01D1F9
S1132720FFF732FFEFF31085012181F310883A009F
S113273031002000FFF7B6FF85F31088F8BDC046CE
S1132740D800002070B5050008000C00FEF7EAF878
S1132750210002002800FFF7DBFF70BD13B56B46B4
S1132760DC1D012221000020FFF78EFF012801D18A
S1132770207816BD01204042FBE710B5FFF7EEFFBD
S11327800028FBDB10BD0000F7B5164C019323783D
S113279005000F001600002B01D1FFF7F5FE236999
S11327A0AB421CD9EFF31082012181F31088002D74
S11327B00CD01823691C59436B43675061184E6051
S11327C00199E3181962002199625962182045435E
S11327D0089B6419E36282F310880020FEBD012087
S11327E04042FBE7D8000020826810B5040040682E
S11327F0531C834205D820688154A360E3680133E5
S1132800E360A26863689A4209D121682069FFF7EE
S11328107FFFA368984203D001235B42E36010BDAD
S11328200023A360FBE70000F0B5050017000800D3
S1132830012685B00A9C02910093B84219D2009AED
S11328400196964200D2019201230B9A1A400392F8
S11328500B9A1A4202D1002C10D10024EB680126F5
S1132860002B4BDB009B012B1FD9013B00937E43C4
S1132870F8E73900FEF76EF90136DEE70B9B2026F8
S11328809B0704D5009B1036002B00D0103E019B03
S1132890A342E3D231002800FFF7A6FFEB68013C16
S11328A0002BDBDB002CF2D1D7E731000298FEF7D6
S11328B051F98742DBD902983100FEF7D1F9114B67
S11328C00291195C2800FFF78FFFEB68002B05DBF2
S11328D039003000FEF73EF9BE4211D2039B002BB3
S11328E00CD0002C0AD0019BA34207D2202128003F
S11328F0FFF77AFFEB68013C002BF2DA05B0F0BD7C
S11329000600D8E7EE5F0000F0B59FB00EAB099368
S113291040230A9300230E00150007900B930D909B
S11329200C9331780136002907D10C9B0393002BBB
S113293000DD09E10C981FB0F0BD252900D0B3E0FB
S113294000270822042006E0302B0DD1022300E0EA
S113295001231F430E003378711C2D2BF8D0F3D8BC
S1132960232B10D02B2B0CD000240A213378721C7B
S113297018003038092808D84C43303C16001C197C
S1132980F4E70743E6E71743E4E7002103912E2B1E
S11329900ED116000A203278711C1300303B092B2B
S11329A006D8039B0E004343303BD3180393F2E74E
S11329B0042331780A0001369A43682A01D1317818
S11329C0F8E7782909D86F290BD8632967D017D875
S11329D0252969D0582900D195E00C9B002BA0DA59
S11329E0A3E7703908000829F7D8FEF7A9F8A5006D
S11329F0F6FFF6FF9400F6FF8300F6FFF6FF8C0067
S1132A006429EAD12B681A1D1B682A60DA17981802
S1132A100493012350400593092849DC039B059A3C
S1132A200693934200D20692002C05D0049B002BFF
S1132A3001DB7B0700D5013C02231F4202D0039B2C
S1132A40002B05D001231F4202D1002C36D10024D3
S1132A500C9B0593002BC0DB049B002B3ADA2D2141
S1132A605B42049309A8FFF7BFFE0C9B002BB4DB69
S1132A7003233B40022B05D1039B002B02D1002CE6
S1132A802CD100240C9B0593002BA6DB0A22039B6C
S1132A9004990197009409A8FFF7C6FE9DE72B68E7
S1132AA019681A1D2A60C9B209A8FFF79DFE94E7A8
S1132AB00A21FEF7D9F8059B0133ACE7069BA34234
S1132AC0C6D2202109A8FFF78FFE0C9B013C002BE6
S1132AD0BBDABDE77B07C8D52B21C3E7069BA3421E
S1132AE0D0D2302109A8FFF77FFE0C9B013C002BBC
S1132AF0C5DAC7E70A22296801970B1D2B60039BDF
S1132B0000940968C7E7296801970B1D2B60039B94
S1132B1000941022F5E72B681A1D2A601C6821789E
S1132B200134002900D158E709A8FFF75DFE0C9B8A
S1132B300393002BF3DA50E729680B1D2B60002365
S1132B40019308330093E4E70B9A002A03D0079813
S1132B500EA9FFF7DDFD0C9B03930B9B0493049AD2
S1132B60039B944663440C93E4E60EB403B503ABB1
S1132B7002CB01AA0193FFF7C7FE02B008BC03B061
S1132B80184710B5002000F069FD10BD10B50020F5
S1132B9001F050FB10BD0000082310B5164A9178CF
S1132BA0194202D091780B4393708821002222208D
S1132BB0124B49015A501249124C08708020124994
S1132BC040025850196811480140196019591048B9
S1132BD00840C02189040143195180210D4B1A7208
S1132BE019767F391A7059700B490A700C32997929
S1132BF01142FCD110BDC04600D007400070044013
S1132C0000E007400410000044100000FFFFF3FF41
S1132C10FFFFFFF0004006400050064012491348F1
S1132C2010B5814205D00022114B9B089B009A42AB
S1132C300FD1104B104A9960002310491048521AC2
S1132C409A420AD100210F4B0F4AD21A013A08D2F4
S1132C5010BD84588C500432E9E7CC5CC454013371
S1132C60EEE719700133F1E70000000000000000F6
S1132C700000000000ED00E000630000546100006B
S1132C8000FEFF1FACFFFF1FB802002003004170CD
S1132C900020187058609860704710B5437804009D
S1132CA00120FF2B08D000F051FA63780133DBB226
S1132CB0637000F03FFA002010BD0020704770B52B
S1132CC004000D0000F042FAE1682943E16000F0DD
S1132CD031FA002070BD000000220A4B9A641A00E9
S1132CE040329A631A0030329A621A0020329A6192
S1132CF01A0010329A60044A1360044B9B60DB6034
S1132D007047C046200200201C02002070020020F0
S1132D100022024B1A60186880B270470C007C5085
S1132D2070B5437804000D00002B0BD0002500F093
S1132D300DFA6378013BDBB26370257000F0FAF999
S1132D40280070BD02200029FBD02378002B17D067
S1132D50FFF7DEFF6368A268834204D8C01A824288
S1132D6006D30320EDE7C01A80235B02C018F6E700
S1132D7000F0ECF90023237000F0DCF90220E0E716
S1132D804B1CEED000F0E2F90123237000F0D2F9DD
S1132D90FFF7BEFFA5606060E3E770B50500FFF7CD
S1132DA0B7FF802604007602FFF7B2FF03008442D7
S1132DB003D8031B9D42F7D270BD301BC318F9E73B
S1132DC010B5012801D100F0C1F910BD10B50128DA
S1132DD001D100F0AFF910BD10B5FFF77DFF01235D
S1132DE00020084A08491360084A094C106008602A
S1132DF004212160074C216007490B6007490860E2
S1132E00136010BD3880045000008450000004504A
S1132E10000004510400045104000C500000045349
S1132E2010B5044C206021710020A26023736373E9
S1132E3010BDC046800200200422F0B587B005AC66
S1132E403B4E01900291207061703379009283426D
S1132E5026D90022337B1500737301230092A370DB
S1132E600393334F3B7BAB421DD8009B002B02D016
S1132E70029B012B48D10120FFF7A2FF0C20019BEC
S1132E80002558433368181800F0C2F8019B01204C
S1132E9073710226FFF79AFFA6703B7BAB421AD8E8
S1132EA0009807B0F0BDBA68AB009B58002B0FD058
S1132EB01A7903990A420BD020001A68996890473E
S1132EC0002805D0029B7D73002B1BD005230093A3
S1132ED00135EDB2C5E7BA68AB009B58002B0ED0A4
S1132EE01A7932420BD020001A689968904700285A
S1132EF005D0029B7D73002B17D006230093013568
S1132F00EDB2CAE7052300930023A370013DEDB29F
S1132F10FF2DC5D0064BAA009B68D358002BF5D0D3
S1132F2020001A6899689047F0E706230093B7E7F2
S1132F3080020020014B58797047C046800200206F
S1132F4013B50400002021780190022920D0032920
S1132F5022D0012925D1227901AB144800F03AFF8F
S1132F60002814D1A3795A1E9341114ADB0113702E
S1132F7063785A1E93410F4A5B001370A2780E4B7C
S1132F801A70E2780D4B1A7062790D4B1A7016BDE7
S1132F900100227901ABE0E701A9044800F05CFFDD
S1132FA0DEE701A9014800F0F9FED9E70040064038
S1132FB01840865300408650004006500140065099
S1132FC018401650074A43099B009B18F822C00575
S1132FD012051040184380235B0518430023036047
S1132FE07047C04628800440F821084A43099B00E2
S1132FF09B180905C2050A40134380225205134356
S11330001F2210401E3A82401A60704728800440F4
S1133010072373B5009300230400104D1A00012107
S1133020280001F0F9F82000FFF78AFF637A2800EE
S113303000930023217A1A0001F0EEF8E379084A9C
S11330409B041360074BA17A1D68280000F020FF41
S11330502800E17A00F023FF002076BD00700440D0
S113306000700C594C60000010B5054800F056FE85
S1133070044B1968C9B20131FDF76CFD10BDC0469F
S11330800040064044801C5E10B5FFF7EDFF10BD04
S113309010B5054800F042FE044B1968C9B201316D
S11330A0FDF758FD10BDC04600400640448014584A
S11330B010B5FFF7EDFF10BD0B4B1B68DBB2022B05
S11330C00CD0032B0DD00020834206D1074A106890
S11330D080221202904200D018007047044B1868F6
S11330E0FBE7FA208000F8E700700C59A8020020E2
S11330F0AC02002010B5FFF7DFFF10BD10B5024B86
S1133100185CFFF771FF10BDFE5F000010B576205C
S1133110FFF76AFF10BD10B57620FFF753FF10BD0F
S113312010B56620FFF760FF10BD10B56620FFF7ED
S113313049FF10BD044A1368002B04D0013B1360FF
S1133140002B00D162B670479002002072B6024A8A
S113315013680133136070479002002010B5064CC9
S1133160064801F0EBFA042801D1002010BD013C0F
S1133170002CF5D10320F9E7EA03000000E0074042
S113318010B50B4B0B490A78002A07D0084C0A48A3
S113319001F0D4FA012806D1002003E0013B002B02
S11331A0F1D1032010BD013C002CF0D1F9E7C04659
S11331B0EA03000002D0075100E00740F7B507001A
S11331C00E00150001200193002F15D0002913D003
S11331D0FFF7F6FD094C102200212000FDF778FAD4
S11331E027602671002D03D0019BA56023736373B0
S11331F00120FFF7EBFD0020FEBDC0469402002035
S1133200F0B5B14C8DB002900391237B0120637320
S1133210FFF7D6FD2379029A934206D80120FFF7DF
S1133220D5FD022738000DB0F0BD029A2368920044
S1133230D35809AC1D780193039B2A002372029B87
S11332402370019B636002239A430492012A01D0F4
S1133250052D0AD101219D4801F0C4F9002807D1A8
S11332600120FFF7B3FD0127DCE70321072DF2D886
S11332700123002763723C000593934E337BA342E2
S11332802AD80120FFF7A2FD914800F06BFD049BB2
S1133290012B4AD10138022835D9039B012B00D0D8
S11332A00DE106270120FFF78BFD0023012609AD60
S11332B06B72013CE4B2FF2C00D1AFE0824BA20060
S11332C09B68D358002BF4D01A793242F1D02800ED
S11332D01A6899689047ECE7B268A3009B58002BE2
S11332E00ED01A7905990A420AD01A68996809A871
S11332F09047002804D0039B04277473012BC0D18A
S11333000134E4B2B9E7FFF7D3FE724B9842C4D854
S1133310FFF7AAFE704EB042BFD8FFF7B9FEB04225
S1133320BBD8FFF7B1FEB042B7D8039B012B00D046
S1133330C1E00A2D00D9BCE02800FDF7F7FB060A1E
S11333400D1E879A7B822F737800002207AB1A70B8
S11333502DE0032207ABFAE75C4801F0EFF90128FE
S113336008D00021594801F04DF9FFF709FF071E65
S113337000D057E7012207ABE9E7544801F0DEF932
S1133380042808D00221514801F03CF9FFF7E6FE79
S1133390071E00D046E7042207ABD8E7072207AB95
S11333A01A80019AD2789A70019A1279DA702B00F5
S11333B0083B022B06D8019B06AA5B799372019BFA
S11333C09B79D372019B5B78002B0AD0012D08D91D
S11333D0019B02229978414B00294DD019690A4377
S11333E01A613A4807A901F031F9002800D00327EF
S11333F0002D45D1FFF7C4FE071E00D012E70027B9
S11334000120FFF7DDFC029B2F4D0024AB73022348
S113341009AE737201932B7BA34236D80120FFF7C8
S1133420D5FCFFE6082207ABFF321A80BFE72C4A1F
S113343007ABFAE7022207AB1A700222FF329A8026
S1133440B5E7022207AB1A70264AF8E7022207AB57
S11334501A70013A1D489A8001F070F90128A6D02B
S113346000211A4801F0CEF8FFF78AFE071E9ED00D
S1133470D8E6052207AB6AE7196991431961B0E7F9
S1133480012DBDD1FFF76AFEB6E7AA68A3009B58D9
S1133490002B0BD01A7901990A4207D030001A6820
S11334A099689047002801D005276C730134E4B271
S11334B0B1E70327B6E6002F00D13AE7F2E6002F82
S11334C000D0EFE6EDE6C0469402002000E007409D
S11334D00040064040420F0080841E0000ED00E0E2
S11334E0070300000102000010B5064801F026F9A8
S11334F003000020012B03D00B30042B00D10A3829
S113350010BDC04600E00740F7B5FF2403681D4A1C
S11335101E0A26401C40B3009F581B4A05009B58B6
S113352030000193FFF7EAFD00222100380001F08A
S11335300DF9019BA400E41884232A795B05234335
S113354052001A6080236A795B0523431A60902332
S1133550AA795B05234312011A600C4B1C43EB79D7
S11335601B042360EB79002B0AD0094B9B57002BDB
S113357006D01F2213401E3A9A401300054A1360D6
S1133580F7BDC046506000005860000000001818E5
S11335906060000000E100E0F8B5FF240500036866
S11335A0114A180A20401C4083009F580F4A9E5815
S11335B0FFF7A4FD38002100012201F0C7F86A6872
S11335C02100380001F0D1F888232A7AA400A41934
S11335D05B05234392001A6098235B051C436B7AB6
S11335E09B012360F8BDC046506000005860000095
S11335F070B50C00002807D1002C0FD170BD050058
S11336000835FFF781FF280003680133F7D1F3E79A
S1133610250020000C35FFF7BFFF2C002368013381
S1133620F6D1EBE7FF22030A044913409B005958E3
S11336300123104083404B607047C0465060000037
S1133640FF22030A044913409B00595801231040E8
S113365083408B607047C04650600000084B820076
S1133660D258942310B502325B0513431B78002B08
S113367002D000F0BBF910BD00F00EFAFBE7C04623
S113368000600000020080230C325B0513431A78AB
S1133690002AFCD00171704770B50D00084B800002
S11336A0C458200029001830FFF73AFB0328F8D04B
S11336B0002801D004232374207CC0B270BDC0460E
S11336C0A402002010B5104B8000C458E37C002BEA
S11336D005D0237C052B02D0237C042B0BD10B4B70
S11336E018589823821C5B05134300221A7001F0BA
S11336F0ABF801236374A37C002B03D020001830A3
S1133700FFF7CBFA10BDC046A40200200060000001
S1133710F0B51700002289B005930EAB1B780500A5
S11337200393830032481E5832481C5807AB1A8052
S1133730A37C880A04930223FF3363828B0A0193D8
S1133740CBB21E2801D11A000B0A5B00D8B2019B30
S113375000211E2B05D08F4203D1012303995B1A4C
S113376059B20143CBB202930299019807AB197085
S113377001211E2801D15A704918A3603000E1606C
S11337800299FFF77FFF28000F99FFF785FF237C3D
S1133790002B0CD1002F0AD0059BA760E3603000FA
S11337A03978FFF76FFF28000F99FFF775FF237C27
S11337B0039A1A4314D1019B1E2B01D0002F0FD062
S11337C0002301273000A360E76001F02BF8029981
S11337D030003943FFF756FF28000F99FFF75CFFCD
S11337E00023207CE374049BC0B2A37409B0F0BD31
S11337F000600000A4020020F7B583000193184B79
S11338008200D75805000C000126002F26D1154B45
S11338103900D358200024220193FCF759FF2000DB
S113382039001830FFF732FA2800FFF779FC0198C5
S113383000F0A3FF0A4BAA00D4501F220A4B5B5D81
S1133840134032009A40094B1A609C22019B520596
S113385002331343802266743E001A703000FEBDAA
S1133860A4020020006000000460000000E100E009
S1133870F7B50E4E8500AB59002701930C4B04009D
S1133880EA589C2302325B0513431F70FFF74DFC7B
S1133890084B01981A5D1F231A401E3B9340064AA9
S11338A01830D367FFF709FAAF51F7BDA40200201F
S11338B0006000000460000004E100E00A4B8000A6
S11338C070B5C5584B686A690C0093420BD0074B1E
S11338D0C658FFF7DDFB002301006268300000F0EA
S11338E05BFF63686B6170BDA40200200060000090
S11338F0F0B587B004920593334A0FAB1E7883006A
S11339009C580391627C0700002A03D10320207491
S113391007B0F0BD002E01D11E220E922B4A3800B2
S1133920D55800230399E360A36023742360637470
S1133930A674FFF7C3FF90231021AA1C5B05134351
S113394019708423E91C5B050B4302211970982329
S11339505B05134302934023029A2800137000F07E
S113396061FF039B380019880E9B049A019301237D
S11339700093059BFFF7CCFE0D9B002B17D0237CF7
S1133980002B11D10C9B2800A3600D9BE3600C9BC2
S11339901978FFF777FE002E03D038000E99FFF751
S11339A07BFE207CC0B2B3E7237C042BF9D1002337
S11339B00126029A1370EB785B09334202D0280087
S11339C000F042FF6674ECE7A402002000600000EF
S11339D01FB501240394089C0294079C0194069C3F
S11339E00094FFF785FF04B010BD0000244B70B5B0
S11339F08400E5588423EA1C5B05134302221A70F1
S1133A009023A9185B050B431B78EA78DBB2920676
S1133A101DD5942252050A431278002A17D0194A58
S1133A20A458012B14D1EA781A4204D00433237425
S1133A30FFF748FE0BE0E368013BE360002BF7D09F
S1133A40A36828005A1CA2605978FFF71BFE70BDBA
S1133A506268013A6260002A06D08C235B05012A61
S1133A600AD000220B4309E0FFF72CFE23685A1CFE
S1133A7022602A791A70EAE708220B431A70F5E7E4
S1133A8000600000A4020020C31C842040051843E9
S1133A9002230370704700000122F0B5904B8100AF
S1133AA0CD5889B0EB1C0193EB7890261B091A4082
S1133AB005920122EB7876059B091A4002923200A6
S1133AC0AB1D1A43944612780090D2B20792942206
S1133AD052051A431278AF1CD0B2039098204005C7
S1133AE003431878C0B206907E480C58310039431D
S1133AF001910978C9B20491002A35D0079A002AA5
S1133B000ED01023624628001370FFF7BDFF236B0D
S1133B10002B52D06A4601211078626B98474CE022
S1133B20069A002A20D0402228001A70FFF7ACFF22
S1133B3023002C331B78002B03D198225205174302
S1133B403B70236B002B04D06A4680211078626B93
S1133B509847E37D002B04D0200080211830FFF724
S1133B60AEF80A23237028E02800FFF78DFF059B99
S1133B70002B24D0EB1C1E4310233370029B002B1C
S1133B8010D0EB785B07DA0F002B48DB019B1A702F
S1133B90236B002B04D06A4604211078626B98478B
S1133BA02B790AE0082323702C342378002B04D1CA
S1133BB098235B051F43029B3B7009B0F0BD029B39
S1133BC0002BDED1049B012B54D1EB78049A1342D1
S1133BD030D0019B029A1A702B7923002C331B7866
S1133BE0002B07D1039B002B04D198235B051F43B3
S1133BF0039B3B70236B002B04D06A46082110788A
S1133C00626B9847A37D002B04D020000821183054
S1133C10FFF755F800236360E3602375CDE71023B5
S1133C20019A1370236B002B04D06A46022110788A
S1133C30626B98476368002B50D028008022E368A9
S1133C400C3052051978024310780028FCD02971F1
S1133C500133E3606368013B63606368002BACD1AC
S1133C60E3602375236B002BA7D06A4610211078DC
S1133C70626B53E72B79A268DBB2002A2CD022694D
S1133C801370236901332361A368013BA360A36814
S1133C90002B00D091E7039B002B11D123002C3380
S1133CA01B78002B04D198235B051F43039B3B70B7
S1133CB0E37D002B04D0200020211830FEF7FFFF05
S1133CC0002363752361236B002B00D175E76A46DB
S1133CD020211078626B21E7072343E7062341E79D
S1133CE000600000A40200208422520502431278DE
S1133CF00300D0B2002A0CD08020013340050343D6
S1133D001878013843425841024B40421840024B54
S1133D10C0187047808D5B0080841E0010B50D4B69
S1133D20821D13431A780400D3B2002A0FD0012B4A
S1133D3007D1FFF7D9FF084B08341C432378D84038
S1133D4010BD0020022BFBD1044B1868F8E704488F
S1133D50F6E7C0460000081100009010A8020020F9
S1133D60006CDC020C4A811D0A4312780300D0B2B5
S1133D70012A04D002280BD000280BD170478022DE
S1133D800133520513431B78002BF7D10220F5E7CA
S1133D900320F3E70520F1E70000081102009C234B
S1133DA018325B05134380221A700022064B03432A
S1133DB01A70064B063018430378DAB2002BFBD195
S1133DC0034B10000B60704700000813000008113B
S1133DD0006CDC02F8B504000D0016001F00FFF7AC
S1133DE0C1FF012823D1002D25D08023621C5B054F
S1133DF013431D70842302225B0523431A7022009F
S1133E00104B083213437200D2B21A7040220E4B88
S1133E100E48234306341A7004432378012BFCD143
S1133E20002D0DD10A4B334100203B60F8BD022820
S1133E30DBD1012DD9D139002000FFF7AFFFD4E742
S1133E40044BF0E700009010000008130000081174
S1133E5080841E0000127A0010B50A4C0300226808
S1133E600120002A0CD0084A7F301A4310700748FA
S1133E70063303431A78022AFCD1002023680B601E
S1133E8010BDC046A802002000000813000008115D
S1133E909C23C9015B050343C9B21970704794237D
S1133EA049015B050343C9B21970704770B50668D0
S1133EB00C0030002049FCF74DFE1F49050030007E
S1133EC0FCF7CEFE0E00E12130000901FCF742FEB2
S1133ED0E121E08009013000FCF7C2FE0E003C2124
S1133EE03000FCF737FE3C2120813000FCF7B8FE9F
S1133EF06E22A1720321114BFF3223802388954245
S1133F000AD80F499B0700D10E490123CA5CAA4273
S1133F100CD36380A58070BD01339BB223800B401A
S1133F20AD1A5A425A416E32FF32E7E70133AD1AF5
S1133F300D2BEBD1EEE7C04680510100B207000023
S1133F402C600000056000000188114A03008A18F3
S1133F50002030B5812A17D85A88541E0B2C13D848
S1133F609C88651E1E2D0FD8DD88172D0CD81D8941
S1133F703B2D09D89B7A3B2B06D88B0705D0054BE4
S1133F809B5CA3424041C0B230BD034BF8E7C0463E
S1133F904EF8FFFF2C6000000560000070B5134D63
S1133FA0838802885B196E25FF35554344885B1965
S1133FB095085B190E4D6600755B5B19920710D06E
S1133FC00B600A680B4BC4885343827A00899B18A0
S1133FD0E122120162439B183C2242439B180B606E
S1133FE070BD022CECD8013BEAE7C0464A05F5FF58
S1133FF012600000805101008023084A1B021268ED
S11340009A4209D1A02310305B0518430368002BA2
S113401002D10133FF3303607047C046A802002079
S11340200100802210B500230124520510311143F0
S11340300C600B6090214360490504601C3001430F
S11340400B608821490501430B6084214905014324
S113405010430B60036010BD0200902314325B0513
S1134060134300221A604260103201601A607047E4
S113407003680B6070470000104B820070B5D55880
S1134080802204000E4B92051A602800FFF7C8FF37
S11340902800FFF7B1FF0B4B1F261A5D0123180000
S11340A009493240095DC025314090408B40074AA0
S11340B06D00505153511060136070BD3C6000009E
S11340C03C80845E406000004160000000E100E04C
S11340D0F7B50027114B8000C55808000E00019762
S11340E0FFF732FF0400B84216D001A93000FFF7F1
S11340F055FF3800FEF7FEFF0100802000028142D8
S113410006D0FCF727FD01000198FCF723FD019080
S113411028000199FFF7A0FF2000FEBD3C600000CD
S1134120F7B50025124B8000C4580E00200001A9E9
S11341300195FFF79DFF2800FEF7DCFF05008020B6
S1134140000285420ED00B4B290004341C43FCF7BB
S113415001FD2768019C29004443B8B2FCF7FAFC2E
S113416024180194310001A8FFF7A0FEF7BDC04652
S11341703C60000000007810F0B50027184B800068
S113418085B0C55808000E0001920397FFF7DCFEC6
S11341900400B84203D10024200005B0F0BD300073
S11341A003A9FFF7FBFE38002E68FEF7A3FF01000A
S11341B080200002814206D0FCF7CCFC0100039869
S11341C0FCF7C8FC0390039BB342E4D3AB608823A1
S11341D01C355B051D43019B9A002A60DCE7C04641
S11341E03C600000044B8000C25888231C325B05ED
S11341F013438900196070473C600000054B800040
S1134200C258882314325B0513431868431E98412F
S1134210C0B270473C6000006B46E0221B78D202BB
S11342201B041340024A09070B43801803607047BC
S113423044100000084B8200D258902310B503327A
S11342405B0513431B78002B02D000F013F910BD5B
S113425000F078F9FBE7C046446000009C210C4B59
S11342600C4A8000C3588258002003324905114388
S113427010B518710870942149050A4310701A7F0B
S1134280824203D020331800FEF707FD10BDC0465C
S1134290B002002044600000F7B50C0005001B4B81
S11342A03022002187002000FE58FCF711FA280074
S11342B0FEF72CFFFEF7ECFE2060300000F0E5FA7C
S11342C0200000212030FEF7E1FCF31C0193902331
S11342D0F21C5B051343102230001A70032100F016
S11342E012FB3000002100F033FB094BFC50094B5A
S11342F05A5D1F231A401E3B9340074A13609823BC
S1134300019A5B05134340221A70F7BD4460000014
S1134310B00200204860000000E100E0F8B50D4E56
S113432085000D4BAF590400E85800F0AEFA380090
S11343302030FEF7C2FC094B20001A5D1F231A40EF
S11343401E3B9340064AD367FEF7E5FE0023AB51BC
S1134350F8BDC046B0020020446000004860000080
S113436004E100E00A4B800070B5C658094B0C000C
S1134370C358150030001A68096800F08DFA2860E7
S1134380A37930006279217900F0CFFA70BDC0467C
S113439044600000B0020020F7B51E4A83009C5818
S11343A0050022790420002A16D11B4A9E580029B0
S11343B003D0280001AAFFF7D5FF9823002140204D
S11343C0F21C5B0513431970187027698F4204D1DE
S11343D02800FFF743FF0020FEBD0123237194232F
S11343E05B05A16133431B780720002BF4D0A3683D
S11343F0191E02D019780133A360B1712369013BFE
S11344002361A3690133A3619C235B051A438023C1
S11344101370E0E7B002002044600000F8B5134FC9
S1134420134C85002C59ED590127069E2777A2606D
S11344302661E3606661FFF7AFFF002814D1200016
S113444007992030FEF76CFC0328F8D000280BD025
S11344509C23002203355B052B4322711A7094239D
S113446003205B051D432A70F8BDC046446000006C
S1134470B002002010B51E4B8200D35819790029D0
S113448034D01C4951585A69002A11D09C22520533
S11344900A431278002A0BD08A79DC68D2B2002C45
S11344A003D02270DA680132DA605A69013A5A613B
S11344B01A69002A12D0942252050A431278002A5B
S11344C00CD09A68141E02D0147801329A608C7150
S11344D01A69013A1A619A6901329A611A69002AC1
S11344E004D15B69002B01D1FFF7B8FE10BDC046B3
S11344F0B002002044600000104A8000815800226D
S11345000F4B10B5C3580331581CC2779C2040058B
S11345100843DA621A701A835A629A621A63027042
S11345209420400501430A701A0038321278002A98
S113453003D00121181DFEF7C2FB10BD446000002A
S1134540B002002070B5254B8200D358591CC97F96
S1134550002942D022495258D96A002917DB9421F4
S1134560490511430978002911D0D969CCB2596A97
S1134570002905D0DD6A002D02DD0C780131596275
S11345809471D96A0139D962596B01315963D96A75
S1134590002905DA9421D41C4905214300240C7018
S11345A0196B002911DD9C21490511430978002963
S11345B00BD09279996AD2B2002903D00A709A6A10
S11345C001329A621A6B013A1A63DA6A002A04DC2D
S11345D01B6B002B01DCFFF78FFF70BDB0020020C6
S11345E044600000012903D0032909D0002070474A
S11345F094235B0518430078431E9841C0B2F6E744
S11346008423F6E7431C034849011843C9B20170E7
S11346107047C04600008812831C9420490140055D
S11346201843C9B201707047831C034889011843B9
S1134630C9B201707047C04600000813831C8C2067
S1134640C90040051843C9B201707047F7B50400AA
S1134650364EE31C1E43337808780D00DBB207287E
S113466060D8FCF763FA04192B0E192B2B45304B39
S113467001341C43002323703378012BFCD1002028
S1134680FEBD012BFCD12A4B01341C434023237073
S11346903378042BFCD1F2E70021012801D0042057
S11346A00231337898423FD12000FFF7ABFF042159
S11346B0204A13698B43136130BFE0E70227B842F5
S11346C007D100270B79BB4203D020004979FFF7BB
S11346D0ABFF194B01341C4327703378154ADBB206
S11346E00193019B01330193042311690B43E2E716
S11346F00421114B621C1A4311706A78A11C0B43EC
S11347001A70002A06D1AB78002B03D02000E97878
S1134710FFF782FFAB79002BDFD02000E979FFF7A8
S11347208DFFDAE70120ABE70320A9E70000301092
S11347300000881200ED00E000001010C31C0248C5
S113474018430078C0B270470000301001231430C1
S11347508B40012A04D18022120510430360704764
S11347608022D204DB431043F8E701238B40002A64
S113477001D0436070478360FCE70023C2220370CA
S113478043708370C37043718371C3710372427247
S11347908372C37270470000F0B5002487B002939F
S11347A0FA230126270025009B005343039004911C
S11347B0009301947642AB000593194BAA009B1811
S11347C059880498A140FCF7C5F9009B009AC31AC4
S11347D0824200D9131AB3421FD2114AA900525C73
S11347E027000192002B02D00135322D13D1013460
S11347F0032C01D0002B0DD1029A002A00D01360A3
S11348003F220199BB0111400B43039ADBB2537061
S113481007B0F0BD00251E00CDE73300E4E7C04635
S113482062600000942302305B0503431B78002B75
S113483005D088235B051843042303707047802345
S11348401B0518433023F8E7942210B55205841C45
S1134850224311780300CAB2022001290DD180211C
S1134860C90421438024CD300870E400033319784F
S1134870490908001040114200D110BD013C002C30
S113488001D0C046F3E70920F7E70423C3700023EF
S11348908370437003717047F0B5130B89B0012620
S11348A0039308230124764202939B1907900491F1
S11348B00592019302270025631E069321000598A3
S11348C07943FCF747F9049B834207D31B1AB3428D
S11348D004D21E00069B03900295019301357F00CC
S11348E0092D01D0002EE9D1082C02D00134002E6C
S11348F0E0D1019B029A1B0103981343079ADBB290
S1134900537009B0F0BD842310B50224C21C5B05AA
S113491013434A0022401A70902300195B05184380
S11349201023C9001940017010BD10B58C24033048
S11349306405C9000443C9B2217088219200490565
S11349400143D2B20A70802252051043037010BD95
S11349508023012202305B0503430A401A708C2332
S11349605B05184308238900194001707047000053
S113497004FEFF1F1B5B306D1B5B343B34336D1B2C
S11349805B313B33376D0D53616E69747920636815
S113499065636B206661696C6564211B5B306D0A1D
S11349A0001B5B306D1B5B343B34316D1B5B313B57
S11349B033376D0D496E76616C6964207375707060
S11349C06C7920766F6C74616765205B25645D206B
S11349D06D56211B5B306D0A004D65617375726500
S11349E06D656E74206E756D6265722C2052544331
S11349F02D3E5453522C205254432D3E5450522C8D
S1134A0000205254432D3E5453522C205254432DD3
S1134A103E5450522C202320436F6E666967204514
S1134A2072726F72730025752C2025642C20256406
S1134A302C002025642C2025642C2025640A000DDC
S1134A400A094D4D41383435315120526561642095
S1134A5041626F727465642E2044657669636520D3
S1134A6044697361626C6564203A28000D0A09493F
S1134A704E4132313920526561642041626F727453
S1134A8065642E20446576696365204469736162B8
S1134A906C6564203A28000D0A0A424D45363830C8
S1134AA020526561642041626F727465642E2044F3
S1134AB065766963652044697361626C6564203A54
S1134AC028000D0A09424D58303535616363656C21
S1134AD020526561642041626F727465642E2044C3
S1134AE065766963652044697361626C6564203A24
S1134AF02820000D0A09424D583035356779726F08
S1134B0020526561642041626F727465642E204492
S1134B1065766963652044697361626C6564203AF3
S1134B202820000D0A0920424D583035356D616743
S1134B3020526561642041626F727465642E204462
S1134B4065766963652044697361626C6564203AC3
S1134B502820000D0A094D41473331313020526578
S1134B6061642041626F727465642E2044657669C5
S1134B7063652044697361626C6564203A2820008F
S1134B800D0A094C33474432304820526561642091
S1134B9041626F727465642E204465766963652092
S1134BA044697361626C6564203A2820000D0A0927
S1134BB04C505332354820526561642041626F7213
S1134BC07465642E20446576696365204469736165
S1134BD0626C6564203A2820000D0A09544353335B
S1134BE03437323520526561642041626F727465D6
S1134BF0642E204465766963652044697361626C40
S1134C006564203A2820000D0A09534934373035A9
S1134C1020526561642041626F727465642E204481
S1134C2065766963652044697361626C6564203AE2
S1134C302820000D0A0948444331303030205265A1
S1134C4061642041626F727465642E2044657669E4
S1134C5063652044697361626C6564203A282000AE
S1134C600D0A0953493730323120526561642041BD
S1134C70626F727465642E204465766963652044AE
S1134C80697361626C6564203A2820000D0A094347
S1134C90435338313120526561642041626F72742C
S1134CA065642E2044657669636520446973616296
S1134CB06C6564203A2820000D0A09414D473838B4
S1134CC0333420526561642041626F727465642ECE
S1134CD0204465766963652044697361626C656428
S1134CE0203A2820000D0A09415337323632205227
S1134CF06561642041626F727465642E2044657638
S1134D006963652044697361626C6564203A282094
S1134D10000D0A094153373236332052656164204D
S1134D2041626F727465642E204465766963652000
S1134D3044697361626C6564203A2820000D094956
S1134D406E76616C6964207761727053656E736FFF
S1134D5072446576696365205B25645D20706173C8
S1134D6073656420746F2072657065617452656741
S1134D70697374657252656164466F7244657669DD
S1134D806365416E64416464726573732E0A000D39
S1134D900A094144584C333632205265616420413B
S1134DA0626F727465642E2044657669636520447D
S1134DB0697361626C6564203A28000D09506F774D
S1134DC06572757020636F6D6D616E6420666169D4
S1134DD06C65642E20424D5830353520646973610A
S1134DE0626C6564200A000D09506F776572646F08
S1134DF0776E20636F6D6D616E64206162616E64B5
S1134E006F6E65642E20424D5830353520646973C9
S1134E1061626C65640A000D09506F776572646F96
S1134E20776E20636F6D6D616E64206162616E6484
S1134E306F6E65642E204C334744323048206469D9
S1134E407361626C65640A000D09506F7765726462
S1134E506F776E20636F6D6D616E64206162616E49
S1134E60646F6E65642E20544353333437323520D7
S1134E7064697361626C65640A000A0A0A0D426F10
S1134E806F74696E6720576172702C20696E2033CD
S1134E902E2E2E2000322E2E2E2000312E2E2E0AC3
S1134EA00D000A5246494420496E697469616C696F
S1134EB07365640A000D0A0A0A0A5B202A090909B3
S1134EC0095709610972097009287265762E2062F2
S1134ED0290909092A205D0A000D5B202009090916
S1134EE00920202020202043616D62726964676577
S1134EF0202F2050687973636F6D706C616220207D
S1134F00200909090920205D0A0A000D095375705A
S1134F10706C793D25646D562C0944656661756C29
S1134F20742054617267657420526561642052650F
S1134F306769737465723D3078253032780A000DE4
S1134F40094932433D25646B622F732C0953504940
S1134F503D25646B622F732C09554152543D2564E1
S1134F606B622F732C094932432050756C6C2D559C
S1134F70703D25640A0A000D0953494D2D3E5343E3
S1134F804743363D30782530327809095254432D51
S1134F903E53523D30782530327809095254432D1E
S1134FA03E5453523D3078253032780A000D094D75
S1134FB043475F43313D3078253032780909094D44
S1134FC043475F43323D30782530327809094D43F9
S1134FD0475F533D3078253032780A000D094D4340
S1134FE0475F53433D3078253032780909094D43F2
S1134FF0475F4D433D30782530327809094F53439C
S11350005F43523D3078253032780A000D09534D04
S1135010435F504D50524F543D307825303278091B
S11350200909534D435F504D4354524C3D3078254C
S113503030327809095343422D3E5343523D307870
S1135040253032780A000D09504D435F52454753CD
S1135050433D30782530327809090953494D5F536F
S1135060434743343D307825303278095254432D38
S11350703E5450523D3078253032780A0A000D09EA
S113508025647320696E205254432048616E646C19
S1135090657220746F2D646174652C092564205039
S11350A06D6772204572726F72730A000D53656CDE
S11350B06563743A0A000D2D202761273A20736531
S11350C0742064656661756C742073656E736F72A9
S11350D02E0A000D2D202762273A2073657420497B
S11350E03243206261756420726174652E0A000D7A
S11350F02D202763273A207365742053504920627A
S113510061756420726174652E0A000D2D20276478
S1135110273A2073657420554152542062617564A6
S113512020726174652E0A000D2D202765273A2010
S11351307365742064656661756C74207265676953
S11351407374657220616464726573732E0A000D52
S11351502D202766273A2077726974652062797456
S11351606520746F2073656E736F722E0A000D2DA7
S1135170202767273A207365742064656661756C1F
S113518074205353535550504C592E0A000D2D2062
S11351902768273A20706F776572646F776E206393
S11351A06F6D6D616E6420746F20616C6C2073652B
S11351B06E736F72732E0A000D2D202769273A2013
S11351C07365742070756C6C2D757020656E6162EA
S11351D06C652076616C75652E0A000D2D20276A9A
S11351E0273A20726570656174207265616420726B
S11351F0656720307825303278206F6E2073656EB5
S1135200736F72202325642E0A000D2D20276B272F
S11352103A20736C65657020756E74696C207265D4
S11352207365742E0A000D2D20276C273A207365B0
S11352306E6420726570656174656420627974655A
S1135240206F6E204932432E0A000D2D20276D2732
S11352503A2073656E6420726570656174656420BC
S113526062797465206F6E205350492E0A000D2D0B
S113527020276E273A20656E61626C652053535374
S11352805550504C592E0A000D2D20276F273A20D7
S113529064697361626C65205353535550504C5983
S11352A02E0A000D2D202770273A20737769746326
S11352B06820746F20564C5052206D6F64652E0A1E
S11352C0000D2D202772273A2073776974636820B4
S11352D0746F2052554E206D6F64652E0A000D2D9B
S11352E0202773273A20706F7765722075702061CC
S11352F06C6C2073656E736F72732E0A000D2D2013
S11353002774273A2064756D702070726F6365731B
S1135310736F722073746174652E0A000D2D20273B
S113532075273A207365742049324320616464729E
S11353306573732E0A000D2D202778273A2064699F
S11353407361626C652053574420616E64207370EE
S1135350696E20666F7220313020736563732E0A84
S1135360000D2D20277A273A2064756D7020616C1A
S11353706C2073656E736F727320646174612E0A9E
S1135380000D2D20272D273A2052656164203130ED
S11353903030207261772063757272656E74207686
S11353A0616C7565732066726F6D20746865204941
S11353B04E413231392E0A000D202723273A20523C
S11353C0464944204D656E752E0A000D456E746580
S11353D0722073656C656374696F6E3E20000D09FD
S11353E053656C6563743A0A000D092D2027312733
S11353F0204144584C33363209090928307830307A
S11354002D2D30783244293A20312E3656202D2D38
S113541020332E35562028636F6D70696C656420C7
S11354206F757429200A000D092D20273227204288
S11354304D58303535616363656C2009092830782F
S113544030302D2D30783346293A20322E345620F0
S11354502D2D20332E36562028636F6D70696C65B0
S113546064206F757429200A000D092D2027332725
S113547020424D583035356779726F090909283053
S11354807830302D2D30783346293A20322E345658
S1135490202D2D20332E36562028636F6D70696CB5
S11354A06564206F757429200A000D092D202734A6
S11354B02720424D583035356D6167090909283078
S11354C07834302D2D30783532293A20322E345626
S11354D0202D2D20332E36562028636F6D70696C75
S11354E06564206F757429200A000D092D20273565
S11354F027204D4D41383435315109090928307878
S113550030302D2D30783331293A20312E3935562B
S1135510202D2D20332E36562028636F6D70696C34
S11355206564206F757429200A000D092D20273623
S113553027204C505332354809090928307830382F
S11355402D2D30783234293A20312E3756202D2D06
S113555020332E36562028636F6D70696C65642085
S11355606F757429200A000D092D20273727204D37
S113557041473331313009090928307830302D2D35
S113558030783131293A20312E393556202D2D20CD
S1135590332E36562028636F6D70696C6564206FF6
S11355A0757429200A000D092D2027382720484426
S11355B0433130303009090928307830302D2D300E
S11355C0783146293A20332E3056202D2D20352E81
S11355D030562028636F6D70696C6564206F757434
S11355E029200A000D092D20273927205349373057
S11355F0323109090928307830302D2D3078304681
S1135600293A20312E3956202D2D20332E3656207E
S113561028636F6D70696C6564206F757429200A46
S1135620000D092D20276127204C33474432304890
S113563009090928307830462D2D30783339293A34
S113564020322E3256202D2D20332E36562028631C
S11356506F6D70696C6564206F757429200A000D84
S1135660092D2027622720424D4536383009090983
S113567028307841412D2D30784638293A20312E72
S11356803656202D2D20332E36562028636F6D700C
S1135690696C6564206F757429200A000D092D203A
S11356A027642720544353333437323509090928F2
S11356B0307830302D2D30783144293A20322E374D
S11356C056202D2D20332E33562028636F6D70699C
S11356D06C6564206F757429200A000D092D20273C
S11356E0652720534934373035090909286E2F615D
S11356F0293A2020202020202020322E3756202D09
S11357002D20352E35562028636F6D70696C6564C5
S1135710206F757429200A000D092D202766272083
S113572050414E31333236090909286E2F61292040
S113573028636F6D70696C6564206F757429200A25
S1135740000D092D202767272043435338313109A1
S1135750090928307830302D2D30784646293A20F2
S1135760312E3856202D2D20332E36562028636FA7
S11357706D70696C6564206F757429200A000D09C9
S11357802D2027682720414D47383833340909092B
S113579028307830302D2D3F293A203F56202D2DAA
S11357A0203F562028636F6D70696C6564206F75A7
S11357B07429200A000D092D20276A272041533718
S11357C032363209090928307830302D2D307832BC
S11357D042293A20322E3756202D2D20332E36568C
S11357E02028636F6D70696C6564206F757429205F
S11357F00A000D092D20276B2720415337323633F9
S113580009090928307830302D2D30783242293A70
S113581020322E3756202D2D20332E365620286345
S11358206F6D70696C6564206F757429200A000DB2
S1135830092D20276C2720494E41323139090909A5
S113584028307830302D2D30783035293A203356B1
S1135850202D2D20352E35562028636F6D70696CF0
S11358606564206F757429200A000D09456E7465FE
S1135870722073656C656374696F6E3E20000D0958
S1135880496E76616C69642073656C656374696FD5
S11358906E202725632720210A000D0A0953657409
S11358A02049324320626175642072617465206905
S11358B06E206B6270732028652E672E2C20273093
S11358C030303127293E20000D0A09493243206235
S11358D061756420726174652073657420746F202F
S11358E02564206B622F73000D0A095365742053DD
S11358F050492062617564207261746520696E206C
S11359006B6270732028652E672E2C202730303070
S11359103127293E20000D0A095350492062617540
S11359206420726174653A202564206B622F7300D1
S11359300D0A0953657420554152542062617564FF
S1135940207261746520696E206B62707320286513
S11359502E672E2C20273030303127293E20000D91
S11359600A0955415254206261756420726174655C
S11359703A202564206B622F73000D0A09456E746A
S1135980657220322D6E7962626C6520726567697A
S113599073746572206865782061646472657373DA
S11359A02028652E672E2C2027336527293E2000CA
S11359B00D0A09456E7465726564205B3078253084
S11359C032785D2E0A0A000D0A09456E746572204C
S11359D049324320616464722E2028652E672E2C80
S11359E0202730662729206F72202739392720661F
S11359F06F7220535049203E20000D0A09456E74F1
S1135A0065726564205B3078253032785D2E0A003B
S1135A100D0A09456E746572206865782062797490
S1135A206520746F2073656E642028652E672E2CA4
S1135A302027306627293E20000D0A0953504920AB
S1135A407772697465206661696C65642E204144CF
S1135A50584C3336322044697361626C6564000DBE
S1135A600A09493243207772697465206661696C5A
S1135A7065642C206572726F722025642E0A0A00F8
S1135A800D0A094F76657272696465205353535544
S1135A9050504C5920696E206D562028652E672E73
S1135AA02C20273138303027293E20000D0A094F99
S1135AB076657272696465205353535550504C593E
S1135AC02073657420746F202564206D56000D0AC0
S1135AD0094E4F54453A20466972737420706F77AB
S1135AE065722073656E736F727320616E642065D6
S1135AF06E61626C65204932430A0A000D0A09444A
S1135B00656661756C742070756C6C757020656E5B
S1135B1061626C652076616C756520696E206B69C5
S1135B206C6F4F686D732028652E672E2C202730EC
S1135B3030303027293E20000D0A09493263507560
S1135B406C6C757056616C75652073657420746F28
S1135B502025640A000D0A094175746F2D696E636E
S1135B6072656D656E742066726F6D206261736517
S1135B702061646472657373203078253032783F15
S1135B80205B273027207C202731275D3E20000D15
S1135B900A094368756E6B207265616473207065D1
S1135BA07220616464726573732028652E672E2CDD
S1135BB020273127293E20000D0A094368617474A7
S1135BC0793F205B273027207C202731275D3E202A
S1135BD0000D0A09496E7465722D6F7065726174E7
S1135BE0696F6E207370696E2064656C61792069D9
S1135BF06E206D696C6C697365636F6E64732028C5
S1135C00652E672E2C20273030303027293E200087
S1135C100D0A0952657065746974696F6E7320703A
S1135C20657220616464726573732028652E672E23
S1135C302C20273030303027293E20000D0A094D12
S1135C406178696D756D20766F6C74616765206627
S1135C506F72206164617074697665207375707009
S1135C606C792028652E672E2C2027303030302781
S1135C70293E20000D0A095265666572656E6365EA
S1135C80206279746520666F7220636F6D70617233
S1135C9069736F6E732028652E672E2C2027336559
S1135CA027293E20000D0A09526570656174696EEA
S1135CB0672064657625642040203078253032786A
S1135CC02C20726570733D25642C2070756C6C3DBE
S1135CD025642C2064656C61793D25646D733A0AF2
S1135CE00A000D0A09536C656570696E6720756E4C
S1135CF074696C2073797374656D2072657365744F
S1135D002E2E2E0A000D0A094279746520746F2024
S1135D1073656E642028652E672E2C202746302755
S1135D20293E20000D0A0952657065746974696F13
S1135D306E732028652E672E2C20273030303027B4
S1135D40293E20000D0A0953656E64696E6720259B
S1135D50642072657065746974696F6E73206F6610
S1135D60205B3078253032785D206F6E20493243D5
S1135D702C2069326350756C6C7570456E61626C71
S1135D80653D25642C205353535550504C593D25A3
S1135D90646D560A0A000D0A0953656E64696E67DC
S1135DA02025642072657065746974696F6E732050
S1135DB06F66205B3078253032785D206F6E20531B
S1135DC050492C205353535550504C593D25646D24
S1135DD0560A0A000D0A0943616E6E6F74207365DA
S1135DE0742049324320616464726573733A2046B7
S1135DF069727374207365742074686520646566C1
S1135E0061756C7420493243206465766963652E3C
S1135E100A000D0A095370696E6E696E6720666F19
S1135E2072203130207365636F6E64732E2E2E0AD8
S1135E30000D09446F6E652E0A0A000D0A09456EAD
S1135E4061626C696E67204932432070696E732EFB
S1135E502E2E0A000D0A09486578206F7220636FA0
S1135E606E766572746564206D6F64653F202827C3
S1135E706827206F7220276327293E20000D0A0916
S1135E80536574207468652074696D652064656C5D
S1135E906179206265747765656E20656163682049
S1135EA072756E20696E206D696C6C697365636FC1
S1135EB06E64732028652E672E2C202731323334EC
S1135EC027293E20000D0A0944656C61792062652A
S1135ED0747765656E2072656164206261746368BD
S1135EE065732073657420746F202564206D696C5C
S1135EF06C697365636F6E64732E0A0A000D0A0978
S1135F00312E20536176652055494420666F7220F6
S1135F107461673A20000D0A09322E2054657374A7
S1135F20205549443A20000A536176656420554956
S1135F30443A200030782530327820004E6F2063B8
S1135F406172642070726573656E74000A322E206B
S1135F505361766564205549443A20000A322E2064
S1135F605465737420554944202831732064656C4A
S1135F706179293A20000D0A09436F7272656374CE
S1135F8020636172642070726573656E74000D0A1B
S1135F9009496E636F727265637420636172642071
S1135FA070726573656E74000D095061796C6F6170
S1135FB06473206D616B6520726F636B657473200D
S1135FC06D6F7265207468616E206A7573742066E3
S1135FD0697265776F726B732E005465726D696EAA
S1135FE0616C0052545400534547474552003031C8
S1135FF03233343536373839414243444546898A49
S11360000060064008001F1D1F1E1F1E1F1F1E1FAD
S11360101E1F000000001F003B005A00780097007C
