S02B00002F73747564656E74732F726C6A33362F576172702D6669726D776172652F6275696C642F6B73646BDD
S1130000000600201D050000450500004505000010
S113001000000000000000000000000000000000DC
S11300200000000000000000000000004505000082
S11300300000000000000000450500004505000028
S11300404505000045050000450500004505000084
S11300504505000045050000450500004505000074
S11300607F280000450500008928000045050000A0
S11300704505000045050000450500004505000054
S11300804505000045050000450500004505000044
S11300909D0E0000B50E000045050000450500005A
S11300A04505000045050000450500004505000024
S11300B04505000045050000450500004505000014
S1130400FFFFFFFFFFFFFFFFFFFFFFFFFE3DFFFFBB
S11304100448054B10B5834203D0044B002B00D095
S1130420984710BDA8FFFF1FA8FFFF1F0000000092
S113043006480749091A8B10C90FC91810B5491085
S113044003D0044B002B00D0984710BDA8FFFF1F1A
S1130450A8FFFF1F0000000010B5074C2378002BF5
S113046009D1FFF7D5FF054B002B02D0044800E06B
S113047000BF0123237010BDA8FFFF1F0000000070
S1130480C45D0000054B10B5002B03D0044905489A
S113049000E000BFFFF7CCFF10BDC0460000000025
S11304A0ACFFFF1FC45D0000402292029A1A9246DC
S11304B07047C046154B002B00D1114B9D46FFF7EA
S11304C0F3FF00218B460F461148124A121A00F01E
S11304D0FFF80C4B002B00D098470B4B002B00D09F
S11304E098470020002104000D000B4800F02EF86E
S11304F000F064F82000290000F0E2FF00F034F876
S113050000000800000000000000000000060020B9
S1130510A8FFFF1FB40200209505000072B606482C
S11305200649074A02600A6002F0B4F902F0F4F9DD
S113053062B6FFF7BFFF000080E100E080E200E068
S1130540FFFFFFFF004800474505000010B501000C
S113055000230022002000F019FA10BD014B186896
S11305607047C04600FEFF1F084B10B50400002B67
S113057002D0002100F078FA054B1868836A002B3A
S113058000D09847200000F05BFCC046690A0000D8
S11305906C46000070B5074D074C641BA41005D0D1
S11305A0013CA300EB589847002CF9D105F010FC4E
S11305B070BDC046E85D0000EC5D000070B50C4DF8
S11305C00C4E761BB61005D0002408CD0134984794
S11305D0A642FAD105F0F6FB074D084E761BB6107D
S11305E005D0002408CD01349847A642FAD170BD45
S11305F0E45D0000E45D0000E45D0000E85D0000EF
S113060010B5034B0100186800F00CF910BDC0468A
S113061000FEFF1F10B5034B0100186800F0ACF892
S113062010BDC04600FEFF1FF0B5C64600B50F2A38
S113063043D90B00032603431E400C000300002E85
S113064040D11500103D2D09AC462D01A84680442B
S113065000E03B00676825685F60E7681D60DF6055
S11306601F00A56810379D6010344345F1D16546DD
S11306700F230C2401352D01491913404519144247
S113068023D08C59AC5104369C1B032CF9D8032479
S1130690043B9B0801339B002240ED18C918561EE9
S11306A0002A07D0002300E02300CA5C5C1CEA5443
S11306B09E42F9D104BC9046F0BD0500561E002AA6
S11306C0F0D1F7E7561E0500ECE71A00F6E7C0463E
S11306D0F0B5050083074AD0541E002A44D0CEB298
S11306E00300032202E00135013C3DD301332E70A7
S11306F01342F8D1032C2FD9FF220A4015021543C7
S11307002A0415430F2C35D92700103F3F093E0119
S1130710B4461E001A001036664415605560956094
S1130720D5601032B242F8D10F260C2201373F01B6
S11307302640DB193700224217D03E1FB608B4000A
S1130740A4461A001C1D644420C2A242FCD1032406
S11307500136B6009B193C40002C05D0C9B21C19C7
S1130760197001339C42FBD1F0BD3400F4E714004E
S11307700300BFE72700E0E770B50500002915D0A6
S11307800C1F2368002B27DB280000F0CBF9244B37
S11307901A68002A05D0A2420CD921686018824246
S11307A024D0626028001C6000F0BEF970BDA34232
S11307B003D81A005368002BF9D111685018A042CD
S11307C01BD027D821686018834207D06360546027
S11307D0280000F0A9F9E9E7E418D5E718685B6890
S11307E084466144216063605460F1E71068526894
S11307F08446614421606260D4E720680918501877
S113080011608342E4D118685B68844661441160D6
S11308105360DDE70C2328002B6000F085F9C5E761
S1130820C4FFFF1FF8B50323CD1C9D430835060004
S11308300C2D2AD20C25A94229D8300000F072F9D7
S11308402A4F3A68002A0AD013685B1B04D441E09B
S113085023685B1B1FD522005468002CF8D17B68E9
S1130860002B3DD02900300000F042F8431C2AD070
S11308700323C41C9C43A04205D0211A300000F07D
S113088037F8431C1FD0256010E0002DD3DA0C2369
S113089000203360F8BD0B2B05D86368A2421DD03D
S11308A0536003E014002360E4182560300000F076
S11308B03BF9200007220B30231D9043C21AE9D0D4
S11308C01B1AA350E6E70C233000336000F02CF928
S11308D00020DFE70B2BE5D8140053683B60E5E705
S11308E00021300000F004F87860BBE7C4FFFF1F6C
S11308F0002370B5064C05000800236000F0A2FA3E
S1130900431C00D070BD2368002BFBD02B60F9E79B
S1130910B002002003000A7801311A700133002A62
S1130920F9D1704710B5830727D00378002B26D060
S11309300300032102E01A78002A1CD001330B4281
S1130940F9D119680F4A104C8A188A4322420FD1F0
S1130950043319680B4A8A188A43224208D10433A3
S11309601968084A8A188A432242F1D000E0013308
S11309701A78002AFBD1181A10BD0300E1E7002001
S1130980FAE7C046FFFEFEFE80808080F0B5464652
S11309904F46D646C0B51F002F4B82B01C680500D9
S11309A00E009046002C2DD063681F2B50DC002DC8
S11309B01CD08822A0589146002834D0783282581E
S11309C094469A0091468144424649460A60012170
S11309D0624699400A43944680228A466146520000
S11309E081504946803A8F50022D16D000205A1C5F
S11309F002339B0062601E5102B01CBC90469946B3
S1130A00A246F0BD154C1C60154B002BCCD01B68C6
S1130A1001938823019AE250C6E7554684328158EF
S1130A200D438550E2E70F4B002B11D0842040008A
S1130A30FFF7E6FD00280BD08022002352008350EC
S1130A40043283504B460022E05094466368B8E772
S1130A5001204042D0E7C04658000020CCFFFF1FD1
S1130A600000000001060000F0B5DE464E46454693
S1130A7057462B4B88469B46E0B51E6883B00190D1
S1130A80002E45D088237568F7586C1E40D4013574
S1130A90AD00783375199A460AE0002F05D03B0063
S1130AA0A20080339B58434505D0043D013C2FD31D
S1130AB04346002BF1D173682A68013BA34222D03C
S1130AC000232B60002AF0D073689946002F18D0B9
S1130AD001235146A3407958194212D08220400084
S1130AE03858A1007958009018420ED101989047C7
S1130AF05B4672681B684A4501D1B342D5D01E00DB
S1130B00BEE79047F4E77460DCE708009047EFE73E
S1130B1003B03CBC90469946A246AB46F0BDC046E5
S1130B20580000207047C0467047C04602B4714662
S1130B3049084900095C49008E4402BC7047C0461C
S1130B4003B47146490840004900095E49008E44D7
S1130B5003BC7047002243088B4274D303098B42C1
S1130B605FD3030A8B4244D3030B8B4228D3030C79
S1130B708B420DD3FF22090212BA030C8B4202D31B
S1130B801212090265D0030B8B4219D300E0090A43
S1130B90C30B8B4201D3CB03C01A5241830B8B424C
S1130BA001D38B03C01A5241430B8B4201D34B0335
S1130BB0C01A5241030B8B4201D30B03C01A52419A
S1130BC0C30A8B4201D3CB02C01A5241830A8B421F
S1130BD001D38B02C01A5241430A8B4201D34B0208
S1130BE0C01A5241030A8B4201D30B02C01A52416C
S1130BF0CDD2C3098B4201D3CB01C01A5241830920
S1130C008B4201D38B01C01A524143098B4201D359
S1130C104B01C01A524103098B4201D30B01C01A84
S1130C205241C3088B4201D3CB00C01A52418308FE
S1130C308B4201D38B00C01A524143088B4201D32B
S1130C404B00C01A5241411A00D20146524110468B
S1130C507047FFE701B5002000F0F0F802BDC04680
S1130C600029F7D076E7704703460B437FD4002270
S1130C7043088B4274D303098B425FD3030A8B422C
S1130C8044D3030B8B4228D3030C8B420DD3FF2296
S1130C90090212BA030C8B4202D31212090265D064
S1130CA0030B8B4219D300E0090AC30B8B4201D317
S1130CB0CB03C01A5241830B8B4201D38B03C01A5E
S1130CC05241430B8B4201D34B03C01A5241030BD5
S1130CD08B4201D30B03C01A5241C30A8B4201D386
S1130CE0CB02C01A5241830A8B4201D38B02C01A31
S1130CF05241430A8B4201D34B02C01A5241030AA8
S1130D008B4201D30B02C01A5241CDD2C3098B428C
S1130D1001D3CB01C01A524183098B4201D38B0109
S1130D20C01A524143098B4201D34B01C01A5241AC
S1130D3003098B4201D30B01C01A5241C3088B42F1
S1130D4001D3CB00C01A524183088B4201D38B00DC
S1130D50C01A524143088B4201D34B00C01A52417E
S1130D60411A00D201465241104670475DE0CA0F55
S1130D7000D04942031000D34042534000229C4615
S1130D8003098B422DD3030A8B4212D3FC2289011F
S1130D9012BA030A8B420CD3890192118B4208D3F5
S1130DA0890192118B4204D389013AD0921100E057
S1130DB08909C3098B4201D3CB01C01A524183096B
S1130DC08B4201D38B01C01A524143098B4201D398
S1130DD04B01C01A524103098B4201D30B01C01AC3
S1130DE05241C3088B4201D3CB00C01A524183083D
S1130DF08B4201D38B00C01A5241D9D243088B4293
S1130E0001D34B00C01A5241411A00D20146634635
S1130E1052415B10104601D34042002B00D5494299
S1130E20704763465B1000D3404201B5002000F0D8
S1130E3005F802BD0029F8D016E770477047C04690
S1130E40FEE7C0460A4A0300116810B5002901D123
S1130E500849116010680849C3188B4206D9FFF786
S1130E607DFB0C2303600120404210BD1360FCE7AE
S1130E705C000020B8020020B80200208378022021
S1130E809842804140427047437A0020013B012B45
S1130E9003D90B78013001330B70704710B5002073
S1130EA003F02AF8002803D00021080003F018F802
S1130EB010BD0000024A1368013313607047C04636
S1130EC06000002037B5002001F09EFFC0230024FD
S1130ED00D4A9B0013600D4A0D4D13600D4A20000E
S1130EE013600D4B2C716C71AC711A68FA239B0062
S1130EF053430A492B6003F04DF82900200001AA4E
S1130F0003F0AEF837BDC046189014541C90145426
S1130F10B800002000A0145484FEFF1F88000020A5
S1130F2010B58024002003F077F80A4B64001C609D
S1130F30094B07201C60094B1C6002F0FFF90620D6
S1130F4002F0FCF9200002F0F9F9002001F061FF41
S1130F5010BDC046189014541C90145400A014548E
S1130F6010B5002001F05AFF8023054A9B0013604E
S1130F70044A00200449136002F0BCFA10BDC046C4
S1130F800CA0145410A014546400002010B50020C8
S1130F9002F0ECFA80238220074A5B001360074AC0
S1130FA04000136002F0CAF90420FF3002F0C6F9D1
S1130FB0002001F038FF10BD0CA0145410A01454EC
S1130FC00023364A70B51360354A01201360354A50
S1130FD00133FF331360344A34491360344A1360D5
S1130FE0344A1360344A1360344A1360344A136039
S1130FF0344A14782500054004424DD00B60324930
S113100032480B60002101603148016031490B60B6
S113101031490B6031490B6031490B6031490B6038
S113102031490B601378DB0703D50220FF3002F04F
S113103077F9092002F082F90C2002F07FF90520EB
S113104002F07CF9082002F079F90620FF3002F062
S113105075F90E20FF3002F071F98320400002F090
S11310606DF90820FF3002F069F90C20FF3002F01E
S113107057F98220400002F061F90420FF3002F0A9
S11310805DF9072002F05AF9062002F057F9802092
S1131090400002F053F970BD0D60B0E70C90145499
S11310A010901454149014541890145404A014540C
S11310B01C901454209014542490145430901454BC
S11310C000A0145480FEFF1F08A014540CA0145454
S11310D010A0145414A0145418A014541CA0145494
S11310E028A014542CA0145434A0145410B509206E
S11310F002F024F910BD10B50C2002F01FF910BD48
S1131100384B10B598423DD027D8374B984253D02E
S113111015D8C83B984244D009D8C83B984231D02E
S1131120324B984206D1052002F0FAF82DE0304BFC
S113113098423DD02F49002001F095FB2CE09623E6
S11311401B01984243D02C4B984247D02B4B9842DA
S1131150F0D1052002F0E4F831E0294B98422BD07D
S113116007D8C83B98421CD0264B984220D0264B27
S1131170D7E7C8231B01984229D0244B98422DD08D
S1131180234BE4E7052002F0D9F8082002F0D6F852
S11311900620FF3002F0D2F81E4B186801F07BFCE9
S11311A010BD052002F0CAF8082002F0B9F8EFE7F4
S11311B0052002F0B5F8F7E7052002F0BFF8082093
S11311C002F0BCF80620FF3002F0AAF8E4E705209C
S11311D002F0B4F8082002F0A3F8F3E7052002F0C7
S11311E09FF8F7E7280A0000980800006C07000041
S11311F03408000070460000C4090000FC08000028
S1131200B80B0000540B00008C0A0000E40C000032
S11312101C0C000088FEFF1F10B5FFF771FF0920AA
S113122002F07EF80C2002F089F88320400002F0DE
S113123085F810BD10B5FFF763FF092002F07EF8B2
S11312400C2002F06DF88320400002F069F810BD14
S1131250AF220C4B10B5C3189BB29200934202D834
S1131260FFF7DAFF10BD084BC3189BB2934202D8B4
S1131270FFF7E0FFF6E702000449002001F0F3FA6B
S1131280F0E7C046F8F8FFFFD8F5FFFF9D460000E1
S113129010B5FFF72BFFFFF72EFF8320400002F06D
S11312A03FF8024B186801F0F6FB10BD88FEFF1FE3
S11312B010B50400002901D0FFF782FE00210220AE
S11312C000F08EFE2100042000F08AFE10BD10B54F
S11312D0012420000021FFF7EBFF21003C20FFF751
S11312E0E7FFF6E7F7B51500002815D017490020E9
S11312F001F0A6F8164C206801F0CDFB154900203A
S113130001F09EF8206801F0C6FB0020124901F0AC
S113131097F8206801F0BFFB002427000F4E104906
S11313203368726800200092220001F09CFA32684F
S1131330002073680B49009701F095FA002D02DD37
S1131340280001F0A8FB0134E8E7C046D5460000B8
S11313507CFEFF1FFD4600009A56000000D00340AB
S1131360224700002E47000003003038092805D921
S11313701A00613A052A02D8573B180070471A0030
S1131380413A0020052AF9D8373BF6E770B501F059
S113139072F8040001F06FF8FF26050020003040C9
S11313A0FFF7E2FF040028003040FFF7DDFF2401CF
S11313B02018C0B270BD70B501F05DF8060001F0F0
S11313C05AF8050001F057F8040001F054F8FF2220
S11313D0FA23642116401540303E14409B00303DF2
S11313E04D4373435A39303C4C435B1910401B192D
S11313F03038181870BD000070B50C00160088B0A5
S11314000CAA157806A908800A4A05A805700A4D91
S113141012682D684A6004AA167001930090230094
S11314200020029502F052F9002800D0022008B0F2
S113143070BDC04674FEFF1F78FEFF1FF7B56A46F5
S1131440CB1DDB08DB00D31A02AF9D460C00050060
S1131450FFF738FDFA2300219B0002AE01930094AC
S113146033002A00080002F057FE0400FFF758FD7D
S1131470002C00D00424BD462000F2BD10B500208D
S1131480014900F0DDFF10BDB74A000010B5094C5A
S11314900020210000F0D4FF2100002000F0D0FF44
S11314A00549002000F0CCFF0449002000F0C8FFEB
S11314B010BDC046E34A0000134B0000444B00003B
S11314C0F0B5B1B01DAC072200212000FFF700F9F0
S11314D0FA4A0127249203220DAB27930FAB2893DA
S11314E011AB2A9315AB2C9317AB2D9319AB2E93F9
S11314F01BAB13AE09A900202F9324AB1A712691BC
S11315000C9327702B96299401F076FC380001F097
S113151073FC8021EA4B0902196001F0DBFA002315
S113152000971A001900180000F0ACFFE5490020EC
S113153000F086FFC82001F0AEFAE349002000F075
S11315407FFFC82001F0A7FAE049002000F078FFEF
S1131550C82001F0A0FA3B00DD4A0221DD4801F079
S1131560DDFA3900380001F0E5FA002002F002FC4F
S11315707C210025D84B2800219304AB5B181D80E7
S1131580023104AB5B1821A91D70229702F01EFCE6
S11315903A00290009A8FFF79BF83A201D9B04A9EB
S11315A01193A2880A87A27909180A7003220638BF
S11315B004A909180A701393A28804A9B280A27915
S11315C00A38B271052232700D93A28802260A8568
S11315D0A27909180A70242104AA521816700F93CC
S11315E0A28804A90A86A279083009180A7004227C
S11315F0063804A909180A701593A2881C3004A996
S113160009180A80A279801904A909180A70082205
S1131610063804A909180A701793A2880C3004A983
S113162009180A80A279801904A909180A700921E5
S1131630063804AA121811701993A3880C3004AA4E
S113164012181380A379801904AA121813700A239C
S1131650063804AA121813705C2204AB9B181D7080
S11316600CAA3B0027A801F027FC2900300000F059
S1131670B7FC9A499A4801F039FEFFF7A1FC08200B
S1131680FF3001F04DFEC82001F005FA0820FF30BC
S113169001F054FEC82001F0FEF90820FF3001F0EB
S11316A03FFEC82001F0F7F90820FF3001F046FEA4
S11316B0C82001F0F0F90820FF3001F031FEC82005
S11316C001F0E9F90820FF3001F038FEFFF7E0FDF2
S11316D000F03EFD80232F001B02069505938149EF
S11316E0002000F0ADFE804C206801F0D4F97F4961
S11316F0002000F0A5FE206801F0CDF93B00069A19
S11317007B49002001F0AFF8206801F0C4F9794D5D
S1131710794E7A492A6805983368096801900091DE
S11317200020774901F09FF8206801F0B4F9754B67
S11317307549764A0020D2584B690968009174496A
S113174001F091F8206801F0A6F9724900200A78A6
S11317504B788979D2B2DBB200916F4901F083F8FA
S1131760206801F098F96B4B6C491A7A1B7E097852
S1131770D2B2DBB200910020694901F074F820680C
S113178001F089F9674B68491A785B780969D2B224
S1131790DBB200910020654901F065F8206801F092
S11317A07AF9634B59489A785749624BD2B2C35875
S11317B0496800200091604901F055F8206801F063
S11317C06AF95E4B5E491A6809AB1B78002001F088
S11317D04AF8206801F05FF95A49002000F030FE11
S11317E0206801F058F95849002000F029FE2068CB
S11317F001F051F95549002000F022FE206801F063
S11318004AF95349002000F01BFE206801F043F917
S11318105049002000F014FE206801F03CF94E49C4
S1131820002000F00DFE206801F035F94B4900203E
S113183000F006FE206801F02EF94949002000F06E
S1131840FFFD206801F027F94649002000F0F8FD6B
S1131850206801F020F94449002000F0F1FD2068DF
S113186001F019F903233A004049002000F0FBFF7E
S1131870206801F010F93E49002000F0E1FD2068E5
S113188001F009F93B49002000F0DAFD206801F07D
S113189002F93949002000F0D3FD206801F0FBF87B
S11318A03649002000F0CCFD206801F0F4F83449FA
S11318B0002000F0C5FD206864E0C046890E0000E9
S11318C0A4020020764B0000914B0000974B0000CF
S11318D064FEFF1F90FFFF1FE0070100A0FEFF1F33
S11318E090FEFF1F9E4B00007CFEFF1FC24B0000BA
S11318F0F44B000074FEFF1F84FEFF1F8CFEFF1FCD
S1131900284C00003C10000000D00340007004404C
S1131910604C000000400640964C00000050064019
S1131920C54C000000E0074000ED00E0F54C00006D
S113193000D00740341000002F4D0000600000204C
S1131940674D0000954D00009F4D0000BC4D000008
S1131950D84D0000F44D0000114E0000384E000038
S1131960574E0000764E0000A14E0000C44E000009
S1131970F34E00000F4F0000334F0000574F00009C
S1131980714F000001F087F8CA49002000F058FDAB
S1131990206801F080F8C849002000F051FD20685B
S11319A001F079F8C549002000F04AFD206801F0F3
S11319B072F8C349002000F043FD206801F06BF881
S11319C0C049002000F03CFD206801F064F8BE49E5
S11319D0002000F035FD206801F05DF8BB490020CF
S11319E000F02EFD206801F056F8B949002000F0FF
S11319F027FD206801F04FF8B649002000F020FDD3
S1131A00206801F048F800F036FDFF23020007903B
S1131A101A407A2A07DC602A07DC0A2A00D189E204
S1131A202D2A00D15BE6AC49BDE0100061381928CD
S1131A30F9D8FFF785F81A00A900BC00CC00D7003C
S1131A40E10020012B013301A901E901EF01EF01BC
S1131A50320236023902F8FF3E02410254FE4802C5
S1131A60F8FFF8FF4E02F8FF57029C49002000F0EF
S1131A70E7FC9B49002000F0E3FC206801F00BF830
S1131A809849002000F0DCFC9749002000F0D8FCC5
S1131A909649002000F0D4FC206800F0FCFF944933
S1131AA0002000F0CDFC206800F0F5FF91490020F3
S1131AB000F0C6FC206800F0EEFF8F49002000F023
S1131AC0BFFC206800F0E7FF8C49002000F0B8FC60
S1131AD0206800F0E0FF8A49002000F0B1FC206893
S1131AE000F0D9FF8749002000F0AAFC206800F02C
S1131AF0D2FF8549002000F0A3FC206800F0CBFF52
S1131B008249002000F09CFC206800F0C4FF80495A
S1131B10002000F095FC206800F0BDFF7D49002006
S1131B2000F08EFC206800F0B6FF7B49002000F036
S1131B3087FC206800F0AFFF7849002000F080FCAB
S1131B40206800F0A8FF7649002000F079FC2068A6
S1131B5000F0A1FF7349002000F072FC206800F03F
S1131B609AFF7149002000F06BFC206800F093FF9D
S1131B706E49002000F064FC206800F08CFF00F047
S1131B807AFCFF2202404EE76949002000F058FC2D
S1131B90FFF711FC28602A68664B9A4201D1664B14
S1131BA02B602A686549002000F05DFE97E56449D2
S1131BB0002000F045FCFFF7FEFB306032685D4B0F
S1131BC09A4201D15C4B336032685E49EBE75E496F
S1131BD0002000F035FCFFF7EEFB5C4B5C4918601D
S1131BE01A68E0E75B49002000F02AFCFFF7CEFB0F
S1131BF0594907000200D6E75849002000F020FCAC
S1131C00FFF7C4FB564E020031000400002000F030
S1131C102AFE5449002000F013FCFFF7B7FB04AB85
S1131C20020031001876002000F01DFE4E49992C68
S1131C3000D149E12B6806981FAE20933480FFF74A
S1131C4007FB6B46187DFFF78BF9484B0BAA1B6803
S1131C501770029301230AA9009100203100019317
S1131C6001F034FD021E03D00020414900F0FBFDC9
S1131C70FFF78CF933E53F49002000F0E1FBFFF763
S1131C809AFB83B21A003C4906938CE73B49002037
S1131C9000F0D6FB0120FFF7F9FB20E538490020CE
S1131CA000F0CEFBFFF787FB83B21A00354905939A
S1131CB079E7C0468C4F0000AA4F0000C74F0000D0
S1131CC0E64F0000055000001F5000004A5000007D
S1131CD06A500000A150000054550000B4500000A8
S1131CE0BF500000FD5000003F5100008051000033
S1131CF0C0510000005200003D5200007C52000020
S1131D00BA520000F752000035530000725300002D
S1131D10B1530000EE530000175400005454000067
S1131D208B540000C85400000555000040550000C5
S1131D30705500000F270000102700009E5500007A
S1131D40BE550000EC550000065600008CFEFF1F37
S1131D503556000050560000865600009D5600007F
S1131D60D0560000E65600000F57000078FEFF1F13
S1131D70355700005657000082570000A457000052
S1131D80D25700000E5800003A006B49002000F0C2
S1131D906AFD00F070FB6949002000F051FB00F07F
S1131DA06AFB6749002000F04BFB00F064FB6549C7
S1131DB0002000F045FBFFF7FEFA63490500002010
S1131DC000F03EFBFFF7F7FA04006049002000F042
S1131DD037FBFFF7F0FA5E49002000F031FBFFF714
S1131DE0D5FA059B03225B49019302953B000094BD
S1131DF0002000F038FD6B46187DFFF7B1F8564916
S1131E00002000F01DFB33E75449002000F018FBCC
S1131E10FFF75DFA5249002000F012FB6C2551498E
S1131E20002000F00DFBFFF7B1FA04AB5B1918704A
S1131E304D49002000F004FBFFF7BDFA6B461E7FFE
S1131E4004AB5B1904001B78069AAE4215D10192CB
S1131E50059A464900920200002000F004FD002586
S1131E60A54200DB3BE41FAB1A7800230121FF20CD
S1131E700093FFF7C1FA0135F2E700923C490200F2
S1131E80002000F0F0FC0025A54200DB27E401213E
S1131E901FA8FFF7D3FA0135F6E70698FFF7D8F93C
S1131EA01DE4FFF7F5F91AE40021022000F098F888
S1131EB015E400210820F9E72949002000F0C0FAC0
S1131EC0FFF7DCFA0BE42B49002000F0B9FAFFF726
S1131ED006FC2949002000F0B3FA284800F0DBFD95
S1131EE02749F1E72749002000F0AAFA6B46187D3C
S1131EF0FFF736F82449002000F0A2FA00F0BBFAFC
S1131F0022490500002000F09BFAFFF754FA86B23C
S1131F1032001F49002000F0A6FC206800F0BBFD41
S1131F20E9B268394D42694132000120059BC9B2CA
S1131F30FFF7D8F91749C7E72B5800006558000088
S1131F408E580000A7580000E658000012590000FF
S1131F504A5900007B590000BE470000B8590000F0
S1131F60A4570000DB590000FA5900001A5A000077
S1131F706C5A0000AA5A0000E85A0000102700001A
S1131F80075B0000115B00002A5B0000535B00004C
S1131F909B5B0000D35B00001FB5040001A9002077
S1131FA001F03CFF694601A801F076FE009B6846FB
S1131FB01C1901A9009401F0F7FD012201A90020D8
S1131FC001F058FF1FBD00000022034B1A6080225D
S1131FD0024B1206DA67704700A01C5804E100E0C7
S1131FE070B50D000A2408281CD8FEF79FFD051DB6
S1131FF02A3F54676C6F5C0001F0F4F80524012853
S113200010D0FFF7E1FF2800FFF7C6FF002108000A
S113201000F074FF01210400002000F08BFD002C6F
S113202022D10024200070BD01F0DCF80624012830
S1132030F8D0FFF7C9FF2800FFF7AEFF0021012009
S1132040E6E701F0CFF808240128EBD000F0F0FD1A
S1132050002803D00121002000F06CFD00210220A3
S113206000F04CFF0028DCD00924DBE701F0BAF8CB
S113207007240028D6D0FFF7A7FF2800FFF78CFF1E
S11320800021032000F03AFF040001F0ABF8012125
S11320900028C4D1C1E7FFF797FF2800FFF77CFFB2
S11320A000210420EEE70021082000F027FF041E91
S11320B0DAD10121080000F03DFDB3E7002105203D
S11320C000F01CFFD0E700210620F9E700210720DB
S11320D0F6E70000F0B51500002285B003939042A6
S11320E028D14900CAB2174C1749227265720025DB
S11320F02600280025736573A57300F0B4FB134F05
S11321000836320039000C34280000F0ACFB220001
S11321103900280000F0A7FBFA239B000193039BDE
S11321203200009329002300280001F0F5FF280065
S113213005B0F0BD0128D6D18022490052420A439D
S1132140D2B2D0E7C0000020055C00001D5C000096
S1132150C0231D4A9B0013B513601C4A85241360D9
S11321601B4A640013601B4A1360FEF7ABFE802217
S1132170194B52001A60200001F0D2F8642000F0DC
S11321808AFC200001F0DAF8642000F084FC2000CE
S113219001F0C6F8642000F07EFC1049002000F035
S11321A04FF90523002207210120FFF793FF0C4973
S11321B000200A7B4B7B897BD2B20091DBB20949B8
S11321C000F051FB002016BD1C9014542CA0145494
S11321D000A014541490145428A014543A5C000021
S11321E0C00000204B5C00000369C268934201D820
S11321F080681B18013B981A7047F7B58368C46858
S113220001931F1B436805000E001819A418974278
S113221007D83A00FEF708FA019B6868E41A22001E
S1132220F119FEF701FAEC60F7BD0023F7B50600DB
S11322301700C568019100933369B4689D421FD2A9
S1132240013B5B1B641BBC4200D93C009C4200D98F
S11322501C007368220058190199FEF7E5F9009BE8
S11322602D191B190093019B3F1B1B190193B36884
S1132270AB4200D10025F560002FDDD10098FEBDF2
S11322801B19DDE7022310B50F4C104A236163616B
S11322900F4BA261E361C823A2640E4A2362E26485
S11322A000230422A3626362E362A3656365E365BA
S11322B022650949E01DFEF72DFB20000749FEF7C2
S11322C029FB2023A37110BDD40000206F5C000003
S11322D0500100204C010020785C00007C5C000070
S11322E0F0B5274B85B01B780E0002900192002BAD
S11322F001D1FFF7C7FF1823029A00255343204A50
S1132300D3185A6D9C6D0392944219D91B6D019D8B
S11323101B1B9D4200D91D001827029B30005F4300
S1132320174B2A00DF19FB6C76191919FEF77CF993
S1132330019B64195B1B01933B6DA34200D10024F4
S1132340039B019F1B1B9F4200D91F00002F0CD031
S11323501823029A30005343094AED19D318D96C53
S11323603A000919FEF760F9E419002D05D0182385
S1132370029A03485343C0188465280005B0F0BD91
S1132380D400002010B50B00EFF31084012181F379
S113239010881900FFF7A4FF84F3108810BD000013
S11323A0F8B516001822451C55434243164B0F003E
S11323B05D199B18DC6A012C10D0022C1BD0002C58
S11323C01FD12800FFF710FF864205D832003900DC
S11323D02800FFF712FF34002000F8BD2800FFF7A3
S11323E003FF3400864200D904002200390028008B
S11323F0FFF703FFF0E732002800FFF716FF0400A1
S1132400EAE70024E8E7C046D4000020F8B50B4B07
S113241004001B780E001700002B01D1FFF732FFD8
S1132420EFF31085012181F310883A003100200078
S1132430FFF7B6FF85F31088F8BDC046D40000202E
S113244070B5050008000C00FEF76CFA21000200CC
S11324502800FFF7DBFF70BD13B56B46DC1D0122BE
S113246021000020FFF78EFF012801D1207816BD3E
S113247001204042FBE710B5FFF7EEFF0028FBDB2D
S113248010BD0000F7B5164C0193237805000F002A
S11324901600002B01D1FFF7F5FE2369AB421CD9CE
S11324A0EFF31082012181F31088002D0CD0182342
S11324B0691C59436B43675061184E600199E318D6
S11324C0196200219962596218204543089B6419D6
S11324D0E36282F310880020FEBD01204042FBE746
S11324E0D4000020826810B504004068531C834265
S11324F005D820688154A360E3680133E360A268CF
S113250063689A4209D121682069FFF77FFFA368B5
S1132510984203D001235B42E36010BD0023A36013
S1132520FBE70000F0B5050017000800012685B0A0
S11325300A9C02910093B84219D2009A01969642DD
S113254000D2019201230B9A1A4003920B9A1A4269
S113255002D1002C10D10024EB680126002B4BDBA8
S1132560009B012B1FD9013B00937E43F8E7390000
S1132570FEF7F0FA0136DEE70B9B20269B0704D515
S1132580009B1036002B00D0103E019BA342E3D2E7
S113259031002800FFF7A6FFEB68013C002BDBDBD2
S11325A0002CF2D1D7E731000298FEF7D3FA874224
S11325B0DBD902983100FEF753FB114B0291195CF1
S11325C02800FFF78FFFEB68002B05DB3900300094
S11325D0FEF7C0FABE4211D2039B002B0CD0002C94
S11325E00AD0019BA34207D220212800FFF77AFFDB
S11325F0EB68013C002BF2DA05B0F0BD0600D8E729
S1132600835C0000F0B59FB00EAB099340230A939E
S113261000230E00150007900B930D900C93317856
S11326200136002907D10C9B0393002B00DD09E13F
S11326300C981FB0F0BD252900D0B3E00027082274
S1132640042006E0302B0DD1022300E001231F43B8
S11326500E003378711C2D2BF8D0F3D8232B10D017
S11326602B2B0CD000240A213378721C180030382C
S1132670092808D84C43303C16001C19F4E70743DA
S1132680E6E71743E4E7002103912E2B0ED1160051
S11326900A203278711C1300303B092B06D8039BA7
S11326A00E004343303BD3180393F2E704233178FD
S11326B00A0001369A43682A01D13178F8E778296B
S11326C009D86F290BD8632967D017D8252969D071
S11326D0582900D195E00C9B002BA0DAA3E77039B0
S11326E008000829F7D8FEF72BFAA500F6FFF6FF35
S11326F09400F6FF8300F6FFF6FF8C006429EAD10C
S11327002B681A1D1B682A60DA1798180493012392
S113271050400593092849DC039B059A069393428C
S113272000D20692002C05D0049B002B01DB7B0712
S113273000D5013C02231F4202D0039B002B05D08D
S113274001231F4202D1002C36D100240C9B059397
S1132750002BC0DB049B002B3ADA2D215B4204934F
S113276009A8FFF7BFFE0C9B002BB4DB03233B40FF
S1132770022B05D1039B002B02D1002C2CD1002469
S11327800C9B0593002BA6DB0A22039B049901975B
S1132790009409A8FFF7C6FE9DE72B6819681A1D67
S11327A02A60C9B209A8FFF79DFE94E70A21FEF743
S11327B05BFA059B0133ACE7069BA342C6D22021FA
S11327C009A8FFF78FFE0C9B013C002BBBDABDE789
S11327D07B07C8D52B21C3E7069BA342D0D2302167
S11327E009A8FFF77FFE0C9B013C002BC5DAC7E765
S11327F00A22296801970B1D2B60039B009409682A
S1132800C7E7296801970B1D2B60039B00941022D6
S1132810F5E72B681A1D2A601C6821780134002909
S113282000D158E709A8FFF75DFE0C9B0393002B2A
S1132830F3DA50E729680B1D2B600023019308335A
S11328400093E4E70B9A002A03D007980EA9FFF738
S1132850DDFD0C9B03930B9B0493049A039B94460A
S113286063440C93E4E60EB403B503AB02CB01AAB4
S11328700193FFF7C7FE02B008BC03B0184710B5B8
S1132880002000F069FD10BD10B5002001F050FBE0
S113289010BD0000082310B5164A9178194202D0E1
S11328A091780B439370882100222220124B490116
S11328B05A501249124C0870802012494002585054
S11328C01968114801401960195910480840C0217D
S11328D089040143195180210D4B1A7219767F39ED
S11328E01A7059700B490A700C3299791142FCD153
S11328F010BDC04600D007400070044000E007400F
S11329000410000044100000FFFFF3FFFFFFFFF07E
S113291000400640005006401249134810B5814259
S113292005D00022114B9B089B009A420FD1104BFB
S1132930104A9960002310491048521A9A420AD149
S113294000210F4B0F4AD21A013A08D210BD845805
S11329508C500432E9E7CC5CC4540133EEE71970BF
S11329600133F1E700000000000000000000000057
S113297000ED00E0945F0000EC5D000000FEFF1F2E
S1132980A8FFFF1FB402002003004170002018704C
S113299058609860704710B5437804000120FF2BFD
S11329A008D000F051FA63780133DBB2637000F0B1
S11329B03FFA002010BD0020704770B504000D00E0
S11329C000F042FAE1682943E16000F031FA0020A6
S11329D070BD000000220A4B9A641A0040329A63C8
S11329E01A0030329A621A0020329A611A001032A8
S11329F09A60044A1360044B9B60DB607047C046D6
S1132A001C020020180200206C0200200022024B4D
S1132A101A60186880B270470C007C5070B5437817
S1132A2004000D00002B0BD0002500F00DFA637894
S1132A30013BDBB26370257000F0FAF9280070BD29
S1132A4002200029FBD02378002B17D0FFF7DEFFEC
S1132A506368A268834204D8C01A824206D3032062
S1132A60EDE7C01A80235B02C018F6E700F0ECF92A
S1132A700023237000F0DCF90220E0E74B1CEED0C9
S1132A8000F0E2F90123237000F0D2F9FFF7BEFF52
S1132A90A5606060E3E770B50500FFF7B7FF802627
S1132AA004007602FFF7B2FF0300844203D8031B3D
S1132AB09D42F7D270BD301BC318F9E710B5012849
S1132AC001D100F0C1F910BD10B5012801D100F009
S1132AD0AFF910BD10B5FFF77DFF01230020084AB0
S1132AE008491360084A094C1060086004212160F9
S1132AF0074C216007490B6007490860136010BD4B
S1132B003880045000008450000004500000045138
S1132B100400045104000C500000045310B5044C8C
S1132B20206021710020A2602373637310BDC0462E
S1132B307C0200200422F0B587B005AC3B4E019026
S1132B4002912070617033790092834226D9002269
S1132B50337B1500737301230092A3700393334FE7
S1132B603B7BAB421DD8009B002B02D0029B012B68
S1132B7048D10120FFF7A2FF0C20019B00255843F8
S1132B803368181800F0C2F8019B01207371022603
S1132B90FFF79AFFA6703B7BAB421AD8009807B0A8
S1132BA0F0BDBA68AB009B58002B0FD01A7903997B
S1132BB00A420BD020001A6899689047002805D073
S1132BC0029B7D73002B1BD0052300930135EDB2CE
S1132BD0C5E7BA68AB009B58002B0ED01A79324275
S1132BE00BD020001A6899689047002805D0029BF2
S1132BF07D73002B17D0062300930135EDB2CAE78D
S1132C00052300930023A370013DEDB2FF2DC5D031
S1132C10064BAA009B68D358002BF5D020001A68F5
S1132C2099689047F0E706230093B7E77C020020F9
S1132C30014B58797047C0467C02002013B504004C
S1132C40002021780190022920D0032922D00129D3
S1132C5025D1227901AB144800F03AFF002814D1A1
S1132C60A3795A1E9341114ADB01137063785A1EEB
S1132C7093410F4A5B001370A2780E4B1A70E278EE
S1132C800D4B1A7062790D4B1A7016BD0100227932
S1132C9001ABE0E701A9044800F05CFFDEE701A90D
S1132CA0014800F0F9FED9E7004006401840865379
S1132CB0004086500040065001400650184016500F
S1132CC0074A43099B009B18F822C00512051040CF
S1132CD0184380235B051843002303607047C046F4
S1132CE028800440F821084A43099B009B180905E1
S1132CF0C2050A4013438022520513431F22104089
S1132D001E3A82401A60704728800440072373B536
S1132D10009300230400104D1A000121280001F043
S1132D20F9F82000FFF78AFF637A28000093002354
S1132D30217A1A0001F0EEF8E379084A9B04136043
S1132D40074BA17A1D68280000F020FF2800E17AD3
S1132D5000F023FF002076BD0070044000700C5981
S1132D60E45C000010B5054800F056FE044B1968F9
S1132D70C9B20131FDF7EEFE10BDC0460040064069
S1132D8044801C5E10B5FFF7EDFF10BD10B505487B
S1132D9000F042FE044B1968C9B20131FDF7DAFEB6
S1132DA010BDC046004006404480145810B5FFF7DB
S1132DB0EDFF10BD0B4B1B68DBB2022B0CD0032BB9
S1132DC00DD00020834206D1074A106880221202E7
S1132DD0904200D018007047044B1868FBE7FA20B3
S1132DE08000F8E700700C59A4020020A80200201B
S1132DF010B5FFF7DFFF10BD10B5024B185CFFF7ED
S1132E0071FF10BD935C000010B57620FFF76AFFD8
S1132E1010BD10B57620FFF753FF10BD10B5662026
S1132E20FFF760FF10BD10B56620FFF749FF10BD26
S1132E30044A1368002B04D0013B1360002B00D11B
S1132E4062B670478C02002072B6024A13680133DE
S1132E50136070478C02002010B5064C064801F040
S1132E60EBFA042801D1002010BD013C002CF5D15F
S1132E700320F9E7EA03000000E0074010B50B4B1C
S1132E800B490A78002A07D0084C0A4801F0D4FA02
S1132E90012806D1002003E0013B002BF1D10320DF
S1132EA010BD013C002CF0D1F9E7C046EA03000054
S1132EB002D0075100E00740F7B507000E001500E7
S1132EC001200193002F15D0002913D0FFF7F6FD40
S1132ED0094C102200212000FDF7FAFB276026711F
S1132EE0002D03D0019BA560237363730120FFF7BA
S1132EF0EBFD0020FEBDC04690020020F0B5B14CB1
S1132F008DB002900391237B01206373FFF7D6FDFC
S1132F102379029A934206D80120FFF7D5FD0227B0
S1132F2038000DB0F0BD029A23689200D35809AC62
S1132F301D780193039B2A002372029B2370019B3B
S1132F40636002239A430492012A01D0052D0AD119
S1132F5001219D4801F0C4F9002807D10120FFF7A1
S1132F60B3FD0127DCE70321072DF2D80123002755
S1132F7063723C000593934E337BA3422AD801200D
S1132F80FFF7A2FD914800F06BFD049B012B4AD191
S1132F900138022835D9039B012B00D00DE1062707
S1132FA00120FFF78BFD0023012609AD6B72013C64
S1132FB0E4B2FF2C00D1AFE0824BA2009B68D3584F
S1132FC0002BF4D01A793242F1D028001A6899689B
S1132FD09047ECE7B268A3009B58002B0ED01A79F7
S1132FE005990A420AD01A68996809A890470028E6
S1132FF004D0039B04277473012BC0D10134E4B2C1
S1133000B9E7FFF7D3FE724B9842C4D8FFF7AAFE84
S1133010704EB042BFD8FFF7B9FEB042BBD8FFF73D
S1133020B1FEB042B7D8039B012B00D0C1E00A2DFA
S113303000D9BCE02800FDF779FD060A0D1E879A29
S11330407B822F737800002207AB1A702DE00322D5
S113305007ABFAE75C4801F0EFF9012808D000213A
S1133060594801F04DF9FFF709FF071E00D057E753
S1133070012207ABE9E7544801F0DEF9042808D03F
S11330800221514801F03CF9FFF7E6FE071E00D08B
S113309046E7042207ABD8E7072207AB1A80019A58
S11330A0D2789A70019A1279DA702B00083B022BBD
S11330B006D8019B06AA5B799372019B9B79D37214
S11330C0019B5B78002B0AD0012D08D9019B0222B9
S11330D09978414B00294DD019690A431A613A483D
S11330E007A901F031F9002800D00327002D45D1AC
S11330F0FFF7C4FE071E00D012E700270120FFF7E8
S1133100DDFC029B2F4D0024AB73022309AE7372C6
S113311001932B7BA34236D80120FFF7D5FCFFE6B1
S1133120082207ABFF321A80BFE72C4A07ABFAE745
S1133130022207AB1A700222FF329A80B5E70222FC
S113314007AB1A70264AF8E7022207AB1A70013A55
S11331501D489A8001F070F90128A6D000211A4870
S113316001F0CEF8FFF78AFE071E9ED0D8E60522AE
S113317007AB6AE7196991431961B0E7012DBDD125
S1133180FFF76AFEB6E7AA68A3009B58002B0BD092
S11331901A7901990A4207D030001A689968904751
S11331A0002801D005276C730134E4B2B1E703278A
S11331B0B6E6002F00D13AE7F2E6002F00D0EFE6A2
S11331C0EDE6C0469002002000E0074000400640C3
S11331D040420F0080841E0000ED00E00703000061
S11331E00102000010B5064801F026F90300002092
S11331F0012B03D00B30042B00D10A3810BDC0467C
S113320000E00740F7B5FF2403681D4A1E0A264064
S11332101C40B3009F581B4A05009B583000019383
S1133220FFF7EAFD00222100380001F00DF9019BAF
S1133230A400E41884232A795B05234352001A600E
S113324080236A795B0523431A609023AA795B057E
S1133250234312011A600C4B1C43EB791B042360BB
S1133260EB79002B0AD0094B9B57002B06D01F2269
S113327013401E3A9A401300054A1360F7BDC04636
S1133280E85C0000F05C000000001818F85C000026
S113329000E100E0F8B5FF2405000368114A180AAC
S11332A020401C4083009F580F4A9E58FFF7A4FDFE
S11332B038002100012201F0C7F86A6821003800B3
S11332C001F0D1F888232A7AA400A4195B052343CA
S11332D092001A6098235B051C436B7A9B01236060
S11332E0F8BDC046E85C0000F05C000070B50C005E
S11332F0002807D1002C0FD170BD05000835FFF759
S113330081FF280003680133F7D1F3E7250020008B
S11333100C35FFF7BFFF2C0023680133F6D1EBE730
S1133320FF22030A044913409B005958012310400B
S113333083404B607047C046E85C0000FF22030AEC
S1133340044913409B0059580123104083408B606B
S11333507047C046E85C0000084B8200D2589423B2
S113336010B502325B0513431B78002B02D000F02A
S1133370BBF910BD00F00EFAFBE7C046985C0000F4
S1133380020080230C325B0513431A78002AFCD018
S11333900171704770B50D00084B8000C4582000BF
S11333A029001830FFF73AFB0328F8D0002801D091
S11333B004232374207CC0B270BDC046A002002048
S11333C010B5104B8000C458E37C002B05D0237C3F
S11333D0052B02D0237C042B0BD10B4B18589823BC
S11333E0821C5B05134300221A7001F0ABF8012321
S11333F06374A37C002B03D020001830FFF7CBFAB2
S113340010BDC046A0020020985C0000F0B5170073
S1133410002289B005930EAB1B780500039383004B
S113342032481E5832481C5807AB1A80A37C880ABD
S113343004930223FF3363828B0A0193CBB21E28C9
S113344001D11A000B0A5B00D8B2019B00211E2B8C
S113345005D08F4203D1012303995B1A59B201436A
S1133460CBB202930299019807AB197001211E286F
S113347001D15A704918A3603000E1600299FFF746
S11334807FFF28000F99FFF785FF237C002B0CD1C9
S1133490002F0AD0059BA760E36030003978FFF75E
S11334A06FFF28000F99FFF775FF237C039A1A43D7
S11334B014D1019B1E2B01D0002F0FD00023012714
S11334C03000A360E76001F02BF802993000394323
S11334D0FFF756FF28000F99FFF75CFF0023207CBD
S11334E0E374049BC0B2A37409B0F0BD985C0000FF
S11334F0A0020020F7B583000193184B8200D7582F
S113350005000C000126002F26D1154B3900D35895
S1133510200024220193FDF7DBF820003900183045
S1133520FFF732FA2800FFF779FC019800F0A3FFB7
S11335300A4BAA00D4501F220A4B5B5D1340320091
S11335409A40094B1A609C22019B52050233134393
S1133550802266743E001A703000FEBDA002002076
S1133560985C00009C5C000000E100E0F7B50E4EA2
S11335708500AB59002701930C4B0400EA589C23A7
S113358002325B0513431F70FFF74DFC084B019893
S11335901A5D1F231A401E3B9340064A1830D36716
S11335A0FFF709FAAF51F7BDA0020020985C0000B4
S11335B09C5C000004E100E00A4B800070B5C55833
S11335C04B686A690C0093420BD0074BC658FFF74F
S11335D0DDFB002301006268300000F05BFF6368DC
S11335E06B6170BDA0020020985C0000F0B587B04C
S11335F004920593334A0FAB1E7883009C580391C1
S1133600627C0700002A03D10320207407B0F0BDB8
S1133610002E01D11E220E922B4A3800D5580023C9
S11336200399E360A360237423606374A674FFF7B3
S1133630C3FF90231021AA1C5B0513431970842334
S1133640E91C5B050B430221197098235B051343A6
S113365002934023029A2800137000F061FF039B39
S1133660380019880E9B049A019301230093059B4B
S1133670FFF7CCFE0D9B002B17D0237C002B11D120
S11336800C9B2800A3600D9BE3600C9B1978FFF74B
S113369077FE002E03D038000E99FFF77BFE207CC6
S11336A0C0B2B3E7237C042BF9D100230126029A8C
S11336B01370EB785B09334202D0280000F042FF1C
S11336C06674ECE7A0020020985C00001FB501249A
S11336D00394089C0294079C0194069C0094FFF7B1
S11336E085FF04B010BD0000244B70B58400E5587C
S11336F08423EA1C5B05134302221A709023A91841
S11337005B050B431B78EA78DBB292061DD5942245
S113371052050A431278002A17D0194AA458012BDB
S113372014D1EA781A4204D004332374FFF748FE14
S11337300BE0E368013BE360002BF7D0A3682800AB
S11337405A1CA2605978FFF71BFE70BD6268013AEB
S11337506260002A06D08C235B05012A0AD000226D
S11337600B4309E0FFF72CFE23685A1C22602A79D8
S11337701A70EAE708220B431A70F5E7985C000018
S1133780A0020020C31C84204005184302230370B8
S1133790704700000122F0B5904B8100CD5889B0EC
S11337A0EB1C0193EB7890261B091A400592012229
S11337B0EB7876059B091A4002923200AB1D1A433E
S11337C0944612780090D2B20792942252051A437A
S11337D01278AF1CD0B203909820400503431878A8
S11337E0C0B206907E480C583100394301910978E3
S11337F0C9B20491002A35D0079A002A0ED01023AA
S1133800624628001370FFF7BDFF236B002B52D0D4
S11338106A4601211078626B98474CE0069A002AA8
S113382020D0402228001A70FFF7ACFF23002C336D
S11338301B78002B03D19822520517433B70236B4E
S1133840002B04D06A4680211078626B9847E37D90
S1133850002B04D0200080211830FFF7AEF80A2393
S1133860237028E02800FFF78DFF059B002B24D050
S1133870EB1C1E4310233370029B002B10D0EB78FB
S11338805B07DA0F002B48DB019B1A70236B002BBC
S113389004D06A4604211078626B98472B790AE0B9
S11338A0082323702C342378002B04D198235B0540
S11338B01F43029B3B7009B0F0BD029B002BDED17D
S11338C0049B012B54D1EB78049A134230D0019B12
S11338D0029A1A702B7923002C331B78002B07D102
S11338E0039B002B04D198235B051F43039B3B7070
S11338F0236B002B04D06A4608211078626B98472A
S1133900A37D002B04D0200008211830FFF755F8C0
S113391000236360E3602375CDE71023019A1370DD
S1133920236B002B04D06A4602211078626B9847FF
S11339306368002B50D028008022E3680C305205C5
S11339401978024310780028FCD029710133E36010
S11339506368013B63606368002BACD1E36023754B
S1133960236B002BA7D06A4610211078626B53E7B3
S11339702B79A268DBB2002A2CD022691370236948
S113398001332361A368013BA360A368002B00D02B
S113399091E7039B002B11D123002C331B78002BC0
S11339A004D198235B051F43039B3B70E37D002BED
S11339B004D0200020211830FEF7FFFF0023637598
S11339C02361236B002B00D175E76A462021107810
S11339D0626B21E7072343E7062341E7985C000075
S11339E0A002002084225205024312780300D0B2C0
S11339F0002A0CD080200133400503431878013895
S1133A0043425841024B40421840024BC018704791
S1133A10808D5B0080841E0010B50D4B821D134306
S1133A201A780400D3B2002A0FD0012B07D1FFF774
S1133A30D9FF084B08341C432378D84010BD00201C
S1133A40022BFBD1044B1868F8E70448F6E7C0469C
S1133A500000081100009010A4020020006CDC0299
S1133A600C4A811D0A4312780300D0B2012A04D003
S1133A7002280BD000280BD1704780220133520555
S1133A8013431B78002BF7D10220F5E70320F3E75B
S1133A900520F1E70000081102009C2318325B05A1
S1133AA0134380221A700022064B03431A70064BFC
S1133AB0063018430378DAB2002BFBD1034B100015
S1133AC00B6070470000081300000811006CDC0252
S1133AD0F8B504000D0016001F00FFF7C1FF012810
S1133AE023D1002D25D08023621C5B0513431D7058
S1133AF0842302225B0523431A702200104B0832F0
S1133B0013437200D2B21A7040220E4B0E48234364
S1133B1006341A7004432378012BFCD1002D0DD1F7
S1133B200A4B334100203B60F8BD0228DBD1012D54
S1133B30D9D139002000FFF7AFFFD4E7044BF0E7F9
S1133B4000009010000008130000081180841E007B
S1133B5000127A0010B50A4C030022680120002AE2
S1133B600CD0084A7F301A431070074806330343C9
S1133B701A78022AFCD1002023680B6010BDC046CD
S1133B80A402002000000813000008119C23C901AE
S1133B905B050343C9B219707047942349015B055F
S1133BA00343C9B21970704770B506680C00300041
S1133BB02049FCF7CFFF1F4905003000FDF750F8FE
S1133BC00E00E12130000901FCF7C4FFE121E0808F
S1133BD009013000FDF744F80E003C213000FCF7E9
S1133BE0B9FF3C2120813000FDF73AF86E22A17222
S1133BF00321114BFF322380238895420AD80F49B1
S1133C009B0700D10E490123CA5CAA420CD36380EE
S1133C10A58070BD01339BB223800B40AD1A5A427C
S1133C205A416E32FF32E7E70133AD1A0D2BEBD167
S1133C30EEE7C04680510100B2070000C45C0000FA
S1133C409D5C00000188114A03008A18002030B5E9
S1133C50812A17D85A88541E0B2C13D89C88651EA9
S1133C601E2D0FD8DD88172D0CD81D893B2D09D8A2
S1133C709B7A3B2B06D88B0705D0054B9B5CA34254
S1133C804041C0B230BD034BF8E7C0464EF8FFFFD9
S1133C90C45C00009D5C000070B5134D83880288ED
S1133CA05B196E25FF35554344885B1995085B19EC
S1133CB00E4D6600755B5B19920710D00B600A68A5
S1133CC00B4BC4885343827A00899B18E12212016A
S1133CD062439B183C2242439B180B6070BD022C2C
S1133CE0ECD8013BEAE7C0464A05F5FFAA5C0000B0
S1133CF0805101008023084A1B0212689A4209D1AC
S1133D00A02310305B0518430368002B02D1013354
S1133D10FF3303607047C046A402002001008022E4
S1133D2010B5002301245205103111430C600B60BF
S1133D3090214360490504601C3001430B608821D5
S1133D40490501430B6084214905014310430B607D
S1133D50036010BD0200902314325B05134300225C
S1133D601A604260103201601A60704703680B6089
S1133D7070470000104B820070B5D55880220400B3
S1133D800E4B92051A602800FFF7C8FF2800FFF7C2
S1133D90B1FF0B4B1F261A5D01231800094932405D
S1133DA0095DC025314090408B40074A6D00505159
S1133DB053511060136070BDD45C00003C80845E7D
S1133DC0D85C0000D95C000000E100E0F7B50027F2
S1133DD0114B8000C55808000E000197FFF732FF11
S1133DE00400B84216D001A93000FFF755FF38008F
S1133DF0FEF7FEFF010080200002814206D0FCF79E
S1133E00A9FE01000198FCF7A5FE01902800019984
S1133E10FFF7A0FF2000FEBDD45C0000F7B500252D
S1133E20124B8000C4580E00200001A90195FFF731
S1133E309DFF2800FEF7DCFF05008020000285427C
S1133E400ED00B4B290004341C43FCF783FE276877
S1133E50019C29004443B8B2FCF77CFE2418019469
S1133E60310001A8FFF7A0FEF7BDC046D45C0000F6
S1133E7000007810F0B50027184B800085B0C558B5
S1133E8008000E0001920397FFF7DCFE0400B8421D
S1133E9003D10024200005B0F0BD300003A9FFF7D2
S1133EA0FBFE38002E68FEF7A3FF0100802000020D
S1133EB0814206D0FCF74EFE01000398FCF74AFE4F
S1133EC00390039BB342E4D3AB6088231C355B05AA
S1133ED01D43019B9A002A60DCE7C046D45C0000C5
S1133EE0044B8000C25888231C325B0513438900AD
S1133EF019607047D45C0000054B8000C2588823C9
S1133F0014325B0513431868431E9841C0B27047CE
S1133F10D45C00006B46E0221B78D2021B041340E1
S1133F20024A09070B4380180360704744100000DD
S1133F30084B8200D258902310B503325B0513431B
S1133F401B78002B02D000F013F910BD00F078F9B3
S1133F50FBE7C046DC5C00009C210C4B0C4A800053
S1133F60C3588258002003324905114310B5187113
S1133F700870942149050A4310701A7F824203D0C5
S1133F8020331800FEF707FD10BDC046AC02002028
S1133F90DC5C0000F7B50C0005001B4B302200214F
S1133FA087002000FE58FCF793FB2800FEF72CFF47
S1133FB0FEF7ECFE2060300000F0E5FA200000215E
S1133FC02030FEF7E1FCF31C01939023F21C5B0507
S1133FD01343102230001A70032100F012FB30004A
S1133FE0002100F033FB094BFC50094B5A5D1F23A1
S1133FF01A401E3B9340074A13609823019A5B05BD
S1134000134340221A70F7BDDC5C0000AC020020B0
S1134010E05C000000E100E0F8B50D4E85000D4BBA
S1134020AF590400E85800F0AEFA38002030FEF72B
S1134030C2FC094B20001A5D1F231A401E3B93400B
S1134040064AD367FEF7E5FE0023AB51F8BDC04630
S1134050AC020020DC5C0000E05C000004E100E055
S11340600A4B800070B5C658094B0C00C3581500A4
S113407030001A68096800F08DFA2860A3793000CE
S11340806279217900F0CFFA70BDC046DC5C000093
S1134090AC020020F7B51E4A83009C580500227923
S11340A00420002A16D11B4A9E58002903D0280058
S11340B001AAFFF7D5FF982300214020F21C5B05DD
S11340C013431970187027698F4204D12800FFF731
S11340D043FF0020FEBD0123237194235B05A161EE
S11340E033431B780720002BF4D0A368191E02D099
S11340F019780133A360B1712369013B2361A3697A
S11341000133A3619C235B051A4380231370E0E70A
S1134110AC020020DC5C0000F8B5134F134C8500A2
S11341202C59ED590127069E2777A2602661E3608A
S11341306661FFF7AFFF002814D1200007992030F3
S1134140FEF76CFC0328F8D000280BD09C23002237
S113415003355B052B4322711A70942303205B05FE
S11341601D432A70F8BDC046DC5C0000AC02002090
S113417010B51E4B8200D3581979002934D01C493C
S113418051585A69002A11D09C2252050A431278C8
S1134190002A0BD08A79DC68D2B2002C03D02270BA
S11341A0DA680132DA605A69013A5A611A69002AF6
S11341B012D0942252050A431278002A0CD09A682D
S11341C0141E02D0147801329A608C711A69013A73
S11341D01A619A6901329A611A69002A04D15B69E9
S11341E0002B01D1FFF7B8FE10BDC046AC02002081
S11341F0DC5C0000104A8000815800220F4B10B58F
S1134200C3580331581CC2779C2040050843DA6226
S11342101A701A835A629A621A63027094204005D3
S113422001430A701A0038321278002A03D001219F
S1134230181DFEF7C2FB10BDDC5C0000AC020020C0
S113424070B5254B8200D358591CC97F002942D030
S113425022495258D96A002917DB94214905114390
S11342600978002911D0D969CCB2596A002905D03E
S1134270DD6A002D02DD0C78013159629471D96A2E
S11342800139D962596B01315963D96A002905DAB8
S11342909421D41C4905214300240C70196B002976
S11342A011DD9C2149051143097800290BD092792D
S11342B0996AD2B2002903D00A709A6A01329A62CA
S11342C01A6B013A1A63DA6A002A04DC1B6B002BAE
S11342D001DCFFF78FFF70BDAC020020DC5C000046
S11342E0012903D0032909D00020704794235B05DA
S11342F018430078431E9841C0B2F6E78423F6E7DA
S1134300431C034849011843C9B201707047C046B1
S113431000008812831C9420490140051843C9B247
S113432001707047831C034889011843C9B20170A6
S11343307047C04600000813831C8C20C900400548
S11343401843C9B201707047F7B50400364EE31C38
S11343501E43337808780D00DBB2072860D8FCF7D9
S1134360E5FB04192B0E192B2B45304B01341C4350
S1134370002323703378012BFCD10020FEBD012BD8
S1134380FCD12A4B01341C43402323703378042B83
S1134390FCD1F2E70021012801D004200231337856
S11343A098423FD12000FFF7ABFF0421204A136954
S11343B08B43136130BFE0E70227B84207D10027DF
S11343C00B79BB4203D020004979FFF7ABFF194BAF
S11343D001341C4327703378154ADBB20193019BE7
S11343E001330193042311690B43E2E70421114BC8
S11343F0621C1A4311706A78A11C0B431A70002ABC
S113440006D1AB78002B03D02000E978FFF782FFB8
S1134410AB79002BDFD02000E979FFF78DFFDAE7D5
S11344200120ABE70320A9E7000030100000881248
S113443000ED00E000001010C31C0248184300788F
S1134440C0B2704700003010012314308B40012AA1
S113445004D1802212051043036070478022D204E5
S1134460DB431043F8E701238B40002A01D043606B
S113447070478360FCE70023C2220370437083709B
S1134480C37043718371C371037242728372C372C6
S113449070470000F0B5002487B00293FA23012688
S11344A0270025009B00534303900491009301943B
S11344B07642AB000593194BAA009B1859880498BF
S11344C0A140FCF747FB009B009AC31A824200D923
S11344D0131AB3421FD2114AA900525C2700019259
S11344E0002B02D00135322D13D10134032C01D01D
S11344F0002B0DD1029A002A00D013603F220199AB
S1134500BB0111400B43039ADBB2537007B0F0BDFB
S113451000251E00CDE73300E4E7C046FA5C000046
S1134520942302305B0503431B78002B05D08823BA
S11345305B05184304230370704780231B0518434D
S11345403023F8E7942210B55205841C22431178D5
S11345500300CAB2022001290DD18021C9042143DC
S11345608024CD300870E400033319784909080029
S11345701040114200D110BD013C002C01D0C046B6
S1134580F3E70920F7E70423C37000238370437023
S113459003717047F0B5130B89B001260393082308
S11345A00124764202939B1907900491059201938A
S11345B002270025631E0693210005987943FCF722
S11345C0C9FA049B834207D31B1AB34204D21E00C8
S11345D0069B03900295019301357F00092D01D0BC
S11345E0002EE9D1082C02D00134002EE0D1019B29
S11345F0029A1B0103981343079ADBB2537009B064
S1134600F0BD842310B50224C21C5B0513434A0089
S113461022401A70902300195B0518431023C90027
S11346201940017010BD10B58C2403306405C90015
S11346300443C9B221708821920049050143D2B2D2
S11346400A70802252051043037010BD802301229A
S113465002305B0503430A401A708C235B05184340
S113466008238900194001707047000004FEFF1FF1
S11346701B5B306D1B5B343B34336D1B5B313B3355
S1134680376D0D53616E69747920636865636B20BF
S11346906661696C6564211B5B306D0A001B5B30CD
S11346A06D1B5B343B34316D1B5B313B33376D0D1C
S11346B0496E76616C696420737570706C792076CC
S11346C06F6C74616765205B25645D206D56211BEA
S11346D05B306D0A004D6561737572656D656E744E
S11346E0206E756D6265722C205254432D3E5453D6
S11346F0522C205254432D3E5450522C00205254DC
S1134700432D3E5453522C205254432D3E54505268
S11347102C202320436F6E666967204572726F7286
S1134720730025752C2025642C2025642C0020255D
S1134730642C2025642C2025640A000D0A094D4DA3
S113474041383435315120526561642041626F72C1
S11347507465642E204465766963652044697361D9
S1134760626C6564203A28000D0A09494E413231D1
S11347703920526561642041626F727465642E2031
S11347804465766963652044697361626C6564207D
S11347903A28000D0A0A424D4536383020526561E8
S11347A0642041626F727465642E20446576696387
S11347B0652044697361626C6564203A28000D0ABF
S11347C009424D58303535616363656C205265612B
S11347D0642041626F727465642E20446576696357
S11347E0652044697361626C6564203A2820000D79
S11347F00A09424D583035356779726F2052656128
S1134800642041626F727465642E20446576696326
S1134810652044697361626C6564203A2820000D48
S11348200A0920424D583035356D61672052656163
S1134830642041626F727465642E204465766963F6
S1134840652044697361626C6564203A2820000D18
S11348500A094D41473331313020526561642041AA
S1134860626F727465642E204465766963652044C2
S1134870697361626C6564203A2820000D0A094C52
S113488033474432304820526561642041626F727C
S11348907465642E20446576696365204469736198
S11348A0626C6564203A2820000D0A094C5053328A
S11348B0354820526561642041626F727465642ECC
S11348C0204465766963652044697361626C65643C
S11348D0203A2820000D0A09544353333437323523
S11348E020526561642041626F727465642E2044B5
S11348F065766963652044697361626C6564203A16
S11349002820000D0A095349343730352052656197
S1134910642041626F727465642E20446576696315
S1134920652044697361626C6564203A2820000D37
S11349300A094844433130303020526561642041D3
S1134940626F727465642E204465766963652044E1
S1134950697361626C6564203A2820000D0A09536A
S1134960493730323120526561642041626F72747C
S113497065642E20446576696365204469736162C9
S11349806C6564203A2820000D0A094343533831EA
S11349903120526561642041626F727465642E2017
S11349A04465766963652044697361626C6564205B
S11349B03A2820000D0A09414D4738383334205233
S11349C06561642041626F727465642E204465766B
S11349D06963652044697361626C6564203A2820C8
S11349E0000D0A0941533732363220526561642082
S11349F041626F727465642E204465766963652034
S1134A0044697361626C6564203A2820000D0A09C8
S1134A1041533732363320526561642041626F72EC
S1134A207465642E20446576696365204469736106
S1134A30626C6564203A2820000D09496E76616C29
S1134A406964207761727053656E736F7244657622
S1134A50696365205B25645D207061737365642000
S1134A60746F2072657065617452656769737465EB
S1134A707252656164466F72446576696365416E1E
S1134A8064416464726573732E0A000D0A0941441B
S1134A90584C33363220526561642041626F72741F
S1134AA065642E2044657669636520446973616298
S1134AB06C6564203A28000D09506F776572757033
S1134AC020636F6D6D616E64206661696C65642E30
S1134AD020424D583035352064697361626C6564D9
S1134AE0200A000D09506F776572646F776E20633A
S1134AF06F6D6D616E64206162616E646F6E65647A
S1134B002E20424D583035352064697361626C65DE
S1134B10640A000D09506F776572646F776E2063C5
S1134B206F6D6D616E64206162616E646F6E656449
S1134B302E204C3347443230482064697361626CE0
S1134B4065640A000D09506F776572646F776E2093
S1134B50636F6D6D616E64206162616E646F6E651A
S1134B60642E2054435333343732352064697361DF
S1134B70626C65640A000A0A0A0D426F6F74696EFA
S1134B806720576172702C20696E20332E2E2E20E0
S1134B9000322E2E2E2000312E2E2E0A0D000D0A4C
S1134BA00A0A0A5B202A09090909570961097209D5
S1134BB07009287265762E2062290909092A205D68
S1134BC00A000D5B2020090909092020202020204B
S1134BD043616D627269646765202F205068797340
S1134BE0636F6D706C61622020200909090920201F
S1134BF05D0A0A000D09537570706C793D25646D6A
S1134C00562C0944656661756C742054617267653D
S1134C107420526561642052656769737465723DDE
S1134C203078253032780A000D094932433D256435
S1134C306B622F732C095350493D25646B622F73AB
S1134C402C09554152543D25646B622F732C09493C
S1134C5032432050756C6C2D55703D25640A0A0052
S1134C600D0953494D2D3E53434743363D30782576
S1134C7030327809095254432D3E53523D30782541
S1134C8030327809095254432D3E5453523D307802
S1134C90253032780A000D094D43475F43313D30DA
S1134CA078253032780909094D43475F43323D3056
S1134CB0782530327809094D43475F533D307825D4
S1134CC03032780A000D094D43475F53433D307835
S1134CD0253032780909094D43475F4D433D30780B
S1134CE02530327809094F53435F43523D307825CC
S1134CF03032780A000D09534D435F504D50524FE6
S1134D00543D307825303278090909534D435F50BA
S1134D104D4354524C3D3078253032780909534381
S1134D20422D3E5343523D3078253032780A000DEF
S1134D3009504D435F52454753433D307825303247
S1134D407809090953494D5F53434743343D30784B
S1134D5025303278095254432D3E5450523D307818
S1134D60253032780A0A000D0925647320696E2003
S1134D705254432048616E646C657220746F2D64D4
S1134D806174652C09256420506D67722045727228
S1134D906F72730A000D53656C6563743A0A000DF3
S1134DA02D202761273A2073657420646566617538
S1134DB06C742073656E736F722E0A000D2D20279C
S1134DC062273A2073657420493243206261756416
S1134DD020726174652E0A000D2D202763273A2066
S1134DE07365742053504920626175642072617444
S1134DF0652E0A000D2D202764273A207365742040
S1134E0055415254206261756420726174652E0AA2
S1134E10000D2D202765273A20736574206465668C
S1134E2061756C742072656769737465722061645E
S1134E3064726573732E0A000D2D202766273A20AD
S1134E407772697465206279746520746F20736564
S1134E506E736F722E0A000D2D202767273A207378
S1134E6065742064656661756C74205353535550A2
S1134E70504C592E0A000D2D202768273A20706FB8
S1134E80776572646F776E20636F6D6D616E6420F9
S1134E90746F20616C6C2073656E736F72732E0A6D
S1134EA0000D2D202769273A207365742070756CD6
S1134EB06C2D757020656E61626C652076616C7511
S1134EC0652E0A000D2D20276A273A207265706529
S1134ED061742072656164207265672030782530C2
S1134EE03278206F6E2073656E736F722023256491
S1134EF02E0A000D2D20276B273A20736C656570F0
S1134F0020756E74696C2072657365742E0A000DC9
S1134F102D20276C273A2073656E642072657065B6
S1134F20617465642062797465206F6E2049324330
S1134F302E0A000D2D20276D273A2073656E6420FC
S1134F4072657065617465642062797465206F6E42
S1134F50205350492E0A000D2D20276E273A206534
S1134F606E61626C65205353535550504C592E0A50
S1134F70000D2D20276F273A2064697361626C65E8
S1134F80205353535550504C592E0A000D2D2027B1
S1134F9070273A2073776974636820746F20564CC5
S1134FA05052206D6F64652E0A000D2D2027722744
S1134FB03A2073776974636820746F2052554E20C9
S1134FC06D6F64652E0A000D2D202773273A20701B
S1134FD06F77657220757020616C6C2073656E73D9
S1134FE06F72732E0A000D2D202774273A206475E2
S1134FF06D702070726F636573736F722073746168
S113500074652E0A000D2D202775273A20736574C8
S11350102049324320616464726573732E0A000D63
S11350202D202778273A2064697361626C652053C8
S1135030574420616E64207370696E20666F72201D
S1135040313020736563732E0A000D2D20277A27D3
S11350503A2064756D7020616C6C2073656E736F9B
S1135060727320646174612E0A000D2D20272D2790
S11350703A205265616420313030302072617720EB
S113508063757272656E742076616C7565732066E3
S1135090726F6D2074686520494E413231392E0A91
S11350A0000D456E7465722073656C656374696F79
S11350B06E3E20000D0953656C6563743A0A000D59
S11350C0092D20273127204144584C333632090911
S11350D00928307830302D2D30783244293A203167
S11350E02E3656202D2D20332E35562028636F6DF5
S11350F070696C6564206F757429200A000D092D90
S11351002027322720424D58303535616363656C62
S113511020090928307830302D2D30783346293A4B
S113512020322E3456202D2D20332E36562028633F
S11351306F6D70696C6564206F757429200A000DA9
S1135140092D2027332720424D5830353567797291
S11351506F09090928307830302D2D3078334629ED
S11351603A20322E3456202D2D20332E3656202828
S1135170636F6D70696C6564206F757429200A0013
S11351800D092D2027342720424D583035356D61C7
S11351906709090928307834302D2D3078353229C3
S11351A03A20322E3456202D2D20332E36562028E8
S11351B0636F6D70696C6564206F757429200A00D3
S11351C00D092D20273527204D4D413834353151D7
S11351D009090928307830302D2D30783331293AB7
S11351E020312E393556202D2D20332E36562028A9
S11351F0636F6D70696C6564206F757429200A0093
S11352000D092D20273627204C50533235480909E3
S11352100928307830382D2D30783234293A20312D
S11352202E3756202D2D20332E36562028636F6DB1
S113523070696C6564206F757429200A000D092D4E
S113524020273727204D41473331313009090928B8
S1135250307830302D2D30783131293A20312E39C3
S11352603556202D2D20332E36562028636F6D7031
S1135270696C6564206F757429200A000D092D205E
S11352802738272048444331303030090909283071
S11352907830302D2D30783146293A20332E30564F
S11352A0202D2D20352E30562028636F6D70696CAB
S11352B06564206F757429200A000D092D20273993
S11352C027205349373032310909092830783030E2
S11352D02D2D30783046293A20312E3956202D2D67
S11352E020332E36562028636F6D70696C656420F8
S11352F06F757429200A000D092D20276127204C81
S113530033474432304809090928307830462D2D76
S113531030783339293A20322E3256202D2D20333D
S11353202E36562028636F6D70696C6564206F7526
S11353307429200A000D092D2027622720424D459B
S113534036383009090928307841412D2D30784606
S113535038293A20312E3656202D2D20332E36561C
S11353602028636F6D70696C6564206F75742920E3
S11353700A000D092D202764272054435333343762
S1135380323509090928307830302D2D30783144F0
S1135390293A20322E3756202D2D20332E335620F5
S11353A028636F6D70696C6564206F757429200AB9
S11353B0000D092D2027652720534934373035093E
S11353C00909286E2F61293A20202020202020203E
S11353D0322E3756202D2D20352E35562028636F3A
S11353E06D70696C6564206F757429200A000D095D
S11353F02D202766272050414E31333236090909C2
S1135400286E2F61292028636F6D70696C65642094
S11354106F757429200A000D092D20276727204362
S1135420435338313109090928307830302D2D3073
S1135430784646293A20312E3856202D2D20332EF9
S113544036562028636F6D70696C6564206F7574BF
S113545029200A000D092D2027682720414D4738AF
S113546038333409090928307830302D2D3F293A52
S1135470203F56202D2D203F562028636F6D7069E4
S11354806C6564206F757429200A000D092D20278E
S11354906A272041533732363209090928307830D7
S11354A0302D2D30783242293A20322E3756202D95
S11354B02D20332E36562028636F6D70696C656419
S11354C0206F757429200A000D092D20276B2720D1
S11354D041533732363309090928307830302D2DBD
S11354E030783242293A20322E3756202D2D20335F
S11354F02E36562028636F6D70696C6564206F7555
S11355007429200A000D092D20276C2720494E41BB
S113551032313909090928307830302D2D3078306E
S113552035293A203356202D2D20352E3556202866
S1135530636F6D70696C6564206F757429200A004F
S11355400D09456E7465722073656C656374696FCB
S11355506E3E20000D09496E76616C6964207365A6
S11355606C656374696F6E202725632720210A0008
S11355700D0A095365742049324320626175642021
S11355807261746520696E206B6270732028652EC9
S1135590672E2C20273030303127293E20000D0A79
S11355A00949324320626175642072617465207315
S11355B0657420746F202564206B622F73000D0ABC
S11355C009536574205350492062617564207261E7
S11355D0746520696E206B6270732028652E672EB7
S11355E02C20273030303127293E20000D0A095362
S11355F05049206261756420726174653A202564A3
S1135600206B622F73000D0A0953657420554152B3
S1135610542062617564207261746520696E206B28
S11356206270732028652E672E2C2027303030318D
S113563027293E20000D0A09554152542062617504
S11356406420726174653A202564206B622F7300B4
S11356500D0A09456E74657220322D6E7962626C92
S11356606520726567697374657220686578206166
S11356706464726573732028652E672E2C2027338B
S11356806527293E20000D0A09456E74657265641C
S1135690205B3078253032785D2E0A0A000D0A0925
S11356A0456E7465722049324320616464722E2011
S11356B028652E672E2C202730662729206F72201C
S11356C02739392720666F7220535049203E200025
S11356D00D0A09456E7465726564205B3078253067
S11356E032785D2E0A000D0A09456E7465722068D1
S11356F06578206279746520746F2073656E642008
S113570028652E672E2C2027306627293E20000D81
S11357100A09535049207772697465206661696C7F
S113572065642E204144584C3336322044697361F9
S1135730626C6564000D0A0949324320777269740A
S113574065206661696C65642C206572726F7220D5
S113575025642E0A0A000D0A094F7665727269647F
S113576065205353535550504C5920696E206D5643
S11357702028652E672E2C20273138303027293EEB
S113578020000D0A094F76657272696465205353CF
S1135790535550504C592073657420746F20256400
S11357A0206D56000D0A094E4F54453A2046697241
S11357B0737420706F7765722073656E736F727384
S11357C020616E6420656E61626C65204932430A13
S11357D00A000D0A0944656661756C742070756C65
S11357E06C757020656E61626C652076616C7565A0
S11357F020696E206B696C6F4F686D732028652E6D
S1135800672E2C20273030303027293E20000D0A07
S11358100949326350756C6C757056616C756520FE
S113582073657420746F2025640A000D0A0941759C
S1135830746F2D696E6372656D656E742066726F28
S11358406D206261736520616464726573732030D6
S113585078253032783F205B273027207C20273181
S1135860275D3E20000D0A094368756E6B20726542
S1135870616473207065722061646472657373205F
S113588028652E672E2C20273127293E20000D0A5B
S1135890094368617474793F205B273027207C209A
S11358A02731275D3E20000D0A09496E7465722D6B
S11358B06F7065726174696F6E207370696E2064B5
S11358C0656C617920696E206D696C6C69736563C0
S11358D06F6E64732028652E672E2C20273030309D
S11358E03027293E20000D0A0952657065746974D9
S11358F0696F6E732070657220616464726573737E
S11359002028652E672E2C20273030303027293E62
S113591020000D0A094D6178696D756D20766F6CF4
S11359207461676520666F72206164617074697662
S11359306520737570706C792028652E672E2C2075
S1135940273030303027293E20000D0A0952656681
S11359506572656E6365206279746520666F722076
S1135960636F6D70617269736F6E732028652E6743
S11359702E2C2027336527293E20000D0A09526565
S113598070656174696E67206465762564204020C3
S11359903078253032782C20726570733D25642C64
S11359A02070756C6C3D25642C2064656C61793DB8
S11359B025646D733A0A0A000D0A09536C65657013
S11359C0696E6720756E74696C2073797374656D84
S11359D02072657365742E2E2E0A000D0A09427911
S11359E0746520746F2073656E642028652E672E9D
S11359F02C2027463027293E20000D0A09526570C5
S1135A0065746974696F6E732028652E672E2C2067
S1135A10273030303027293E20000D0A0953656EA7
S1135A2064696E67202564207265706574697469A1
S1135A306F6E73206F66205B3078253032785D207E
S1135A406F6E204932432C2069326350756C6C753B
S1135A5070456E61626C653D25642C20535353552B
S1135A6050504C593D25646D560A0A000D0A0953DD
S1135A70656E64696E67202564207265706574695B
S1135A8074696F6E73206F66205B307825303278CE
S1135A905D206F6E205350492C2053535355505062
S1135AA04C593D25646D560A0A000D0A0943616E7E
S1135AB06E6F74207365742049324320616464728C
S1135AC06573733A20466972737420736574207425
S1135AD068652064656661756C742049324320648E
S1135AE065766963652E0A000D0A095370696E6E46
S1135AF0696E6720666F72203130207365636F6E44
S1135B0064732E2E2E0A000D09446F6E652E0A0A48
S1135B10000D0A09456E61626C696E672049324363
S1135B202070696E732E2E2E0A000D0A09486578BE
S1135B30206F7220636F6E766572746564206D6F7A
S1135B4064653F2028276827206F72202763272950
S1135B503E20000D0A095365742074686520746939
S1135B606D652064656C6179206265747765656E26
S1135B7020656163682072756E20696E206D696CA2
S1135B806C697365636F6E64732028652E672E2CB1
S1135B9020273132333427293E20000D0A09446579
S1135BA06C6179206265747765656E2072656164E5
S1135BB020626174636865732073657420746F2058
S1135BC02564206D696C6C697365636F6E64732EF4
S1135BD00A0A000D095061796C6F616473206D616C
S1135BE06B6520726F636B657473206D6F726520D3
S1135BF07468616E206A7573742066697265776F64
S1135C00726B732E000D09204164647265737320F6
S1135C10427974653A2030782578200A000D0920ED
S1135C2053504920536F75726365204275666665EB
S1135C30723A2030782578200A000D0A094D465220
S1135C404320746573742E2E2E0A000D09204279A8
S1135C507465732052656365697665643A203078AB
S1135C60257820307825782030782578200A00544B
S1135C7065726D696E616C00525454005345474718
S1135C8045520030313233343536373839414243A6
S1135C90444546898A0000000060064008001F1D34
S1135CA01F1E1F1E1F1F1E1F1E1F000000001F009F
S1135CB03B005A0078009700B500D400F3001101AE
S1135CC030014E01001F1C1F1E1F1E1F1F1E1F1E02
S1135CD01F00000000D003401415000000600740BE
S1135CE00A0000000050064000F00F4040F00F4052
S1135CF00090044000A004401E1F00001400010096
S1135D0016000200180003001A0004001C0005001D
S1135D101E0009002000060022000A0024000700DB
S1135D2028000C002C001000300011003800120074
S1135D3040000F00440013004800140050001500F8
S1135D40580019006000160068001A00700017005F
S1135D5080001C0090001D00A0001E00C000220056
S1135D60E0001F00F00023000001240020012500B2
S1135D704001260080012A00C0012700E0012B0019
S1135D8000022C0040022D0080022E00000332008D
S1135D9080032F00C0033300000434008004350066
S1135DA00005360000063A000007370080073B0074
S1135DB000083C0000093D00000A3E00000C3F00C2
S1135DC0000F0000F8B5C046F8BC08BC9E467047FA
S10F5DD0F8B5C046F8BC08BC9E467047FD
S10B5DDCCCA6FF7F01000000CA
S1075DE4850400002E
S1075DE85904000056
S1135DEC04FEFF1F00000000000000000000000083
S1135DFC0000000000000000000000000000000093
S1135E0C0000000000000000000000000000000082
S1135E1C0000000000000000000000000000000072
S1135E2C0000000000000000000000000000000062
S1135E3C0000000000000000000000000000000052
S1135E4C0000000068FEFF1F7D0E00000300000030
S1135E5C00000000C8000000050000000A0000005B
S1135E6C01000000C8000000010000000100000057
S1135E7C0101000001010000FFFFFFFF0000000012
S1135E8C00000000010000000100000001000000FF
S1135E9C01000000010000000200000001000000ED
S1135EAC01000000050000000100000001000000DA
S1135EBC0800000001000000010000000C000000BC
S1135ECC01000000010000000001000001000000BE
S1135EDC01000000050100000100000001000000A9
S1135EEC0601000001000000010000000701000091
S1135EFC01000000010000000A0100000100000084
S1135F0C010000000B010000010000000100000072
S1135F1C0D0100000100000001000000020100005E
S1135F2C010000000100000003010000010000005A
S1135F3C0100000004010000010000000100000049
S1135F4C0600000001000000010000000700000032
S1135F5C0100000001000000090000000100000025
S1135F6C01000000FFFFFFFF000000000000000024
S1135F7C010100000000000000010000000000000E
S10B5F8C000001000001000007
S903051DDA
